:020000040800F2
:100000002014002045010008FD0B0008610A0008CB
:10001000F90B00083707000843180008000000002B
:10002000000000000000000000000000991100081E
:100030001509000800000000E10F00083113000856
:100040005F0100085F0100085F0100085F01000810
:100050005F0100085F0100085F0100085F01000800
:100060005F0100085F0100085F0100085F010008F0
:100070005F0100085F0100085F0100085F010008E0
:100080005F0100085F0100085F0100085F010008D0
:100090005F0100085F0100085F0100085F010008C0
:1000A0005F0100085F0100085F0100085F010008B0
:1000B0005F01000895130008B11300085F010008F4
:1000C0005F0100085F0100085F0100085F01000890
:1000D0005F010008411500085F010008791500085C
:1000E0005F0100085F0100085F0100085F01000870
:1000F0005F0100085F0100085F0100085F01000860
:100100005F0100085F0100085F0100085F0100084F
:100110005F0100085F0100085F0100085F0100083F
:100120005F0100085F0100085F0100085F0100082F
:10013000DFF80CD000F034FA004800478D220008A8
:10014000201400200648804706480047FEE7FEE7E7
:10015000FEE7FEE7FEE7FEE7FEE7FEE7FEE7FEE777
:10016000351300083101000830B505462A460B4614
:1001700012F8010B13F8014B08B1A042F8D01CB1E2
:10018000002802D06D1CF1E7284630BDCAB2401EDF
:1001900010F8011F8A4202D00029F9D100207047CF
:1001A00030B50B46014600202022012409E021FA47
:1001B00002F59D4205D303FA02F5491B04FA02F544
:1001C0002844151EA2F10102F1DC30BD2DE9F05FDB
:1001D0000546002092469B468846064681464024B6
:1001E0001BE0284641464746224600F0FAF95346AE
:1001F0005A46C01A914110D311461846224600F0C3
:10020000E1F92D1A67EB01084F4622460120002133
:1002100000F0D8F917EB00094E41201EA4F10104AB
:10022000DFDC484631462A464346BDE8F09F2DE9CB
:10023000FE4F804681EA0300C00F0C46009021F07B
:10024000004123F00045B8EB0200A94105D2404629
:10025000214690461C460B46024623F000401043C0
:1002600047D0270DC7F30A00C3F30A510290401A82
:10027000019040286BDAC3F3130040F4801B009810
:10028000924620B10023D2EB030A63EB0B0B0198DB
:100290005946C0F14002504600F094F906460D461A
:1002A00050465946019A00F0ACF910EB0800614144
:1002B000002487EA115284EAE7731A4340D0009A77
:1002C00062B3019A012A4FEA075215DC001B61EB69
:1002D00002014FF0004202EA0752CDE90042001C41
:1002E00041F5801132462B4600F0ACF903B0BDE871
:1002F000F08F40462146F9E7001B61EB0201001C2C
:1003000041F5801300185B412018A2F5001747EB58
:10031000030140EAD570B6196D4111E06D084FEA4E
:10032000360645EAC0754FEA0752001B61EB020131
:10033000001C41F5801149084FEA30000019514175
:1003400032462B4603B0BDE8F04F00F06CB9009880
:10035000012240000023D0EB020263EBE07300981F
:1003600021464FEAE074B8EB000061EB0401E9E7D5
:1003700083F000435BE781F0004158E72DE9FE4F31
:1003800081EA030404F0004421F0004100944FF09E
:10039000000B23F0004350EA01045ED052EA03044C
:1003A0005BD0C3F30A54C1F30A552C44A4F2F334CE
:1003B0000194A0FB0254C1F3130141F48011C3F373
:1003C000130343F4801301FB024400FB034E840A31
:1003D000970A44EA815447EA8357A4FB07680295C9
:1003E0008D0A05FB07854FEA932C04FB0C54270567
:1003F000029D4FEA065847EA1637B5EB08056EEB43
:10040000070C870E920E47EA811742EA8312A7FB78
:100410000201B6EB0B0164EB00042B0D43EA0C3335
:100420005E1844EB1C50DA465146E7FB0201C5F367
:1004300013044FEA0B3343EA14534FEA0432019C8E
:1004400043EA0603A4F10C040294009CCDE900B435
:1004500000F0F8F803B0BDE8F08F00200146F9E79E
:100460002DE9F04D81EA030404F0004B21F0004532
:1004700014464FF0000A23F0004150EA050220D054
:1004800054EA01021DD0C5F30A570246C5F313030F
:10049000C1F31300C1F30A5640F4801543F48013EE
:1004A000A7EB0608101BD64608F2FD3873EB0500D3
:1004B00002D308F1010801E092185B41B8F1000F86
:1004C00003DA00200146BDE8F08D00204FF48011D2
:1004D000064684460EE0171B73EB050705D3121B77
:1004E00063EB050306434CEA010C49084FEA300070
:1004F00092185B4150EA0107EDD152EA030012D095
:1005000082EA040083EA0501084305D0101BAB41D1
:1005100006D20122002306E000224FF0004302E051
:100520006FF0010253101AEB06004CEB085110EB70
:100530000A0041EB0B01BDE8F04D00F074B8C1F3C7
:100540000A52C1F3130140F2FF3341F480119A4281
:1005500002DA00200146704740F233439A42A2F289
:10056000334202DC524200F03CB800F02BB80000ED
:1005700030B5041E71F1000404DB4FF0004440422A
:1005800064EB0101141E73F1000405DB1C464FF0FF
:100590000043524263EB0403994208BF904230BDCE
:1005A000064C074D06E0E06840F0010394E80700C0
:1005B00098471034AC42F6D3FFF7BEFD2C25000857
:1005C0004C250008202A04DB203A00FA02F1002022
:1005D00070479140C2F1200320FA03F31943904081
:1005E0007047202A04DB203A21FA02F000217047EC
:1005F00021FA02F3D040C2F120029140084319468B
:100600007047202A06DBCB17203A41FA02F043EA72
:10061000E07306E041FA02F3D040C2F120029140BB
:1006200008431946704710B5141E73F1000408DA28
:10063000401C41F1000192185B411A4301D120F0A6
:10064000010010BD2DE9F04D92469B4611B1B1FA63
:1006500081F202E0B0FA80F220329046FFF7B2FF5A
:1006600004460F4640EA0A0041EA0B0153465A4647
:10067000084313D0114653EA010019D0C8F14002D3
:100680005046FFF7AEFF05460E46504659464246D5
:10069000FFF798FF084305D0012004E020463946C3
:1006A000BDE8F08D0020054346EAE0762C43374351
:1006B0000A986305E40AA0EB08000022FD0A44EA58
:1006C00047540A3002D500200146E9E70105101918
:1006D0006941DDE9084500196941BDE8F04DA2E72F
:1006E00070B58C1810F8015B15F0070301D110F8F4
:1006F000013B2A1106D110F8012B03E010F8016B21
:1007000001F8016B5B1EF9D12B0705D40023521EA3
:100710000DD401F8013BFAE710F8013BCB1A921C0B
:1007200003E013F8015B01F8015B521EF9D5A14209
:10073000D8D3002070BD00BFFEE7000038B501210E
:10074000042000F06FFC002413E01F4800EBC400FD
:100750008088ADF8000010208DF8030003208DF88C
:100760000200194951F83400694600F0E1F8601CB4
:10077000C4B2042CE9DB002413E0144800EBC400ED
:100780008088ADF8000048208DF8030003208DF824
:1007900002000E4951F83400694600F0C9F8601CA7
:1007A000C4B2042CE9DB00240AE0074A02EBC402CD
:1007B0009188054A52F8340000F050F9601CC4B228
:1007C000042CF2DB38BD0000B00C0020D00C00205F
:1007D00070B5002434E0052001F032FD4A4A02EBF6
:1007E000C4029188484A52F8340000F035F90025D7
:1007F00019E0052001F024FD444A02EBC50291886E
:10080000424A52F8350000F01EF928B9012040494B
:1008100001EB8401485504E000203D4901EB8401CF
:100820004855681CC5B2042DE3DB374A02EBC4020D
:100830009188354A52F8340000F010F9601CC4B2B7
:10084000042CC8DB32480078012801D1042070BD97
:100850002F484078012801D10820F8E72C488078FB
:10086000012801D10C20F2E72948C078012801D1E4
:100870001020ECE726480079012801D10320E6E7A3
:1008800023484079012801D10720E0E720488079FA
:10089000012801D10B20DAE71D48C079012801D1D8
:1008A0000F20D4E71A48007A012801D10220CEE7B0
:1008B0001748407A012801D10620C8E71448807AF9
:1008C000012801D10A20C2E71148C07A012801D1CC
:1008D0000E20BCE70E48007B012800D1B7E70C488A
:1008E000407B012801D10520B1E70948807B012820
:1008F00001D10920ABE70648C07B012801D10D20BA
:10090000A5E70020A3E70000B00C0020D00C0020D9
:100910001010002070470000044900E0521C11F83C
:10092000013B002BFAD1500870470000DC0B00207F
:100930002DE9F04102460025002600200023002476
:10094000002791F803C00CF00F0591F803C00CF0DC
:10095000100CBCF1000F03D091F802C04CEA050561
:1009600091F800C0BCF1000F31D0146800202BE0DA
:100970004FF0010C0CFA00F3B1F800C00CEA0306CA
:100980009E4220D183004FF00F0C0CFA03F7BC43BA
:1009900005FA03FC4CEA040491F803C0BCF1280FEB
:1009A00006D14FF0010C0CFA00FCC2F814C00AE0AA
:1009B00091F803C0BCF1480F05D14FF0010C0CFABF
:1009C00000FCC2F810C0401C0828D1D31460B1F854
:1009D00000C0BCF1FF0F34DD546800202EE000F1B0
:1009E000080C4FF0010808FA0CF3B1F800C00CEA4B
:1009F00003069E4221D183004FF00F0C0CFA03F73F
:100A0000BC4305FA03FC4CEA040491F803C0BCF1B2
:100A1000280F05D100F1080C08FA0CF8C2F8148070
:100A200091F803C0BCF1480F07D100F1080C4FF05A
:100A3000010808FA0CF8C2F81080401C0828CED330
:100A40005460BDE8F0810246002093680B400BB172
:100A5000012000E00020704741617047016170474C
:100A600000BFFEE7002001E0411CC8B20A28FBDB02
:100A70007047000008B50121082000F0D3FA4FF4B8
:100A80008070ADF8000003208DF8020014208DF86E
:100A9000030069460648FFF74BFF4FF40070ADF8BE
:100AA000000069460248FFF743FF00F01DF808BD4B
:100AB000000C014010B50120094908600949C1F83E
:100AC000A001FFF7CFFF002005490860FFF7CAFF2C
:100AD00000200449C1F8A001FFF7C4FF10BD0000C9
:100AE000A48121420080214210B500200549086000
:100AF00001200549C1F8A001FFF7B4FF0120014919
:100B0000086010BDA48121420080214210B501205F
:100B10000D490860FFF7A6FF01200C49C1F8A001AC
:100B2000FFF7A0FF4FF400710948FFF78CFF08B1F1
:100B3000012400E0002400200349091F0860FFF79A
:100B400091FF204610BD0000A48121420080214277
:100B5000000C01407CB50546EF208DF80000012017
:100B60008DF801001A480068000E8DF80200184840
:100B70000068000C8DF8030015480088000A8DF805
:100B80000400134800788DF8050007208DF8060052
:100B900000208DF807000F49088012E0012001F0C5
:100BA0004FFB0C48008800F4004050B10020094978
:100BB000088069460848FFF7D7FA04460CB120467A
:100BC0007CBD681E80B2051EE8D100BFF8E70000BA
:100BD000A00C0020AA0C0020F00C002000BF05494A
:100BE000098801F040010029F9D00249091D088057
:100BF000704700000048004000BFFEE7704700005B
:100C000070B5002100230F22C47804B3154C24686A
:100C100004F4E064C4F5E064210AC1F10403CA40AD
:100C2000447804FA03F184781440214309010E4CFE
:100C30000678A155047804F01F050124AC4005781E
:100C40006D11AD0005F1E025C5F8004109E004781B
:100C500004F01F050124AC40044D0678761145F8D8
:100C6000264070BD0CED00E000E400E080E100E013
:100C700002490143024A1160704700000000FA0572
:100C80000CED00E010B5002000F001F810BD70B5CB
:100C90000646002415E004F1B001C8B200F000FEE1
:100CA000002000F0FDFD102000F0FAFD002504E01A
:100CB000304600F00BFE681CC5B2822DF8DB601CCC
:100CC000C4B2082CE7DB70BD10B5FFF7D3FEAE2031
:100CD00000F0E6FD002000F0E3FD102000F0E0FD54
:100CE000402000F0DDFDB02000F0DAFD812000F0B2
:100CF000D7FDFF2000F0D4FDA12000F0D1FDA620FB
:100D000000F0CEFDA82000F0CBFD3F2000F0C8FD94
:100D1000C82000F0C5FDD32000F0C2FD002000F087
:100D2000BFFDD52000F0BCFD802000F0B9FDD8202B
:100D300000F0B6FD052000F0B3FDD92000F0B0FDB5
:100D4000F12000F0ADFDDA2000F0AAFD122000F045
:100D5000A7FDDB2000F0A4FD302000F0A1FD8D20D8
:100D600000F09EFD142000F09BFDAF2000F098FDE8
:100D700010BD70B504460D4605F1B001C8B200F0D3
:100D80008FFDA11CC1F3031141F0100000F088FD9C
:100D9000A11C01F00F0141F0010000F081FD70BDC8
:100DA0002DE9F047074688461646002580E0307852
:100DB000A02843DD00253AE0702F04DD002708F16C
:100DC000020000F0FF0830783C4911F81510884205
:100DD0002CD17078012101EB4501384A515C8842E1
:100DE00024D141463846FFF7C4FF002406E004EB57
:100DF0004511334A505C00F069FD641C102CF6D399
:100E000008F10100C1B23846FFF7B3FF002407E044
:100E100004EB451110312A4A505C00F057FD641C68
:100E2000102CF5D307F11000C7B204E06D1C254863
:100E300000688542C0D300BFB61C39E07A2F04DDBC
:100E4000002708F1020000F0FF0831781E48FFF784
:100E50009DF98146B9F1000F29D041463846FFF788
:100E600088FF002409E099F80010203904EB0111F3
:100E7000164A505C00F02AFD641C082CF3D308F1DC
:100E80000100C1B23846FFF774FF00240AE099F868
:100E90000010203904EB011108310C4A505C00F0BD
:100EA00015FD641C082CF2D307F10800C7B2761CAC
:100EB000307800287FF47BAFBDE8F087DC0B0020A2
:100EC0001C0600209C0C0020390C00202C00002067
:100ED0002DE9F041054600F08AF900F05FF90120A4
:100EE00000F07FF9042000F08AF9022000F091F967
:100EF0002846FFF773FEEF1D384600F069F94FF4FE
:100F0000FA60FFF727FE06460EB1747A00E0FF2470
:100F10002046BDE8F08170B500F069F900F03EF9B7
:100F2000012000F05EF9032000F069F9012000F0D3
:100F300070F90526304600F04BF94FF4FA60FFF7E0
:100F400009FE05460DB16C7A00E0FF24204670BD15
:100F50002DE9F04781460D4616461F4600F047F939
:100F600000F01CF9012000F03CF9082000F047F9DE
:100F70001B2000F04EF94846FFF730FE2812FFF71D
:100F80002DFEE8B2FFF72AFE3012FFF727FEF0B27F
:100F9000FFF724FE09F1240000EB2520E9B2084404
:100FA00000EB2620F1B200EB010A504600F010F9E8
:100FB0004FF4FA60FFF7CEFD044664B194F809805F
:100FC000E07AA17A00EB01203880607B217B00EB86
:100FD0000120788001E04FF0FF084046BDE8F0872F
:100FE0007047000029B1064AD2690243044BDA6116
:100FF00004E0034AD2698243014BDA617047000082
:101000000010024029B1064A12690243044B1A61DA
:1010100004E0034A12698243014B1A6170470000E1
:101020000010024029B1064A92690243044B9A61BA
:1010300004E0034A92698243014B9A6170470000C1
:101040000010024029B1064AD2680243044BDA601C
:1010500004E0034AD2688243014BDA607047000023
:101060000010024030B500210022002400232D4D45
:101070006D6805F00C0121B1042905D0082923D1A0
:1010800005E0294D056022E0274D05601FE0254D54
:101090006D6805F47012234D6D6805F480340225E7
:1010A00005EB92421CB9214D554305600BE01D4DE7
:1010B0006D6805F400351DB11C4D5543056002E017
:1010C000194D5543056002E0174D056000BF00BF94
:1010D000144D6D6805F0F0010909154D6B5C05684C
:1010E000DD4045600F4D6D6805F4E061090A104D63
:1010F0006B5C4568DD4085600A4D6D6805F46051A4
:10110000C90A0B4D6B5C4568DD40C560054D6D68D7
:1011100005F44041890B074D6B5CC568B5FBF3F5E1
:10112000056130BD0010024000127A0000093D0048
:10113000180000202800002008B501210820FFF732
:1011400071FF4FF48050ADF8000010208DF80300BF
:1011500003208DF8020069460448FFF7E9FB4FF4CD
:1011600080510248FFF77AFC08BD0000000C0140E6
:1011700010B54FF480510248FFF770FC10BD00001D
:10118000000C014010B54FF480510248FFF764FC99
:1011900010BD0000000C01407047000010B50B4965
:1011A0000968080EFFF71AFD08480068C0F30740F9
:1011B000FFF714FD05480088C0F30720FFF70EFD78
:1011C00002490878FFF70AFD10BD0000A00C0020BE
:1011D00010B504462012FFF701FDE0B2FFF7FEFC58
:1011E00010BD10B504462046FFF7F8FC10BD10B541
:1011F000EF20FFF7F3FC0120FFF7F0FC10BD10B566
:101200000446C4F30720FFF7E9FCE0B2FFF7E6FC71
:1012100010BD10B504462046FFF7E0FC10BD10B528
:1012200000F002F810BD00000CB500200190009005
:101230003348006840F480303149086000BF3048CE
:10124000006800F4003000900198401C0190009864
:1012500018B90198B0F5A06FF1D12948006800F4E1
:10126000003010B10120009001E0002000900098B3
:10127000012843D12348006840F01000214908604C
:101280000846006820F0030008600846006840F047
:10129000020008601A4840681949486008464068DA
:1012A00048600846406840F48060486008464068EE
:1012B00020F47C1048600846406840F4E81048601C
:1012C0000846006840F08070086000BF0C48006865
:1012D00000F000700028F9D00948406820F00300B1
:1012E000074948600846406840F00200486000BF77
:1012F0000348406800F00C000828F9D10CBD00003C
:101300000010024000200240042808D14FF0E021E4
:10131000096941F004014FF0E022116107E04FF04C
:10132000E021096921F004014FF0E02211617047CA
:101330007047000010B51348006840F001001149E3
:10134000086008464068104908400E494860084651
:1013500000680E4908400B4908600846006820F400
:10136000802008600846406820F4FE0048604FF482
:101370001F008860FFF753FF4FF0006004490860CA
:1013800010BD0000001002400000FFF8FFFFF6FE55
:1013900008ED00E010B50121044800F062F818B132
:1013A0000121024800F04EF810BD0000000400408A
:1013B00010B50121094800F054F868B108480088C8
:1013C00040F40040064908800121044800F03AF842
:1013D0000021024800F039F810BD0000000800406C
:1013E000AA0C00207FB505460C4601210420FFF71A
:1013F000F9FDADF80450ADF800400020ADF806004E
:10140000ADF8020069460E4800F048F80122114686
:101410000B4800F037F80121094800F016F81E20AB
:101420008DF80C0000208DF80D0002208DF80E00C4
:1014300001208DF80F0003A8FFF7E2FB7FBD00003D
:1014400000080040CA430282704721B1028842F07E
:101450000102028004E002884FF6FE731A40028007
:10146000704730B50246002000230024158A05EAA3
:101470000103958905EA010413B10CB1012000E0D4
:10148000002030BD1AB183890B43838102E0838938
:101490008B4383817047818470470000002202885B
:1014A0001D4B98420ED01D4B98420BD0B0F1804F8F
:1014B00008D01B4B984205D01A4B984202D01A4BC9
:1014C000984204D14FF68F731A404B881A43174B3A
:1014D000984207D0164B984204D04FF6FF431A406B
:1014E000CB881A4302808B8883850B8803850A4B3F
:1014F00098420BD0094B984208D00E4B984205D029
:101500000D4B984202D00D4B984201D10B7A0386C5
:101510000123838270470000002C01400034014009
:101520000004004000080040000C00400010004093
:1015300000140040004001400044014000480140C8
:1015400010B540F22551094800F0BAF801280CD135
:10155000064800F071F90649087001200549087035
:1015600040F22551014800F041F810BD003801401B
:10157000AC0C0020AD0C002010B540F225511648EF
:1015800000F09EF8F8B1144800F056F9C4B21348C0
:10159000008800F40040B0B910480088B0F5C87F5A
:1015A00012DA00210E48FFF776FF0C48008818B9C0
:1015B00001210C48FFF749FF08490888411C074AE8
:1015C000118009490C5405E00448008840F40040AB
:1015D0000249088010BD000000480040AA0C00200D
:1015E0000014004000080040F00C002010B500225C
:1015F000002340F66A14A14200D100BF0A12012460
:101600009440A3B2DC43048010BD21B1828942F42E
:101610000052828104E082894DF6FF731A40828174
:101620007047000010B504462048844209D10121CA
:101630008803FFF707FD00214FF48040FFF702FD0C
:1016400032E01B48844209D101214804FFF7DAFC4B
:1016500000214FF40030FFF7D5FC25E01548844207
:1016600009D101218804FFF7CDFC00214FF480202F
:10167000FFF7C8FC18E01048844209D10121C804D2
:10168000FFF7C0FC00214FF40020FFF7BBFC0BE08C
:101690000A48844208D101210805FFF7B3FC002164
:1016A0004FF48010FFF7AEFC10BD00000038014081
:1016B0000044004000480040004C00400050004002
:1016C00070B50246002400230025002040F66A166B
:1016D000B14200D100BFC1F3421501F01F03012642
:1016E00006FA03F3012D02D19689334006E0022D5C
:1016F00002D1168A334001E0968A33400C1201264B
:1017000006FA04F41688344013B10CB1012000E04D
:10171000002070BDF0B503460024002600250020FF
:1017200040F66A17B94200D100BF1846C1F342140F
:1017300001F01F06012707FA06F5012C01D10C3034
:1017400004E0022C01D1103000E014301AB1076817
:101750002F43076002E00768AF430760F0BD000059
:101760002DE9F04786B005460E460024A24600BF8C
:10177000A1460027B08900B100BF2F462C8A4CF645
:10178000FF700440F08804432C82AC894EF6F310BD
:101790000440B08831890843718908430443AC810F
:1017A000AC8A4FF6FF400440B0890443AC8201A8E4
:1017B000FFF758FC1F48874202D1DDF810A001E076
:1017C000DDF80CA0A88900F4004040B10AEBCA0083
:1017D00000EB0A1031684900B0FBF1F807E00AEBB2
:1017E000CA0000EB0A1031688900B0FBF1F86420F0
:1017F000B8FBF0F004012009642101FB1089A889DD
:1018000000F4004040B1322000EBC900B0FBF1F021
:1018100000F00700044308E0322000EB09106421C7
:10182000B0FBF1F000F00F0004432C8106B0BDE8DE
:10183000F08700000038014001468888C0F30800A6
:10184000704700BFFEE7000070B50446002520E0A9
:1018500004F0800018B101200F49086002E0002068
:101860000D490860FFF7FEF801200B49091F0860C9
:10187000FFF7F8F800200949C1F8A001072D02D1AF
:101880000120054908606006040EFFF7EBF8681CAC
:10189000C5B2082DDCDB70BDA4812142008021424D
:1018A00010B50446FFF706F97820FFF7CDFFFFF7E4
:1018B0002DF90020FFF7C8FFFFF728F92046FFF7B2
:1018C000C3FFFFF723F9FFF70FF910BD10B504466A
:1018D000FFF7F0F87820FFF7B7FFFFF717F9402080
:1018E000FFF7B2FFFFF712F92046FFF7ADFFFFF752
:1018F0000DF9FFF7F9F810BD0FB4084B10B504A9A6
:1019000002AA039800F0DEF8044602A9002000F0C5
:1019100070FC204610BC5DF814FB0000F3210008A9
:1019200002E008C8121F08C1002AFAD170477047A8
:10193000002001E001C1121F002AFBD17047000006
:101940002DE9FF5F82B00021DDE90430020DDDF8F2
:1019500040B0034318D044F61050A2F2FF32424385
:101960001514119801281FD0A5EB0B00401C5FEA4D
:10197000000A4FF000064E4FDFF83891B04650464F
:1019800015D5CAF1000413E0119801244AA30128D7
:1019900001D16FEA0B010298119AC0E90031C0E948
:1019A000024206B0BDE8F09FCBF10000DFE704463D
:1019B0000021404A491842EB0450CDE9001012E0E2
:1019C000E00707D032463B4640464946FEF7D6FC84
:1019D0008046894632463B4610461946FEF7CEFC05
:1019E00006460F466410002CEAD1DDE90401DDE96A
:1019F0000023BAF1000F06DAFEF7C0FC42464B4660
:101A0000FEF7BCFC05E0FEF72BFD42464B46FEF719
:101A100027FD04460E460022284BFEF7A9FD03D8F9
:101A20004FF0FF30014607E00022254B20463146AB
:101A3000FEF7FDFBFEF783FD102409E0002C0ADB16
:101A40000A220023FEF7C2FB039B30321A55641EA4
:101A500050EA0102F2D1641C039AC4F11103144448
:101A6000119A012A03D0012208430DD10AE008434C
:101A700004D000204FF0110B119072E7A3EB0B057F
:101A80006D1E0DE05B4504DD4FF0000205F1010520
:101A900004E003DA4FF00002A5F10105002AECD0C2
:101AA00002981199C0E90231C0E9004579E70000C8
:101AB000000014400000F03F300000000000F04340
:101AC0000000E03F2DE9FF4F95B09B468946064652
:101AD00000250FE2252877D100242746F84A012166
:101AE000059400E0044316F8013F203B01FA03F09F
:101AF0001042F7D130782A2811D06FF02F033078B8
:101B0000A0F13002092A16D8059A44F0020402EB2B
:101B1000820203EB42021044761C0590EFE759F86D
:101B2000042B0592002A03DA504244F40054059035
:101B300044F00204761C30782E2816D116F8010FD6
:101B400044F004042A280DD06FF02F023078A0F161
:101B50003003092B09D807EB870302EB4303C718AF
:101B6000761CF3E759F8047B761C30786C280FD08C
:101B700006DC4C2817D068280DD06A2814D104E060
:101B8000742810D07A280FD10DE044F400140AE034
:101B900044F4801401E044F440147278824202D18B
:101BA00004F58014761C761C307866280BD013DC84
:101BB000582877D009DC002875D04528F6D046286B
:101BC000F4D047281AD19DE118E0632835D0642865
:101BD00079D0652812D195E1702873D008DC672888
:101BE000F1D069286FD06E280DD06F2806D1B5E0EE
:101BF00073282CD0752875D0782874D05A46179938
:101C000090476D1C75E1C4F30250022809D00328E7
:101C10000DD0D9F8001004280DD00D6009F1040989
:101C200067E1D9F80010EA17C1E90052F6E7D9F8E0
:101C300000100D80F2E70D70F0E719F8041B8DF825
:101C4000001000208DF80100EA46012003E059F859
:101C500004AB4FF0FF3061074FF0000102D40DE0FC
:101C600008F101018846B9420FDA8045F8DB1AF81D
:101C700008100029F4D108E008F1010188468142EA
:101C8000FADB1AF808100029F6D105985B46A0EB9C
:101C9000080721463846179A00F094FA284400EBCA
:101CA000080507E04DE029E10DE01AF8010B5A465E
:101CB00017999047B8F10108F7D25B46214638469C
:101CC000179A13E142E00A220092C4F302524FF045
:101CD000000A022A08D059F804CB032A4FEAEC7113
:101CE0000AD00DE029E02AE009F1070121F00702FE
:101CF000F2E802C1914609E00FFA8CFC4FEAEC7160
:101D0000042A03D14FFA8CFC4FEAEC71002907DA60
:101D10000A460021DCF1000C61EB02012D2202E0F9
:101D2000220504D52B228DF80420012203E0E207CE
:101D300001D02022F7E7904659E00A2102E0102264
:101D40000DE010214FF0000A00910BE010224FF03F
:101D5000000A44F004040827009203E008224FF030
:101D6000000A0092C4F30252022A05D059F804CBAB
:101D70000021032A08D009E009F1070121F0070238
:101D8000F2E802C1914605E01FFA8CFC042A01D159
:101D90000CF0FF0C4FF00008220728D5702806D061
:101DA000009B83F0100353EA0A0305D00EE04022A3
:101DB0008DF80420012208E05CEA010206D03022FE
:101DC0008DF804208DF8050002229046009B83F0D8
:101DD000080353EA0A030AD15CEA010201D162074F
:101DE00005D530228DF804204FF001087F1E5828B9
:101DF00004D034A003900EA802900DE036A0F9E7BD
:101E000053466046009AFEF7E1F984460398825CE7
:101E10000298401E029002705CEA0100F0D1029824
:101E200006A9081A00F1200A600702D524F48034BC
:101E300000E00127574502DDA7EB0A0000E0002083
:101E400000EB0A01009005984144401A0590E00318
:101E500006D45B462146179A059800F0B3F905446D
:101E6000002706E001A85A46C05D179990476D1CEF
:101E70007F1C4745F6DBE0030CD55B462146179AED
:101E8000059800F09FF9054404E030205A46179960
:101E900090476D1C0099481E00900029F5DC08E071
:101EA000029802995A460078491C02911799904766
:101EB0006D1CBAF10001AAF1010AF1DC65E1000034
:101EC0000928010030313233343536373839616210
:101ED00063646566000000003031323334353637D4
:101EE00038394142434445460000000000F058F9AB
:101EF0000544761C307800287FF4ECAD19B02846F4
:101F0000BDE8F08F620700D4062709F1070222F02E
:101F1000070CFCE80223E14603F000485FEA080CE6
:101F200002D00FF2702C0DE05FEA045C02D50FF2D4
:101F3000682C07E05FEAC47C02D00FF2602C01E05D
:101F4000AFF2700C4FF0FF3823F00043CDF850C0D3
:101F500065280CD006DC452809D046281DD0472826
:101F60003DD13DE0662818D067287ED138E00021B9
:101F7000112F01DB112000E0781CCDE9000106A93A
:101F80000EA8FFF7DDFCDDE90F010E9A0391002199
:101F9000009207F1010A04914DE04FF000400097D4
:101FA000CDE9011006A90EA8FFF7CAFCDDE90F0272
:101FB00003920E9B11990022DDF80CA0009304926D
:101FC00011B9791C00EB010AB7EB0A0004D4C0F187
:101FD000FF3007F1010A0490AAEB0700019044E0EA
:101FE000012F00DA01270021112F01DD112000E06F
:101FF0003846CDE9000106A90EA8FFF7A1FCDDE9EE
:102000000F010E9A0391002104910092BA46210714
:102010000CD40399514500DA8A46BAF1010F05DD67
:10202000009AAAF10101515C302908D0B84202DAC5
:1020300010F1040F06DA0121CDE9011015E0AAF133
:102040000101E9E7002805DC049901440491AAEBA9
:10205000000102E0411C514500DD8A460499401A06
:10206000401C01904FF000400290200704D40198DA
:10207000504501DBCDF8048000208DF84F00029818
:102080000DF14F07B0F1004F25D02B200E90029894
:102090004FF0020800280CDA404202902D200E90EA
:1020A00007E00A210298FEF77BF83031029007F82A
:1020B000011DB8F10001A8F10108F2DC0298002826
:1020C000EFD1791E0E980870307800F0200040F0B3
:1020D000450007F8020D12A8C01B00F1070814986C
:1020E000007800B1012000EB0A01019801EBE071DA
:1020F00005984144401A401E0590E00306D45B4613
:102100002146179A059800F05DF805441498007868
:1021100018B15A46179990476D1CE00324D55B46C9
:102120002146179A059800F04DF805441CE00498E4
:10213000002807DBDDE90301884203DD0098405CED
:10214000179901E0179930205A469047049805F1F5
:102150000105401C04900198401E019004D12E20DE
:102160005A46179990476D1CBAF10001AAF1010A6D
:10217000DDDC05E017F8010B5A46179990476D1CF6
:10218000B8F10001A8F10108F4DC5B462146179A7A
:102190000598ABE62D0000002B0000002000000099
:1021A0002DE9F041044600251E461746880404D454
:1021B00005E039462020B0476D1C641EF9D528463D
:1021C000BDE8F0812DE9F041044600251E46904609
:1021D000C80301D5302700E02027880404D505E096
:1021E00041463846B0476D1C641EF9D52846BDE807
:1021F000F0810A68531C0B601070704710B56FF0C7
:102200000400FFF781F80A4800680A49B0FBF1F0C2
:10221000094908700846007800EB4001C1EBC01086
:102220004FF6FF7101EAC0000449088010BD0000AC
:102230000000002000127A00140000201600002088
:102240000146114A12884A434FF0E0235A610022A6
:102250009A611A46126942F001021A6100BF4FF0FA
:10226000E022106900F001021AB100F48032002A65
:10227000F5D04FF0E022126922F001024FF0E02386
:102280001A6100229A61704716000020FEF744FB95
:10229000214908604FF4A060FEF7EAFCFFF7AEFFAB
:1022A0004FF4614000F0DAF8FEF746FFFEF746FA19
:1022B000FEF70AFDFEF7E6FC18A200210846FEF72D
:1022C0006FFD17A202211020FEF76AFD22E0FEF743
:1022D0007FFAC5B2102D1CD1FEF7D4FC00F042F8F5
:1022E0000446012C15D1FEF7CDFC11A200210846B1
:1022F000FEF756FD0FA202211020FEF751FD11A29C
:1023000004211020FEF74CFD12A206211020FEF73A
:1023100047FD00BFDBE700009C0C00204E6F000073
:102320006B3136BCFCD6B8CEC6D1E9D6A4000000CD
:10233000594553004B31BCFCCCEDBCD3D6B8CEC60E
:10234000000000004B33BCFCC9BEB3FDD6B8CEC6FE
:10235000000000004B35BCFCD1E9D6A4D6B8CEC6EF
:102360000000000070B586B0FEF7E6FEFEF78AFCBE
:102370002BA202212020FEF713FD00254BE0FEF7E3
:1023800027FAC0B20646012E00D145E0FEF7C3FD94
:102390000446002C3BD10120FEF79AFD0446002C98
:1023A0002ED105AB632200210120FEF7D1FD0446AA
:1023B000ECB91EA202210020FEF7F2FCBDF8163097
:1023C000BDF814201EA16846FFF796FA6A4604215C
:1023D0000020FEF7E5FCFEF7D5FE40F6AC50FFF717
:1023E0002FFFFEF7C5FE0125284606B070BD18A2D6
:1023F00002212020FEF7D4FC40F2DC50FFF720FF42
:10240000FEF740FC06A202212020FEF7C9FC322084
:10241000FFF716FF00BFB2E700BF00BFE5E700000F
:10242000C7EBB0B4CAD6D6B8000000002020D6B89A
:10243000CEC6D1E9D6A4B3C9B9A6202000000000B9
:102440002049443A256420B5C3B7D63A2564200014
:10245000D1E9D6A4CAA7B0DC0000000010B586B050
:10246000044601210820FEF7DDFD01218804FEF766
:10247000B9FD2A48FFF7D6F84FF48060ADF8100098
:1024800003208DF8120018208DF8130004A92448A9
:10249000FEF74EFA4FF40060ADF8100004208DF8FE
:1024A000130004A91E48FEF743FA00940020ADF87B
:1024B0000400ADF80600ADF80800ADF80C000C20E3
:1024C000ADF80A0069461548FFF74AF9012113489B
:1024D000FFF79BF8012240F225511048FFF71AF947
:1024E00027208DF8140002208DF8150003208DF8A8
:1024F000160001208DF8170005A8FEF781FB41F6B4
:102500001F416320FEF76EFF00200649088000216E
:102510000548FEF79AFF06B010BD000000480040D5
:10252000000C0140AA0C0020001400404C250008BB
:1025300000000020F00C0000E0060008502E00080B
:10254000F00C002030070000301900081184A24A66
:1025500004A80901020304060708091069140513F9
:102560000204060872F852331C100C0603912C402A
:10257000C07803112C043F040321367088FC083016
:10258000261820FF211E14F008F033E0184D211CFE
:10259000031E11338870000C101E212324192721DB
:1025A0001010160E45E018040225071820403D02C1
:1025B0000418E0692C20180707174080F08040407D
:1025C0003F0202010F0102283AF0C81C01011F045A
:1025D000912B80B066B1191D2901912A30A5592C83
:1025E000146018043C6018061D1EE01008081072E4
:1025F0001F0F102020100FF05310F83620203F201E
:10260000203C700808C21E3028242221441E3008B5
:10261000888848082E1820202011CC3BC020322763
:10262000070424243F241AF8202308084B192120EA
:1026300036E0108888184B0F11101E380808C8386B
:102640002021523F1A702E29608F1C222121221C2A
:1026500090111D31222211901961CAC0C26A80C630
:1026600059081C40201050170102040810204A404D
:1026700001114A04012119152A403219251B0402AF
:10268000F21B7048D13AF0501A360F1EC030C828DD
:10269000E87028080718272423140B6F2A387E288F
:1026A0000D203C23020227382008F888889F4B2001
:1026B0003FF01BC0303F1B083830191019781B0839
:1026C000F80F194039201B100F103E8888E80810B9
:1026D00010AC23201810112A035E2940223829400B
:1026E0002C221E024019A41809F808203F210101DC
:1026F00021252A0852298129424149112EC0808072
:10270000807F0E2FF888C0281808501C0126382F0B
:102710002940292F29801B20301012F81AF8141391
:10272000203F190229204B30C0601A2074123F4B01
:10273000E010B06B0F10B029D01AF03019802201D0
:1027400079203F18242438504FC04C888870C0141A
:102750000C30204B7088C11738202121221C3A18D8
:102760009F4A188239A049D0112A1F90121F2408AD
:1027700078881BC838151C07380E60191A1AF820FB
:102780001114033C0714073C0348140818688080A0
:1027900068180820302C03032C30200838C82F5923
:1027A00050298F29102F203826212020681145FE1E
:1027B000020202257F4040401A0CE0611C010638ED
:1027C0000B191D42FE191D527F1A04120211045AE0
:1027D00080011930D91D3916211808192422222206
:1027E0003F20AB390F115F3F112020110E21311A0C
:1027F0000E104B2011104B88F8102A10B359401AB4
:102800001F3F2B22130F16F0888888181A20D02912
:10281000D1497A21176B94949493603960190F4CC5
:10282000203F21F354809898793059121AC0271903
:10283000D1193039311F203F24022D30212A0812AE
:10284000893069D7294B2903190BC96079A019BFB1
:102850002B201FDD390F9C80FFA1E0191229D03BEE
:10286000A0FF0C3950194112208A01C01B332401EA
:102870002A190F3AE0413952290F392349603C1097
:102880003F202C29053F010E300806017029103821
:10289000080F300C030C300F2C49A14E312E0E3195
:1028A000200C29621D818E70183059D1215721309A
:1028B0002C22213055807C0202443F404072FF3977
:1028C000083C02027C8F5440403F4E020102020449
:1028D0002F4117101010FF109010093F4848444432
:1028E0004442701D0444827F662BFF490119412038
:1028F0000F2030AC63100808F8090E08F808081813
:102900000E2267221292804021160816214088204C
:102910000F1010D0FF9014E4AFA4A4A4AFE4041BE4
:10292000040377100B894B2A1A0E1A2A4B88801938
:10293000F61808FF2020080808FF041AF870100F86
:1029400030100F884821110D030D11214181151000
:1029500060028C16FE02F202FE2AF8B1100B04048B
:102960007E018047300F10272C47807FB71342CC61
:102970002A90013EFF10111610E6100C1028603F3F
:102980001010010E3040F0172424A4FE23222B3E09
:102990002201223E1808080601FF010640BD1A7FE9
:1029A000043241100EFC04040414155694543414DB
:1029B00004041440300F1F01010141817F061B05F3
:1029C0000310180EEF242480E49C105454FF547C10
:1029D000101C480E7F21512618274445455F454568
:1029E00044A0380B109252321E3252921210A01193
:1029F000100B211840807F08300409312008101086
:102A000010FF1010F04AF8E01A8061191D211A7F9A
:102A1000FA19074E80FE8282FE0539E113403F3DE0
:102A200020BF403F232A4F05200FFE225A86201048
:102A30002824E324281020202FFF040827110DA0AC
:102A40001A055F112B02FA3B100A4020504C434CF0
:102A5000502040101008184884443F404458414ECC
:102A60006058474025404042CC2D04C40404E8424D
:102A700004180C3F1048407F40407F4141412029CD
:102A80001F1E445454547F04334440147F20101FAD
:102A9000FF15151555957E39C0100C902098888823
:102AA000E98E8888A8982C024281B64008844B2879
:102AB000102847802A240137FC22222223222A02BE
:102AC000013C42827F082B0202111AC20819E11947
:102AD00001190F1A407959042901113010201808E2
:102AE000EAACA8A8AFA8A8ACEA0828182A3E383F44
:102AF000FF020212221E501BF292012AFE051AF258
:102B0000502C0404FFC81F07040444847FD0CA80EB
:102B1000010112380B020C80608040300FC8085F42
:102B2000180F02027E01804020180601061820407E
:102B3000301708488808C8381A90E819EC211E2078
:102B4000100C0304291B4380E8413AFEA81AFF3504
:102B50004310081C7F2020283A3FBF12781B02E256
:102B6000FA5AFE041AE2E112FF1D08060116044B90
:102B7000024C421BF8880110090808FF08090AC81E
:102B8000081480601F100C10201F8040211618268A
:102B900041F81D080808F804497E22F0300F103073
:102BA000101F088848300E014080403F1C40301EF6
:102BB0001A291E299E11181081814121110D03012E
:102BC000030D11214181819F180902FA02FE402064
:102BD000D8173F19222F8047300F10675F1C081647
:102BE00021E019FB894019412C404042013A7F06FF
:102BF00019D8171010D0FF90102008FC24E42422CC
:102C000023E21B0403C21F83601F804126A0228091
:102C100014020CC02EF808484848C2128A2C02023E
:102C20007F9820091E925E20173846F1158060F8C3
:102C3000071A3EFC3422223E2201100DFF2011090A
:102C40000503FF03050911201808040484E41C0788
:102C5000240116A4642404041B0201602F02024212
:102C6000827F0201115D80808292011DFE80808042
:102C7000A0180C22241048807F0408182422A05198
:102C80007501E21CE037804020100C031D030C305E
:102C9000403011151088C4332BBEAA012ABEAF39AB
:102CA000605B0A126229301C9088865A1E838C1041
:102CB00020402119111318072A40C541199F180DEA
:102CC0005C44C42010E82724E4342CE040180E7F34
:102CD00010103F80601F09093F49897F905342CC03
:102CE00092FF2C3F9048432B07185049203009FC95
:102CF00024A4242222A362280E40201F20584750DB
:102D0000484542454850C0500CFE0202F2121212D1
:102D1000F20202FE300C7F202027242424272020CA
:102D20007F151060028C1E445454547F0413444099
:102D30001D04047E016D3E151515559520180F0CC8
:102D40004424140405060404142444140C601B4099
:102D500041012A7F052A405F197C1E24A4643DA6F8
:102D600053142424041E40300F10136F1AFF041450
:102D7000121010105DD6B8CEC6C4A3BFE9B2E2CA25
:102D8000D4B3CCD0F2BCFCCCEDBCD3C9BEB3FDD126
:102D9000E9D6A4C7EBB0B4CAD6D5FDB3A3D4D9D273
:102DA000BBB4CEB6D4B1C8C1BDB3C9B9A6CAA7B069
:102DB000DCC9FAB0E5BCF5B1A3B4E6C2BCC8EBB55A
:102DC000C3B7D6C8B7C8CFB7B5BBD8C7E5BFD5BF9F
:102DD000E28060202122232425262728292A2B2C43
:102DE0002D2E2F303132333435363738393A3B3C9B
:102DF0003D3E3F404142434445464748494A4B4C8B
:102E00004D4E4F505152535455565758595A5B5C7A
:102E10005D5E5F606162636465666768696A6B6C6A
:102E20006D6E6F707172737475767778797A7B7C5A
:102E30007D7E1AFF01D15D08014001085A02085A3F
:102E400004085A08085A10085A20085A40083280C4
:0400000508000145A9
:00000001FF
