:020000040800F2
:100000001017002045010008F91100085D100008D4
:10001000F5110008950A0008BF2100080000000043
:10002000000000000000000000000000F5190008BA
:10003000710C0008000000003F1800088F1C000829
:100040005F0100085F0100085F0100085F01000810
:100050005F0100085F0100085F0100085F01000800
:100060005F0100085F0100085F0100085F010008F0
:100070005F0100085F0100085F0100085F010008E0
:100080005F0100085F0100085F0100085F010008D0
:100090005F0100085F0100085F0100085F010008C0
:1000A0005F0100085F0100085F0100085F010008B0
:1000B0005F010008F11C00080D1D00085F01000829
:1000C0005F0100085F0100085F0100085F01000890
:1000D0005F0100089D1E00085F010008D51E000892
:1000E0005F0100085F0100085F0100085F01000870
:1000F0005F0100085F0100085F0100085F01000860
:100100005F0100085F0100085F0100085F0100084F
:100110005F0100085F0100085F0100085F0100083F
:100120005F0100085F0100085F0100085F0100082F
:10013000DFF80CD000F042FA00480047112D00080B
:10014000101700200648804706480047FEE7FEE7F4
:10015000FEE7FEE7FEE7FEE7FEE7FEE7FEE7FEE777
:10016000911C00083101000830B505462A460B46AF
:1001700012F8010B13F8014B08B1A042F8D01CB1E2
:10018000002802D06D1CF1E7284630BDCAB2401EDF
:1001900010F8011F8A4202D00029F9D100207047CF
:1001A00010B5002200E0521C835C8C5CA34201D19C
:1001B000002BF8D1D8B2E1B2401A10BD30B50B46D1
:1001C000014600202022012409E021FA02F59D4287
:1001D00005D303FA02F5491B04FA02F52844151E5B
:1001E000A2F10102F1DC30BD2DE9F05F05460020EF
:1001F00092469B4688460646814640241BE0284698
:1002000041464746224600F0FAF953465A46C01A7C
:10021000914110D311461846224600F0E1F92D1AFB
:1002200067EB01084F4622460120002100F0D8F973
:1002300017EB00094E41201EA4F10104DFDC484603
:1002400031462A464346BDE8F09F2DE9FE4F8046E1
:1002500081EA0300C00F0C46009021F0004123F01A
:100260000045B8EB0200A94105D240462146904620
:100270001C460B46024623F00040104347D0270D92
:10028000C7F30A00C3F30A510290401A01904028B4
:100290006BDAC3F3130040F4801B0098924620B140
:1002A0000023D2EB030A63EB0B0B01985946C0F114
:1002B0004002504600F094F906460D465046594615
:1002C000019A00F0ACF910EB08006141002487EAC4
:1002D000115284EAE7731A4340D0009A62B3019A3C
:1002E000012A4FEA075215DC001B61EB02014FF0B7
:1002F000004202EA0752CDE90042001C41F580119C
:1003000032462B4600F0ACF903B0BDE8F08F404612
:100310002146F9E7001B61EB0201001C41F5801347
:1003200000185B412018A2F5001747EB030140EAD3
:10033000D570B6196D4111E06D084FEA360645EAF1
:10034000C0754FEA0752001B61EB0201001C41F52A
:10035000801149084FEA30000019514132462B46BE
:1003600003B0BDE8F04F00F06CB9009801224000E6
:100370000023D0EB020263EBE073009821464FEAC2
:10038000E074B8EB000061EB0401E9E783F000439F
:100390005BE781F0004158E72DE9FE4F81EA030455
:1003A00004F0004421F0004100944FF0000B23F0D2
:1003B000004350EA01045ED052EA03045BD0C3F369
:1003C0000A54C1F30A552C44A4F2F3340194A0FB5F
:1003D0000254C1F3130141F48011C3F3130343F436
:1003E000801301FB024400FB034E840A970A44EA8F
:1003F000815447EA8357A4FB076802958D0A05FBE1
:1004000007854FEA932C04FB0C542705029D4FEA05
:10041000065847EA1637B5EB08056EEB070C870E52
:10042000920E47EA811742EA8312A7FB0201B6EB5C
:100430000B0164EB00042B0D43EA0C335E1844EB14
:100440001C50DA465146E7FB0201C5F313044FEA9C
:100450000B3343EA14534FEA0432019C43EA060388
:10046000A4F10C040294009CCDE900B400F0F8F86B
:1004700003B0BDE8F08F00200146F9E72DE9F04D0B
:1004800081EA030404F0004B21F0004514464FF0CC
:10049000000A23F0004150EA050220D054EA01028C
:1004A0001DD0C5F30A570246C5F31303C1F3130069
:1004B000C1F30A5640F4801543F48013A7EB0608F5
:1004C000101BD64608F2FD3873EB050002D308F185
:1004D000010801E092185B41B8F1000F03DA002037
:1004E0000146BDE8F08D00204FF480110646844699
:1004F0000EE0171B73EB050705D3121B63EB050317
:1005000006434CEA010C49084FEA300092185B415F
:1005100050EA0107EDD152EA030012D082EA04004A
:1005200083EA0501084305D0101BAB4106D2012226
:10053000002306E000224FF0004302E06FF00102CA
:1005400053101AEB06004CEB085110EB0A0041EB7C
:100550000B01BDE8F04D00F074B8C1F30A52C1F3CD
:10056000130140F2FF3341F480119A4202DA002075
:100570000146704740F233439A42A2F2334202DC12
:10058000524200F03CB800F02BB8000030B5041E19
:1005900071F1000404DB4FF00044404264EB0101C0
:1005A000141E73F1000405DB1C464FF00043524259
:1005B00063EB0403994208BF904230BD064C074DDF
:1005C00006E0E06840F0010394E807009847103423
:1005D000AC42F6D3FFF7B0FD98320008B8320008FD
:1005E000202A04DB203A00FA02F1002070479140F3
:1005F000C2F1200320FA03F3194390407047202AE8
:1006000004DB203A21FA02F00021704721FA02F3BC
:10061000D040C2F120029140084319467047202A79
:1006200006DBCB17203A41FA02F043EAE07306E01A
:1006300041FA02F3D040C2F120029140084319462A
:10064000704710B5141E73F1000408DA401C41F124
:10065000000192185B411A4301D120F0010010BD46
:100660002DE9F04D92469B4611B1B1FA81F202E0BC
:10067000B0FA80F220329046FFF7B2FF04460F46F0
:1006800040EA0A0041EA0B0153465A46084313D098
:10069000114653EA010019D0C8F140025046FFF755
:1006A000AEFF05460E46504659464246FFF798FFB4
:1006B000084305D0012004E020463946BDE8F08D0E
:1006C0000020054346EAE0762C4337430A98630549
:1006D000E40AA0EB08000022FD0A44EA47540A306D
:1006E00002D500200146E9E7010510196941DDE95D
:1006F000084500196941BDE8F04DA2E770B58D18B5
:1007000010F8014B14F0030201D110F8012B231152
:1007100006D110F8013B03E010F8016B01F8016B02
:10072000521EF9D1ABB110F8012B04F00C048A1A57
:100730000C2C03D0A2EB84129B1C08E010F8014B98
:10074000A2EB0422F8E712F8014B01F8014B5B1E03
:10075000F9D5A942D4D3002070BD00002DE9F8439B
:100760000026B04600250CE1B8F1050F29D2DFE8DC
:1007700008F003295483AC00701CC6B283A2022186
:10078000002000F00BFE00F08BFF0446B4B90120FE
:1007900000F063FF04466CB981A20221002000F042
:1007A000FDFD84A20421002000F0F8FD00264FF09A
:1007B000010806E0204601F055FA02E0204601F06B
:1007C00051FAD6E0701CC6B27FA20221002000F0D0
:1007D000E5FD78A20421002000F0E0FD00F060FFBC
:1007E0000446B4B9022000F038FF04466CB96CA28C
:1007F0000221002000F0D2FD6EA20421002000F0B2
:10080000CDFD00264FF0020806E0204601F02AFA4E
:1008100002E0204601F026FAABE070A2022100209F
:1008200000F0BCFD63A20421002000F0B7FD00F041
:100830009CFF044664B96EA20221002000F0AEFDC8
:100840005CA20421002000F0A9FD4FF003080EE097
:100850006CA20221002000F0A1FD56A2042100207C
:1008600000F09CFD204601F0FDF90026B0464FF453
:10087000FA7002F0A3F97CE067A20221002000F0E8
:100880008DFD4CA20421002000F088FD4FF4FA7089
:1008900002F094F900F086FF044664B963A20221D5
:1008A000002000F07BFD43A20421002000F076FD33
:1008B0004FF0040804E04FF00008204601F0D2F9A0
:1008C0004FF47A7002F07AF953E05DA200210846F5
:1008D00000F064FD5FA20221002000F05FFD62A233
:1008E0000421002000F05AFD40E000F01FF9C7B2DB
:1008F000022F04D1002D28DD681EC5B225E0042F8B
:1009000004D1632D21DA681CC5B21EE0032F1CD16F
:100910002946022000F063FF044674B900F0B0FCE1
:1009200056A20221002000F039FD40F2DC5002F016
:1009300045F900F0A5FCBDE8F88300F0A1FC2046D5
:1009400001F090F94FF0000811E051A20621282093
:1009500000F024FD012002232A46062100904120B8
:1009600000F0EAFD642002F029F900BFBDE700BFF6
:1009700000BF00BF4FF4C87002F020F90A2E00D16A
:1009800000E0F1E600BF00BFD5E7000020202020F6
:10099000C7EBB0B4CAD6D6B8202020200000000093
:1009A00020202020D6B8CEC6D5FDB3A320202020FD
:1009B00000000000202020202020202020202020B7
:1009C0002020202000000000202020C7EBD4D9B038
:1009D000B4D2BBB4CE202020000000002020B6D42A
:1009E000B1C8C1BDB4CED6B8CEC62020000000002C
:1009F00020202020B6D4B1C8B3C9B9A62020202019
:100A00000000000020202020B6D4B1C8CAA7B0DC66
:100A100020202020000000002020C9FAB3C9D6B849
:100A2000CEC6C4A3B0E5202000000000C9FAB3C9B7
:100A3000D6B8CEC6C4A3B0E5B3C9B9A600000000BD
:100A400020B0B434BCD320B0B432BCF52020202078
:100A50000000000020B0B433B1A3B4E62020202071
:100A600020202020000000002020303C3D20494470
:100A7000203C3D3939202020000000002020C2BC4D
:100A8000C8EBD6B8CEC6B3C9B9A620200000000076
:100A900049443D0000BFFEE738B50121042000F0C5
:100AA000EFFE002413E01F4800EBC4008088ADF87F
:100AB000000010208DF8030003208DF80200194972
:100AC00051F83400694600F031FA601CC4B2042CBD
:100AD000E9DB002413E0144800EBC4008088ADF883
:100AE000000048208DF8030003208DF802000E4915
:100AF00051F83400694600F019FA601CC4B2042CA5
:100B0000E9DB00240AE0074A02EBC4029188054AA7
:100B100052F8340000F0A0FA601CC4B2042CF2DBDE
:100B200038BD00009C0F0020BC0F002070B50024D1
:100B300034E0052002F042F84A4A02EBC4029188F0
:100B4000484A52F8340000F085FA002519E00520E3
:100B500002F034F8444A02EBC5029188424A52F846
:100B6000350000F06EFA28B90120404901EB8401FC
:100B7000485504E000203D4901EB84014855681CBC
:100B8000C5B2042DE3DB374A02EBC4029188354A33
:100B900052F8340000F060FA601CC4B2042CC8DBC8
:100BA00032480078012801D1042070BD2F484078D8
:100BB000012801D10820F8E72C488078012801D1CC
:100BC0000C20F2E72948C078012801D11020ECE779
:100BD00026480079012801D10320E6E7234840791F
:100BE000012801D10720E0E720488079012801D1C0
:100BF0000B20DAE71D48C079012801D10F20D4E786
:100C00001A48007A012801D10220CEE71748407A1D
:100C1000012801D10620C8E71448807A012801D1B3
:100C20000A20C2E71148C07A012801D10E20BCE792
:100C30000E48007B012800D1B7E70C48407B012813
:100C400001D10520B1E70948807B012801D10920A5
:100C5000ABE70648C07B012801D10D20A5E70020A5
:100C6000A3E700009C0F0020BC0F0020FC12002016
:100C700070470000F8B500243DA20021084600F0AE
:100C80008DFB3FA20221002000F088FB40A204213E
:100C9000002000F083FB52E0FFF748FFC5B2022DB1
:100CA00004D1002C3ADD601E84B237E0042D04D15B
:100CB000632C33DA601C84B230E0012D00D13FE0B8
:100CC000052D13D100F0ACFC06463EB900F0D8FA71
:100CD00033A20221002000F061FB02E0304600F068
:100CE000C1FF40F2DC5001F069FF29E0032D15D16E
:100CF0000121204600F05EFC06463EB900F0C0FA35
:100D00002CA20221002000F049FB02E0304600F056
:100D1000A9FF40F2DC5001F051FF11E02AA20621A8
:100D2000282000F03BFB01200223224606210090F0
:100D3000412000F001FC642001F040FF00BFABE760
:100D400000F09EFA21A20021102000F027FB22A231
:100D50000221102000F022FB22A20421102000F02A
:100D60001DFB23A20621102000F018FBF8BD000097
:100D700034BCD332BCF52033C8B7C8CF2020000024
:100D8000204B35C7E5BFD5D6B8CEC6BFE2200000A0
:100D900031B7B5BBD820303C3D49443C3D393900E2
:100DA00020C7E5BFD5D6B8CEC6BFE2B3C9B9A62025
:100DB000000000002020C9BEB3FDD6B8CEC6B3C91E
:100DC000B9A620200000000049443D004B3134B852
:100DD000C4C3DCC2EB0000004B31CCEDD6B8CEC6AC
:100DE000000000004B33C9BED6B8CEC600000000DC
:100DF0004B3135CDCBB3F6B2A2B9D8CBF800000059
:100E000030B5044604254FF4302000F06FF8054655
:100E1000042D17D10C48006940F002000A4908610E
:100E200008464461006940F0400008614FF43020FA
:100E300000F05CF805460448006941F6FD71084081
:100E400001490861284630BD0020024004200B49BA
:100E5000C96801F0010109B101200EE00749C96824
:100E600001F0040109B1022007E00449C96801F05A
:100E7000100109B1032000E0042070470020024067
:100E80000348006940F08000014908617047000094
:100E90000020024070B504460D460426F00200F022
:100EA00025F80646042E11D10948006940F00100DA
:100EB000074908612580F00200F018F8064604484A
:100EC000006941F6FE71084001490861304670BD75
:100ED00000200240024803494860034848607047C8
:100EE0002301674500200240AB89EFCD00B50246E3
:100EF0000423FFF7ABFF034603E0FFF7A7FF03461A
:100F0000521E012B01D1002AF7D102B90523184640
:100F100000BD0000044900E0521C11F8013B002B09
:100F2000FAD15008704700009C0E00202DE9F041D6
:100F3000024600250026002000230024002791F807
:100F400003C00CF00F0591F803C00CF0100CBCF1BD
:100F5000000F03D091F802C04CEA050591F800C0DB
:100F6000BCF1000F31D0146800202BE04FF0010CD1
:100F70000CFA00F3B1F800C00CEA03069E4220D13F
:100F800083004FF00F0C0CFA03F7BC4305FA03FC87
:100F90004CEA040491F803C0BCF1280F06D14FF0CD
:100FA000010C0CFA00FCC2F814C00AE091F803C06E
:100FB000BCF1480F05D14FF0010C0CFA00FCC2F84F
:100FC00010C0401C0828D1D31460B1F800C0BCF197
:100FD000FF0F34DD546800202EE000F1080C4FF0C4
:100FE000010808FA0CF3B1F800C00CEA03069E42AF
:100FF00021D183004FF00F0C0CFA03F7BC4305FA24
:1010000003FC4CEA040491F803C0BCF1280F05D19D
:1010100000F1080C08FA0CF8C2F8148091F803C02B
:10102000BCF1480F07D100F1080C4FF0010808FA95
:101030000CF8C2F81080401C0828CED35460BDE8DC
:10104000F0810246002093680B400BB1012000E0C4
:1010500000207047416170470161704700BFFEE7A3
:10106000002001E0411CC8B20A28FBDB70470000E9
:1010700008B50121082000F003FC4FF48070ADF8A2
:10108000000003208DF8020014208DF8030069464B
:101090000648FFF74BFF4FF40070ADF800006946BB
:1010A0000248FFF743FF00F01DF808BD000C0140A7
:1010B00010B50120094908600949C1F8A001FFF7EE
:1010C000CFFF002005490860FFF7CAFF0020044950
:1010D000C1F8A001FFF7C4FF10BD0000A4812142A8
:1010E0000080214210B50020054908600120054913
:1010F000C1F8A001FFF7B4FF01200149086010BD4D
:10110000A48121420080214210B501200D490860D0
:10111000FFF7A6FF01200C49C1F8A001FFF7A0FFCF
:101120004FF400710948FFF78CFF08B1012400E07B
:10113000002400200349091F0860FFF791FF2046A3
:1011400010BD0000A481214200802142000C01401A
:101150007CB50546EF208DF8000001208DF80100D8
:101160001A480068000E8DF8020018480068000C4C
:101170008DF8030015480088000A8DF80400134814
:1011800000788DF8050007208DF8060000208DF806
:1011900007000F49088012E0012001F00FFD0C4804
:1011A000008800F4004050B10020094908806946D9
:1011B0000848FEF7D9FF04460CB120467CBD681EE6
:1011C00080B2051EE8D100BFF8E700008C0F0020B8
:1011D000960F0020DC0F002000BF0549098801F0B0
:1011E00040010029F9D00249091D0880704700001C
:1011F0000048004000BFFEE77047000070B50021C6
:1012000000230F22C47804B3154C246804F4E0646E
:10121000C4F5E064210AC1F10403CA40447804FA29
:1012200003F184781440214309010E4C0678A1553E
:10123000047804F01F050124AC4005786D11AD0061
:1012400005F1E025C5F8004109E0047804F01F0528
:101250000124AC40044D0678761145F8264070BD57
:101260000CED00E000E400E080E100E00249014311
:10127000024A1160704700000000FA050CED00E022
:1012800010B5002000F001F810BD70B5064600242E
:1012900015E004F1B001C8B200F0C0FF002000F07A
:1012A000BDFF102000F0BAFF002504E0304600F03A
:1012B000CBFF681CC5B2822DF8DB601CC4B2082CC1
:1012C000E7DB70BD10B5FFF7D3FEAE2000F0A6FF40
:1012D000002000F0A3FF102000F0A0FF402000F04D
:1012E0009DFFB02000F09AFF812000F097FFFF20C3
:1012F00000F094FFA12000F091FFA62000F08EFFE7
:10130000A82000F08BFF3F2000F088FFC82000F0ED
:1013100085FFD32000F082FF002000F07FFFD52062
:1013200000F07CFF802000F079FFD82000F076FFED
:10133000052000F073FFD92000F070FFF12000F0CD
:101340006DFFDA2000F06AFF122000F067FFDB205B
:1013500000F064FF302000F061FF8D2000F05EFFA0
:10136000142000F05BFFAF2000F058FF10BD70B5F7
:1013700004460D4605F1B001C8B200F04FFFA11CB4
:10138000C1F3031141F0100000F048FFA11C01F06F
:101390000F0141F0010000F041FF70BD2DE9F04761
:1013A000074688461646002580E03078A02843DDB1
:1013B00000253AE0702F04DD002708F1020000F05C
:1013C000FF0830783C4911F8151088422CD170780C
:1013D000012101EB4501384A515C884224D1414644
:1013E0003846FFF7C4FF002406E004EB4511334AFA
:1013F000505C00F029FF641C102CF6D308F10100AA
:10140000C1B23846FFF7B3FF002407E004EB4511F3
:1014100010312A4A505C00F017FF641C102CF5D3E1
:1014200007F11000C7B204E06D1C25480068854232
:10143000C0D300BFB61C39E07A2F04DD002708F1C5
:10144000020000F0FF0831781E48FEF79FFE81463B
:10145000B9F1000F29D041463846FFF788FF002434
:1014600009E099F80010203904EB0111164A505C8C
:1014700000F0EAFE641C082CF3D308F10100C1B2AD
:101480003846FFF774FF00240AE099F8001020396D
:1014900004EB011108310C4A505C00F0D5FE641CCD
:1014A000082CF2D307F10800C7B2761C3078002868
:1014B0007FF47BAFBDE8F0879C0E00201C06002067
:1014C000880F0020250F00202C0000202DE9F0417E
:1014D00007460E46904600250024A8F12000C5B21C
:1014E000812F02DD0027B01CC6B231463846FFF717
:1014F0003EFF002407E004EB05110E4A505C00F0AB
:10150000A3FE601CC4B2082CF5DB701CC1B23846C7
:10151000FFF72DFF002408E004EB05110831054A10
:10152000505C00F091FE601CC4B2082CF4DBBDE8F6
:10153000F08100002C0000202DE9F0470546894687
:1015400090461E46DDF820A000242FE0301B401EF0
:10155000C1B20A2001F0CCFCB8FBF0F00A21B0FBCC
:10156000F1F201FB1207A7B9BAF1000F08D0082168
:1015700001FB0451C8B230224946FFF7A7FF07E03C
:10158000082101FB0451C8B220224946FFF79EFF03
:101590000AE007F13001CAB2082101FB0451C8B2C8
:1015A0004946FFF793FF00BF601CC4B2B442CDDBD5
:1015B000BDE8F0872DE9F04104460D4600F045FAFC
:1015C00000F01AFA012000F03AFA072000F045FA7C
:1015D0000C2000F04CFA2012FFF7FEFDE0B2FFF7FE
:1015E000FBFD2812FFF7F8FDE8B2FFF7F5FD142028
:1015F00000EB2420E1B2084400EB2520E9B200EB27
:101600000108404600F012FA4FF4FA60FFF7A0FD1F
:1016100007460FB17E7A00E0FF263046BDE8F08134
:1016200070B500F012FA00F0E7F9012000F007FAB7
:10163000032000F012FA0D2000F019FA11263046AE
:1016400000F0F4F94FF4FA60FFF782FD05460DB1A2
:101650006C7A00E0FF24204670BD2DE9F04105467C
:1016600000F0F3F900F0C8F9012000F0E8F90420D7
:1016700000F0F3F9022000F0FAF92846FFF7ACFD7C
:10168000EF1D384600F0D2F94FF4FA60FFF760FD25
:1016900006460EB1747A00E0FF242046BDE8F081D2
:1016A00070B500F0D2F900F0A7F9012000F0C7F9F9
:1016B000032000F0D2F9012000F0D9F905263046C8
:1016C00000F0B4F94FF4FA60FFF742FD05460DB1A2
:1016D0006C7A00E0FF24204670BD2DE9F04781467A
:1016E0000D4616461F4600F0B0F900F085F90120BE
:1016F00000F0A5F9082000F0B0F91B2000F0B7F9C0
:101700004846FFF769FD2812FFF766FDE8B2FFF7CC
:1017100063FD3012FFF760FDF0B2FFF75DFD09F1E8
:10172000240000EB2520E9B2084400EB2620F1B2AA
:1017300000EB010A504600F079F94FF4FA60FFF728
:1017400007FD044664B194F80980E07AA17A00EBC1
:1017500001203880607B217B00EB0120788001E054
:101760004FF0FF084046BDE8F08770B500F06DF916
:1017700000F042F9012000F062F9032000F06DF959
:10178000032000F074F90726304600F04FF94FF4BB
:10179000FA60FFF7DDFC05460DB16C7A00E0FF242E
:1017A000204670BD70B500F050F900F025F9012019
:1017B00000F045F9032000F050F9052000F057F93A
:1017C0000926304600F032F94FF4FA60FFF7C0FC0A
:1017D00005460DB16C7A00E0FF24204670BD2DE96E
:1017E000F04106460C4600F030F900F005F9012002
:1017F00000F025F9062000F030F9062000F037F956
:101800003046FFF7E9FC2012FFF7E6FCE0B2FFF7F5
:10181000E3FC06F10D0000EB2420E1B200EB01082F
:10182000404600F003F94FF4FA60FFF791FC0746D9
:101830000FB17D7A00E0FF252846BDE8F0817047B2
:1018400029B1064AD2690243044BDA6104E0034A33
:10185000D2698243014BDA617047000000100240F8
:1018600029B1064A12690243044B1A6104E0034A93
:1018700012698243014B1A61704700000010024058
:1018800029B1064A92690243044B9A6104E0034A73
:1018900092698243014B9A61704700000010024038
:1018A00029B1064AD2680243044BDA6004E0034AD5
:1018B000D2688243014BDA6070470000001002409A
:1018C00030B500210022002400232D4D6D6805F065
:1018D0000C0121B1042905D0082923D105E0294DA7
:1018E000056022E0274D05601FE0254D6D6805F479
:1018F0007012234D6D6805F48034022505EB924289
:101900001CB9214D554305600BE01D4D6D6805F474
:1019100000351DB11C4D5543056002E0194D55437E
:10192000056002E0174D056000BF00BF144D6D68F3
:1019300005F0F0010909154D6B5C0568DD40456057
:101940000F4D6D6805F4E061090A104D6B5C456848
:10195000DD4085600A4D6D6805F46051C90A0B4D84
:101960006B5C4568DD40C560054D6D6805F4404120
:10197000890B074D6B5CC568B5FBF3F5056130BDA0
:101980000010024000127A0000093D0018000020FB
:101990002800002008B501210820FFF771FF4FF44F
:1019A0008050ADF8000010208DF8030003208DF862
:1019B000020069460448FFF7B9FA4FF48051024823
:1019C000FFF74AFB08BD0000000C014010B54FF4C2
:1019D00080510248FFF740FB10BD0000000C0140A1
:1019E00010B54FF480510248FFF734FB10BD0000E2
:1019F000000C01407047000010B50B490968080E43
:101A0000FFF7EAFB08480068C0F30740FFF7E4FB74
:101A100005480088C0F30720FFF7DEFB024908787D
:101A2000FFF7DAFB10BD00008C0F002010B5044654
:101A30002012FFF7D1FBE0B2FFF7CEFB10BD10B5CF
:101A400004462046FFF7C8FB10BD10B5EF20FFF796
:101A5000C3FB0120FFF7C0FB10BD10B50446C4F363
:101A60000720FFF7B9FBE0B2FFF7B6FB10BD10B5DA
:101A700004462046FFF7B0FB10BD00000148007887
:101A800070470000980F002005480078012804D115
:101A9000002003490870012070470020FCE7000087
:101AA000990F002000B587B001218803FFF7E8FEF9
:101AB00001210420FFF7E4FE18208DF81B004FF4ED
:101AC0000070ADF8180003208DF81A0006A921480F
:101AD000FFF72CFA48208DF81B004FF48060ADF81A
:101AE000180003208DF81A0006A91A48FFF71EFAFD
:101AF0004FF4E13002900020ADF814000C20ADF856
:101B000012000020ADF81000ADF80E00ADF80C008A
:101B100002A9114800F0DEFA012240F225510E48D8
:101B200000F0B3FA4FF4A060FFF7A0FB25208DF87A
:101B3000040001208DF807008DF805008DF80600DF
:101B400001A8FFF75BFB0121034800F00CFA07B086
:101B500000BD0000000801400038014010B50446F7
:101B60002146054800F027FB00BF8021024800F015
:101B700055FA0028F9D010BD0038014010B500F02A
:101B800001F810BD0CB500200190009033480068AA
:101B900040F480303149086000BF3048006800F4EC
:101BA000003000900198401C0190009818B90198ED
:101BB000B0F5A06FF1D12948006800F4003010B1F1
:101BC0000120009001E0002000900098012843D1FE
:101BD0002348006840F0100021490860084600686A
:101BE00020F0030008600846006840F0020008602A
:101BF0001A484068194948600846406848600846E5
:101C0000406840F4806048600846406820F47C10DA
:101C100048600846406840F4E8104860084600689C
:101C200040F08070086000BF0C48006800F0007051
:101C30000028F9D00948406820F0030007494860AF
:101C40000846406840F00200486000BF0348406812
:101C500000F00C000828F9D10CBD00000010024073
:101C6000002002407047042808D14FF0E0210969A4
:101C700041F004014FF0E022116107E04FF0E02154
:101C8000096921F004014FF0E022116170477047AB
:101C900010B51348006840F001001149086008467B
:101CA0004068104908400E494860084600680E49DF
:101CB00008400B4908600846006820F4802008604E
:101CC0000846406820F4FE0048604FF41F0088601A
:101CD000FFF754FF4FF000600449086010BD00009A
:101CE000001002400000FFF8FFFFF6FE08ED00E0E4
:101CF00010B50121044800F062F818B10121024832
:101D000000F04EF810BD00000004004010B50121A5
:101D1000094800F054F868B10848008840F40040D1
:101D2000064908800121044800F03AF800210248E1
:101D300000F039F810BD000000080040960F0020A8
:101D40007FB505460C4601210420FFF779FDADF86B
:101D50000450ADF800400020ADF80600ADF80200D8
:101D600069460E4800F048F8012211460B4800F081
:101D700037F80121094800F016F81E208DF80C00F4
:101D800000208DF80D0002208DF80E0001208DF846
:101D90000F0003A8FFF732FA7FBD000000080040E3
:101DA000CA430282704721B1028842F001020280D8
:101DB00004E002884FF6FE731A400280704730B587
:101DC0000246002000230024158A05EA01039589B4
:101DD00005EA010413B10CB1012000E0002030BD80
:101DE0001AB183890B43838102E083898B4383810A
:101DF0007047818470470000002202881D4B984282
:101E00000ED01D4B98420BD0B0F1804F08D01B4B29
:101E1000984205D01A4B984202D01A4B984204D1EE
:101E20004FF68F731A404B881A43174B984207D0CE
:101E3000164B984204D04FF6FF431A40CB881A4302
:101E400002808B8883850B8803850A4B98420BD0D0
:101E5000094B984208D00E4B984205D00D4B984242
:101E600002D00D4B984201D10B7A03860123838265
:101E700070470000002C0140003401400004004085
:101E800000080040000C004000100040001400401A
:101E900000400140004401400048014010B540F2BC
:101EA0002551094800F0C7F801280CD1064800F078
:101EB0007DF90649087001200549087040F2255156
:101EC000014800F041F810BD00380140980F002093
:101ED000990F002010B540F22551164800F0ABF8DC
:101EE000F8B1144800F062F9C4B21348008800F455
:101EF0000040B0B910480088B0F5C87F12DA002160
:101F00000E48FFF776FF0C48008818B901210C48ED
:101F1000FFF749FF08490888411C074A1180094911
:101F20000C5405E00448008840F400400249088051
:101F300010BD000000480040960F00200014004033
:101F400000080040DC0F002010B50022002340F6FE
:101F50006A14A14200D100BF0A1201249440A3B226
:101F6000DC43048010BD21B1828942F40052828199
:101F700004E082894DF6FF731A40828170470000A9
:101F800010B504462048844209D101218803FFF797
:101F900087FC00214FF48040FFF782FC32E01B48B1
:101FA000844209D101214804FFF75AFC00214FF473
:101FB0000030FFF755FC25E01548844209D1012186
:101FC0008804FFF74DFC00214FF48020FFF748FC08
:101FD00018E01048844209D10121C804FFF740FCF1
:101FE00000214FF40020FFF73BFC0BE00A4884423D
:101FF00008D101210805FFF733FC00214FF48010C0
:10200000FFF72EFC10BD00000038014000440040E6
:1020100000480040004C00400050004002460020B4
:10202000B1F5007F00D100BF13880B400BB1012038
:1020300000E00020704770B5024600240023002510
:10204000002040F66A16B14200D100BFC1F342152C
:1020500001F01F03012606FA03F3012D02D1968930
:10206000334006E0022D02D1168A334001E0968A01
:1020700033400C12012606FA04F41688344013B1DA
:102080000CB1012000E0002070BDF0B50346002433
:1020900000260025002040F66A17B94200D100BF93
:1020A0001846C1F3421401F01F06012707FA06F58E
:1020B000012C01D10C3004E0022C01D1103000E0E1
:1020C00014301AB107682F43076002E00768AF4376
:1020D0000760F0BD2DE9F04786B005460E460024A6
:1020E000A24600BFA1460027B08900B100BF2F461D
:1020F0002C8A4CF6FF700440F08804432C82AC8993
:102100004EF6F3100440B0883189084371890843C2
:102110000443AC81AC8A4FF6FF400440B0890443CD
:10212000AC8201A8FFF7CCFB1F48874202D1DDF843
:1021300010A001E0DDF80CA0A88900F4004040B137
:102140000AEBCA0000EB0A1031684900B0FBF1F855
:1021500007E00AEBCA0000EB0A1031688900B0FB07
:10216000F1F86420B8FBF0F004012009642101FBC0
:102170001089A88900F4004040B1322000EBC9006A
:10218000B0FBF1F000F00700044308E0322000EB60
:1021900009106421B0FBF1F000F00F0004432C8122
:1021A00006B0BDE8F087000000380140014688888D
:1021B000C0F308007047C1F308028280704700BF77
:1021C000FEE7000070B50446002520E004F0800022
:1021D00018B101200F49086002E000200D49086095
:1021E000FEF73EFF01200B49091F0860FEF738FF8C
:1021F00000200949C1F8A001072D02D1012005499D
:1022000008606006040EFEF72BFF681CC5B2082D9F
:10221000DCDB70BDA48121420080214210B5044660
:10222000FEF746FF7820FFF7CDFFFEF76DFF002099
:10223000FFF7C8FFFEF768FF2046FFF7C3FFFEF772
:1022400063FFFEF74FFF10BD10B50446FEF730FFE9
:102250007820FFF7B7FFFEF757FF4020FFF7B2FFE8
:10226000FEF752FF2046FFF7ADFFFEF74DFFFEF7EA
:1022700039FF10BD0FB4084B10B504A902AA03988A
:1022800000F0DEF8044602A9002000F070FC2046B1
:1022900010BC5DF814FB00006F2B000802E008C8BA
:1022A000121F08C1002AFAD170477047002001E0D0
:1022B00001C1121F002AFBD1704700002DE9FF5F0A
:1022C00082B00021DDE90430020DDDF840B00343A7
:1022D00018D044F61050A2F2FF3242431514119860
:1022E00001281FD0A5EB0B00401C5FEA000A4FF04D
:1022F00000064E4FDFF83891B046504615D5CAF16A
:10230000000413E0119801244AA3012801D16FEAC7
:102310000B010298119AC0E90031C0E9024206B0EF
:10232000BDE8F09FCBF10000DFE704460021404A02
:10233000491842EB0450CDE9001012E0E00707D045
:1023400032463B4640464946FEF726F880468946D7
:1023500032463B4610461946FEF71EF806460F4623
:102360006410002CEAD1DDE90401DDE90023BAF1B3
:10237000000F06DAFEF710F842464B46FEF70CF85F
:1023800005E0FEF77BF842464B46FEF777F8044639
:102390000E460022284BFEF7F9F803D84FF0FF3025
:1023A000014607E00022254B20463146FDF74DFF50
:1023B000FEF7D3F8102409E0002C0ADB0A220023E0
:1023C000FDF712FF039B30321A55641E50EA0102DA
:1023D000F2D1641C039AC4F111031444119A012A26
:1023E00003D0012208430DD10AE0084304D00020A5
:1023F0004FF0110B119072E7A3EB0B056D1E0DE072
:102400005B4504DD4FF0000205F1010504E003DA4D
:102410004FF00002A5F10105002AECD002981199B5
:10242000C0E90231C0E9004579E70000000014402E
:102430000000F03F300000000000F0430000E03FEB
:102440002DE9FF4F95B09B468946064600250FE2D1
:10245000252877D100242746F84A0121059400E079
:10246000044316F8013F203B01FA03F01042F7D174
:1024700030782A2811D06FF02F033078A0F1300285
:10248000092A16D8059A44F0020402EB820203EBF3
:1024900042021044761C0590EFE759F8042B059290
:1024A000002A03DA504244F40054059044F0020438
:1024B000761C30782E2816D116F8010F44F004044B
:1024C0002A280DD06FF02F023078A0F13003092BAD
:1024D00009D807EB870302EB4303C718761CF3E721
:1024E00059F8047B761C30786C280FD006DC4C2819
:1024F00017D068280DD06A2814D104E0742810D0B1
:102500007A280FD10DE044F400140AE044F480145A
:1025100001E044F440147278824202D104F5801440
:10252000761C761C307866280BD013DC582877D0C0
:1025300009DC002875D04528F6D04628F4D0472875
:102540001AD19DE118E0632835D0642879D0652838
:1025500012D195E1702873D008DC6728F1D0692882
:102560006FD06E280DD06F2806D1B5E073282CD01F
:10257000752875D0782874D05A46179990476D1CE5
:1025800075E1C4F30250022809D003280DD0D9F810
:10259000001004280DD00D6009F1040967E1D9F895
:1025A0000010EA17C1E90052F6E7D9F800100D80D3
:1025B000F2E70D70F0E719F8041B8DF80010002009
:1025C0008DF80100EA46012003E059F804AB4FF012
:1025D000FF3061074FF0000102D40DE008F1010166
:1025E0008846B9420FDA8045F8DB1AF8081000294E
:1025F000F4D108E008F1010188468142FADB1AF8BB
:1026000008100029F6D105985B46A0EB0807214683
:102610003846179A00F094FA284400EB080507E0C2
:102620004DE029E10DE01AF8010B5A461799904741
:10263000B8F10108F7D25B4621463846179A13E1F4
:1026400042E00A220092C4F302524FF0000A022A2A
:1026500008D059F804CB032A4FEAEC710AD00DE0F8
:1026600029E02AE009F1070121F00702F2E802C19E
:10267000914609E00FFA8CFC4FEAEC71042A03D171
:102680004FFA8CFC4FEAEC71002907DA0A46002168
:10269000DCF1000C61EB02012D2202E0220504D5E1
:1026A0002B228DF80420012203E0E20701D0202232
:1026B000F7E7904659E00A2102E010220DE01021D0
:1026C0004FF0000A00910BE010224FF0000A44F096
:1026D00004040827009203E008224FF0000A009249
:1026E000C4F30252022A05D059F804CB0021032A70
:1026F00008D009E009F1070121F00702F2E802C160
:10270000914605E01FFA8CFC042A01D10CF0FF0C65
:102710004FF00008220728D5702806D0009B83F0D0
:10272000100353EA0A0305D00EE040228DF804207E
:10273000012208E05CEA010206D030228DF8042074
:102740008DF8050002229046009B83F0080353EAAF
:102750000A030AD15CEA010201D1620705D53022E1
:102760008DF804204FF001087F1E582804D034A0B3
:1027700003900EA802900DE036A0F9E7534660469C
:10278000009AFDF731FD84460398825C0298401E52
:10279000029002705CEA0100F0D1029806A9081AC2
:1027A00000F1200A600702D524F4803400E00127FC
:1027B000574502DDA7EB0A0000E0002000EB0A010C
:1027C000009005984144401A0590E00306D45B460A
:1027D0002146179A059800F0B3F90544002706E052
:1027E00001A85A46C05D179990476D1C7F1C47454C
:1027F000F6DBE0030CD55B462146179A059800F0FE
:102800009FF9054404E030205A46179990476D1C03
:102810000099481E00900029F5DC08E00298029912
:102820005A460078491C0291179990476D1CBAF1DD
:102830000001AAF1010AF1DC65E1000009280100AC
:102840003031323334353637383961626364656626
:1028500000000000303132333435363738394142E8
:10286000434445460000000000F058F90544761C3A
:10287000307800287FF4ECAD19B02846BDE8F08F21
:10288000620700D4062709F1070222F0070CFCE8D2
:102890000223E14603F000485FEA080C02D00FF281
:1028A000702C0DE05FEA045C02D50FF2682C07E0A3
:1028B0005FEAC47C02D00FF2602C01E0AFF2700C32
:1028C0004FF0FF3823F00043CDF850C065280CD0FE
:1028D00006DC452809D046281DD047283DD13DE0DB
:1028E000662818D067287ED138E00021112F01DB3F
:1028F000112000E0781CCDE9000106A90EA8FFF721
:10290000DDFCDDE90F010E9A03910021009207F131
:10291000010A04914DE04FF000400097CDE901100D
:1029200006A90EA8FFF7CAFCDDE90F0203920E9B71
:1029300011990022DDF80CA00093049211B9791CC2
:1029400000EB010AB7EB0A0004D4C0F1FF3007F135
:10295000010A0490AAEB0700019044E0012F00DA7D
:1029600001270021112F01DD112000E03846CDE9BB
:10297000000106A90EA8FFF7A1FCDDE90F010E9AE0
:102980000391002104910092BA4621070CD40399C7
:10299000514500DA8A46BAF1010F05DD009AAAF125
:1029A0000101515C302908D0B84202DA10F1040F5D
:1029B00006DA0121CDE9011015E0AAF10101E9E7EC
:1029C000002805DC049901440491AAEB000102E00F
:1029D000411C514500DD8A460499401A401C019073
:1029E0004FF000400290200704D40198504501DBCD
:1029F000CDF8048000208DF84F0002980DF14F07AC
:102A0000B0F1004F25D02B200E9002984FF0020815
:102A100000280CDA404202902D200E9007E00A2197
:102A20000298FDF7CBFB3031029007F8011DB8F199
:102A30000001A8F10108F2DC02980028EFD1791E0C
:102A40000E980870307800F0200040F0450007F83C
:102A5000020D12A8C01B00F107081498007800B1FD
:102A6000012000EB0A01019801EBE0710598414457
:102A7000401A401E0590E00306D45B462146179A93
:102A8000059800F05DF805441498007818B15A468E
:102A9000179990476D1CE00324D55B462146179A91
:102AA000059800F04DF805441CE00498002807DB69
:102AB000DDE90301884203DD0098405C179901E0DD
:102AC000179930205A469047049805F10105401C9B
:102AD00004900198401E019004D12E205A46179967
:102AE00090476D1CBAF10001AAF1010ADDDC05E096
:102AF00017F8010B5A46179990476D1CB8F1000161
:102B0000A8F10108F4DC5B462146179A0598ABE66C
:102B10002D0000002B000000200000002DE9F041F6
:102B2000044600251E461746880404D405E03946AD
:102B30002020B0476D1C641EF9D52846BDE8F08101
:102B40002DE9F041044600251E469046C80301D5F4
:102B5000302700E02027880404D505E041463846A8
:102B6000B0476D1C641EF9D52846BDE8F0810A689F
:102B7000531C0B601070704710B56FF00400FFF726
:102B800072F80A4800680A49B0FBF1F00949087078
:102B90000846007800EB4001C1EBC0104FF6FF7112
:102BA00001EAC0000449088010BD000000000020B8
:102BB00000127A0014000020160000200146114A7D
:102BC00012884A434FF0E0235A6100229A611A4664
:102BD000126942F001021A6100BF4FF0E022106951
:102BE00000F001021AB100F48032002AF5D04FF053
:102BF000E022126922F001024FF0E0231A61002264
:102C00009A6170471600002010B50D490A78302AE5
:102C100001DB392A05DD0BA10B68036089888180FF
:102C20000AE0002106E0094C04EB410393F8003C64
:102C30004354491C0629F6DB0021817110BD0000B8
:102C400000FC0008313233343536000000F0000853
:102C500070B50546FEF73EF90948FEF7D1F80024A5
:102C600009E0285D40EA0026054901EB44003146B1
:102C7000FEF710F9641C062CF3DBFEF701F970BDBA
:102C800000FC00082DE9F04105460026002406E07E
:102C9000E106080E16A20221FEF780FB641C062C3A
:102CA000F6DB1FE000BFFDF741FF0746002FFAD01B
:102CB000384600F021F80446582C0AD03046711CE2
:102CC000CEB22C54711EC906080E0AA20221FEF7CC
:102CD00065FB00BFFDF72AFF0028FBD11420FFF79A
:102CE0006DFF00BF062EDDDB0020A871BDE8F0817E
:102CF000200000002A0000000146002904DB092909
:102D000002DC01F1300000E05820C0B27047000042
:102D1000FEF700F95A4908604FF4A060FEF7A6FAE2
:102D2000FFF72AFF4FF4614000F04EFAFEF732FE43
:102D3000FDF7B2FEFEF7C6FAFEF7A2FAFEF7B2FE04
:102D40009DE000264FA200210846FEF727FB4FA278
:102D500002211020FEF722FB4FA204211020FEF7D3
:102D60001DFB002511E0FDF7E1FEC4B2102C06D1D9
:102D7000FEF786FA00F080F938B1012505E00E2C47
:102D800003D100F007F900B10125002DEBD0FEF7CB
:102D900077FA44A200211020FEF700FB44A2022192
:102DA0001020FEF7FBFA45A204211020FEF7F6FAE8
:102DB00045A206211020FEF7F1FA5DE0FDF7B6FE10
:102DC000C4B2012C04D1FEF75BFAFDF7C7FC3BE06F
:102DD000032C04D1FEF754FAFDF74CFF34E00E2C1F
:102DE00002D100F091F82FE00F2C2DD10025FEF735
:102DF00047FAFEF745FA38A200210846FEF7CEFA58
:102E000041F28830FFF7DAFE06F13001C8B2FEF772
:102E1000A5FE15E0FEF738FE012811D1FEF72EFEC3
:102E200030280DD1FEF7D2FDFEF72AFA2DA200219F
:102E30000846FEF7B3FA41F28830FFF7BFFE00E024
:102E4000E8E700BFFEF71CFA7820FFF7B7FE9DB158
:102E500014A200211020FEF7A1FA15A202211020D1
:102E6000FEF79CFA15A204211020FEF797FA16A28D
:102E700006211020FEF792FA002D9FD100BF60E7D7
:102E8000880F0020CEB4B5C7C2BC00004B3136D687
:102E9000B8CEC6D1E9D6A4004B3134C3DCC2EBD1E5
:102EA000E9D6A4004B3134B8C4C3DCC2EB00000047
:102EB0004B31CCEDD6B8CEC6000000004B33C9BEB6
:102EC000D6B8CEC6000000004B3135CDCBB3F6B23C
:102ED000A2B9D8CBF8000000D5FDD4DAB9D8CBF828
:102EE0002E2E2E00B9D8CBF8B3C9B9A62E000000FB
:102EF00010B50246012000E050430B1EA1F1010471
:102F0000E1B2F9D110BD00001FB5FEF7B9F916A264
:102F100000210846FEF742FA02A8FFF7B3FEFEF7CB
:102F2000AFF913A200210846FEF738FA6846FFF70A
:102F3000A9FE694602A8FDF733F940B902A8FFF7D8
:102F400087FE0EA204210020FEF728FA04E00EA25C
:102F500004210020FEF722FA4FF44870FFF72EFEFE
:102F6000FEF78EF91FBD0000D0C2C3DCC2EB3A00F1
:102F7000D4D9B4CECAE4C8EB3A000000D0DEB8C45D
:102F8000B3C9B9A600000000C1BDB4CEB2BBD2BB6C
:102F9000D6C200001FB5002402A8FFF735FEFEF7D9
:102FA0006FF926A200210846FEF7F8F96846FFF7F8
:102FB00069FE694602A8FDF7F3F8002833D122A282
:102FC0000421FEF7EBF94FF44870FFF7F7FDFEF729
:102FD00057F920A200210846FEF7E0F941F28830B7
:102FE000FFF7ECFD04F13101C8B2FEF7B7FD15E0C3
:102FF000FEF74AFD012811D1FEF740FD31280DD121
:10300000FEF7EEFCFEF73CF915A200210846FEF79C
:10301000C5F941F28830FFF7D1FD00E0E8E700BFD5
:10302000012004B010BD11A204210020FEF7B6F962
:103030004FF44870FFF7C2FD0020F2E7CAE4C8EB86
:1030400036CEBBC3DCC2EB00C3DCC2EBD5FDC8B7D8
:1030500000000000D5FDD4DABFAACBF82E2E2E003A
:10306000BFAACBF8B3C9B9A62E000000C3DCC2EBDF
:10307000B4EDCEF300000000F0B587B00025FEF7F8
:1030800089FCFEF7FDF83BA202212020FEF786F91D
:1030900000266BE0FDF74AFDC0B20746012F00D1C4
:1030A00065E0FEF7FDFA0446002C5BD10120FEF737
:1030B000D4FA0446002C4ED106AB63220021012035
:1030C000FEF70BFB0446002C3CD12DA20221FEF79B
:1030D00065F9BDF81A30BDF818202EA101A8FFF738
:1030E000C9F801AA04210020FEF758F9FEF7C8F834
:1030F0002CA200210846FEF751F941F28830FFF773
:103100005DFD05F13100FEF729FD15E0FEF7BCFC81
:10311000012811D1FEF7B2FC31280DD1FEF760FC79
:10312000FEF7AEF822A200210846FEF737F941F279
:103130008830FFF743FD00E0E8E700BF0126304696
:1031400007B0F0BD1DA202212020FEF727F940F2B2
:10315000DC50FFF733FDFEF793F806A20221202092
:10316000FEF71CF93220FFF729FD00BF92E700BFF0
:1031700000BFE5E7C7EBB0B4CAD6D6B80000000080
:103180002020D6B8CEC6D1E9D6A4B3C9B9A620208E
:10319000000000002049443A256420B5C3B7D63A60
:1031A00025642000D5FDD4DABFAACBF82E2E2E0040
:1031B000BFAACBF8B3C9B9A62E000000D1E9D6A4A6
:1031C000CAA7B0DC0000000010B586B0044601219B
:1031D0000820FEF755FB01218804FEF731FB2A4841
:1031E000FEF7CEFE4FF48060ADF8100003208DF89E
:1031F000120018208DF8130004A92448FDF796FE4C
:103200004FF40060ADF8100004208DF8130004A9FD
:103210001E48FDF78BFE00940020ADF80400ADF8C9
:103220000600ADF80800ADF80C000C20ADF80A005F
:1032300069461548FEF74EFF01211348FEF793FE3D
:10324000012240F225511048FEF71FFF27208DF87C
:10325000140002208DF8150003208DF816000120BF
:103260008DF8170005A8FDF7C9FF41F61F4163203F
:10327000FEF766FD00200649088000210548FEF79C
:1032800092FD06B010BD000000480040000C014057
:10329000960F002000140040B83200080000002003
:1032A000DC0F0000FC060008083E0008DC0F0020D0
:1032B00034070000AC220008500600A24A040001B6
:1032C000A009010203040607080910611400061092
:1032D00002040608000152F8083233061004100CEC
:1032E0000603711D200440C07803200500043F043C
:1032F00003100800007088FC08302E100E1820FF04
:10330000211E0000F008F000E0183E4005211C03DB
:103310001E111388700FE00C1E2123241927211081
:1033200010160E702005E01804026A300B071820F2
:10333000400000020418E069200420180770300ED5
:103340004080F0804040000202010F01022832F06C
:10335000C8100401011F047145C00480B0705642BA
:10336000010171B98330302C3008601804006018F6
:10337000063E1006E0100808107210070F102020FB
:10338000100FF0461000100620203F20202D3004A2
:10339000700808C210063028242221E910063008DF
:1033A0008888480820061820202011CC33C02032FD
:1033B0001407070424243F243E11201608574319FC
:1033C00021202405E010888810430F11103406389E
:1033D0000808C83877323F8D4370886080071C2208
:1033E0002121221C9010060031222211901161C26D
:1033F000C0C26280C651081004402010701407013A
:1034000002040810203031014300040113000015AC
:103410002240321125130402F2137048D1354313B0
:1034200030360F1406C030C828E8002008071827D7
:103430002423140B6F22387E200D203C2302022708
:10344000382008F88888FF250E21D017C0301027B3
:103450000838AD15303406080008F808403120154A
:103460004021303004E8081030A004232018102335
:1034700000035E21403638ED200520221E02401157
:10348000A41009F808203F210101212522085295A6
:103490008051112006C08080807F0E2007F888C0F0
:1034A00028180870400501263820405200A013203B
:1034B00030201004F800F85417203F60214F4004DA
:1034C000F830C0601220E4363F5F21B025EF41B0F4
:1034D00021D033F0008083010020300718242438E5
:1034E000504FC0250131C034040C3020B021C13709
:1034F0003820B032189F42188231A041D023001FDB
:103500009034081F000878880000F1100407380E76
:1035100060119B12F8B5401D00033C0700073C03F7
:1035200000081868808068180820302C03032C30AD
:10353000200838C82F5150218F213F1804203826E9
:103540005129494C0400FE020803267FE858040074
:103550000C301F1805000106382A111D3EFEA90374
:1035600027404030100400000412FE04E50352809E
:1035700001F2001D311619C01806242222223F0034
:1035800032000F5B003FC0312119D01A0ED043200A
:10359000114B4388F8102210B35140121F3F2322D1
:1035A000131E1AF0428618D041772408006B9494B9
:1035B0009493600B310F158041F3BC048098988080
:1035C000035200125901153B31311406203F2402E9
:1035D0002D8F2930ADB00361D7214B2103112BC1B1
:1035E0006071A045A031202D400493FFA1E04280EE
:1035F000E033A0FF4C315019A18004200001C0131A
:103600003324012219E046E02125F252004D428088
:1036100060151031EC25681C05010E30087204217C
:1036200070256318040F300C4F320F2C41A1600736
:10363000312E0E312000303C0580818E70A2045561
:10364000A73C050021302C8004215F4A7C012B001F
:103650003F015C040000FFB9053108340402027C1C
:10366000B04F404060041E0236054D60054DCF0549
:1036700018141010FF1090003F4848444444427012
:10368000000444827F9723FF490111411C0520302B
:10369000AC6312054C04F8090E8803140E2267224D
:1036A00012928040211608162140081C0E1010D0DE
:1036B000FF9014E4AFA4A4A4AFE45F041304037761
:1036C000240A894B2A1A0E1A2A4B88281C0520FF27
:1036D0002020530337FF089A18151030100F884820
:1036E00021110D030D11214181001060028CC21ABD
:1036F000F2A522F8B1240D04047E018047300F109A
:10370000270047E02007404042CC0090013806FFE8
:10371000101116107A14071028603F101041280C61
:1037200040F0002424A4FE2322003E5E17223EFF28
:1037300010070601FF010640BD127FC31E411F0393
:103740001EFCFB041C0814155694543414A00616D1
:1037500040641D2C061C0441817F320613050310B2
:10376000100EEF242480E49C105454FF547C101C51
:10377000400E7F21512618274445455F454544A00A
:10378000300B109252321E3252921210A0440C0092
:10379000211840807F0830040931401E1040054246
:1037A000F8E0128061111D1D8E0311FA1107400609
:1037B00080FE8282FE0531E11586300520BF403F44
:1037C00023224F281C0CFE225A8620102824E32492
:1037D000287206157A2006040827110DA012055F2D
:1037E00020040002FA401C084020504C434C50106A
:1037F00007441008184884443F404458414E6058DC
:103800004740204C070004C40404FCE00525201FA9
:1038100048400C0410057F41414120211F100644FF
:103820005454547F042A441F580C7F201000FF1565
:10383000151555957F0020109020988888E98E886E
:1038400088A89800024281B63C07844B281028477C
:10385000E90329D81724FC5E15673D4F04300602A2
:103860000242827F082D80072C040202C2630422D8
:1038700082014E02670451043D78062C0F2018087F
:10388000EAACA8A8AFA8A8ACEA08280908223E42DA
:103890003807FF020212221E9F13F2920122FE0538
:1038A00012F2502C040404FFAB061407070404446E
:1038B000847FB0C280010D109E082405020C806038
:1038C0007533C8085F1B0202401D2C083C05060129
:1038D0000618E9061C040848886107370090A819F3
:1038E00040100620100C0304293E433F062D3F05DF
:1038F00031A85EFF370735B91128323FC11C057862
:103900000002E2F70452FE0412E2E12AFF631216FB
:103910000443024C423D110629E01C05090AC8086F
:103920004C082C061F0010201F22031C04182641DF
:10393000DB053D100642087E3EF000031F1F0831E4
:10394000083C050E0140809203480440301E44317B
:103950009E2C05008181411D034E011F032E81DE37
:10396000051808FA02FE4020D8176611983D1C037E
:103970007E678103297081403E1030032101327F30
:103980000615803DA0035C0A1000FC24E4242223D9
:10399000E2A003100783601F804126A015201C04AD
:1039A000020CC0A4082004484848C2168ACF227FCF
:1039B000982C091E925E20173846F11D092FF80732
:1039C0005F033EE25F032DF204140DFF2011090591
:1039D00003FF0305091120B0280584E41C07231CFC
:1039E00004A4642460031D53088BFF00221D0D06F0
:1039F000538292012EFE3C054C0E4040222410487A
:103A0000807F0408182422AF041DAA068C05E21C3E
:103A1000E000BE082E0C19081D5D072D600420096A
:103A2000001088C43300BEAA0122BEAF3160530A21
:103A3000126221301C0490888620054F838CD9089F
:103A400025FD5707005D1D1A031C0F84E45C44C468
:103A50002010E82724E4342CE0FF0414057F101024
:103A60003FA65C0709093F49897F40039D35051D35
:103A70004605239048432D7F0A5E8060031C04FCAA
:103A800024A4FF063FA362880A4C0D1F205847500C
:103A9000484542454850407F075C06F2121212F238
:103AA00068072DF90316270F3E27FF034DE0049DFD
:103AB00080033D4004AD80031C080C44241404051D
:103AC00006A40424052444140CC11DB8032E41BDD2
:103AD000034E41CE0526FC5B3F3DA687033DC00457
:103AE0001310136F12FF731A121041A01DAF051EA1
:103AF000C9F2045280A02C0A405F4844404142452C
:103B000058F0032A7CC922FF0563FC000F5DA00367
:103B100031111C0C8A52225A46404758245288C000
:103B2000051C070141404F59693F051C0669594F63
:103B30004041200A1DCD0B1DC1053DC60527222C85
:103B4000F01F02012C0319C05D6003100804848477
:103B50004424548FBE1F8484FF0B14064139000097
:103B60003C552C054C40407020051D0D08210132AC
:103B7000FF063D38073D780A4EFF9F0A2D510B5333
:103B8000E28201453F5D7A035D7F03215F5C08842B
:103B900084FC4030CC0B090A1DBF048F10080003C1
:103BA0001409108C4404E40495A6461C058444942E
:103BB0000CEF061C077A414143427E04037B43F825
:103BC0000020040002F2612DDF0839002D97031D4B
:103BD00019041D8D052D000630066448487F4804F1
:103BE0003E4000068E11FF064D40053B809EC13EC3
:103BF0009E490710047F2094F233140FF21C10002A
:103C000040445465C664544400FC4444C442F00437
:103C10001F124A1D051F0A9207043D80073C1D889C
:103C2000681FC80810C85452D1129408D010000957
:103C30001909FF0500FF1292FF005FE0063C0D200E
:103C4000F807F0A0904C5724A4544C7A083C0BFF82
:103C5000001F80925249292412160C2D2E053C0774
:103C60008242F20E42826F055DB60B219B1B010260
:103C70002F7C0842625AC65262C22004740840C4B3
:103C8000447F2424A0201DAD0C1404C8380C3D2E04
:103C9000E8A80B3E084003996227008018457F1D65
:103CA000C2053D40032D86087D46083C0F20102CA0
:103CB000E7242400E22C20BF2028E6680D15211FF0
:103CC000804FDC0B2C0410204FA0033C041011F695
:103CD0007D042FF4135F0511AC5C04320F02E30581
:103CE0003DA00D2DB7072DBB045F1413E0046E41FA
:103CF000FE072DE0041CAAD6B8CEC6C4A3BFE9B205
:103D0000E2CAD4B3CCD0F2BCFCCCEDBCD3C9BEB3B8
:103D1000FDD1E9D6A4C7EBB0B4CAD6D5FDB3A3D4C0
:103D2000D9D2BBB4CEB6D4B1C8C1BDB3C9B9A6CA85
:103D3000A7B0DCC9FAB0E5BCF5B1A3B4E6C2BCC813
:103D4000EBB5C3B7D6C8B7C8CFB7B5BBD8C7E5BF03
:103D5000D5BFE2CDCBB3F6B5C7D7B4CCACCEB4D2D9
:103D6000D1B8C4C3DCC2EBB4EDCEF3D0C2CAE4D048
:103D7000DEB2BBD6C2D4DABFAACBF8B2A2B9D800A1
:103D8000202122232425262728292A2B2C2D2E2FBB
:103D9000303132333435363738393A3B3C3D3E3FAB
:103DA00050036C3D434445464748494A4B4C4D4EB1
:103DB0004F505152535455565758595A5B5C5D5E9B
:103DC0005F606162636465666768696A6B6C6D6E8B
:103DD0006F707172737475767778797A7B7C7D7E7B
:103DE0004D0F12FF01BD5F0B500508014001085245
:103DF00002085204085208085210084DFF0C4E01E8
:083E0000170411082D0E070044
:0400000508000145A9
:00000001FF
