:020000040800F2
:100000004018002045010008D5140008E51200083A
:10001000D1140008FD0C00089F2A00080000000011
:10002000000000000000000000000000C1210008E6
:10003000F30E0008000000005D1E0008D324000835
:100040005F0100085F0100085F0100085F01000810
:100050005F0100085F0100085F0100085F01000800
:100060005F0100085F0100085F0100085F010008F0
:100070005F0100085F0100085F0100085F010008E0
:100080005F0100085F0100085F0100085F010008D0
:100090005F0100085F0100085F0100085F010008C0
:1000A0005F0100085F0100085F0100085F010008B0
:1000B000352500085F0100085F0100085F010008A6
:1000C0005F0100085F0100085F0100085F01000890
:1000D0005F010008852700085F010008BD270008B0
:1000E0005F0100085F0100085F0100085F01000870
:1000F0005F0100085F0100085F0100085F01000860
:100100005F0100085F0100085F0100085F0100084F
:100110005F0100085F0100085F0100085F0100083F
:100120005F0100085F0100085F0100085F0100082F
:10013000DFF80CD000F076FB00480047BD3A00081D
:10014000401800200648804706480047FEE7FEE7C3
:10015000FEE7FEE7FEE7FEE7FEE7FEE7FEE7FEE777
:10016000D52400083101000830B505462A460B4663
:1001700012F8010B13F8014B08B1A042F8D01CB1E2
:10018000002802D06D1CF1E7284630BDCAB2401EDF
:1001900010F8011F8A4202D00029F9D100207047CF
:1001A00010B5002200E0521C835C8C5CA34201D19C
:1001B000002BF8D1D8B2E1B2401A10BD30B50446D8
:1001C0000020034600E05B1C934203D2E05CCD5C60
:1001D000401BF8D030BDF0B480EA0102D40F4200D9
:1001E000B2EB410F02D20246084611464A0042D005
:1001F000C30DDDB2C1F3C752AD1A202D35DAC1F3FC
:10020000160141F4000204B15242C5F1200602FA7F
:1002100006F12A411044B3EBD05F23D0C4B1012DC5
:10022000A0EBC35009DCF0BC4FF0004202EAC3521D
:10023000DBB200F5000000F00FB9400000F1807063
:1002400000EBC350A0F1807040EAD170490009E092
:10025000490841EAC071A0EBC35000F50000400816
:1002600000EBC350F0BC00F0EEB86142012202EB9B
:100270004101001BF6E7F0BC704781F00041AAE79E
:1002800080F00040A7E780EA010210B502F00043C9
:10029000400022D04A001FD0010E01EB1261C0F3D2
:1002A0005600C2F3560240F4000042F40002A0FBE4
:1002B000022000047F39140400D0401C50EA124090
:1002C00001D44000491EC2B20C0604EBD010401C01
:1002D0004008802A02D003E0002010BD20F0010079
:1002E000002900DA0020184310BD30B480EA010272
:1002F00002F0004530F0004221F0004013D090B1F0
:10030000C30DD40DC2F31601C0F31600E41A41F474
:10031000000140F400027D34914201D3641C00E0EE
:100320004900002C02DA30BC002070474FF4000076
:100330000023914201D3891A034340084FEA410147
:10034000F7D151B1914202D14FF0004105E002D204
:100350004FF0010101E06FF0010103EBC4502844AC
:1003600030BC00F070B820F00040C10DC0F31600A2
:1003700040F400007F2901DA00207047962903DC51
:10038000C1F19601C8407047963988407047000017
:10039000002801DBC0F10040002901DBC1F1004170
:1003A00081427047002801DBC0F10040002901DBD9
:1003B000C1F100418842704730B50B46014600202C
:1003C0002022012409E021FA02F59D4205D303FA17
:1003D00002F5491B04FA02F52844151EA2F1010298
:1003E000F1DC30BD2DE9F05F0546002092469B46CA
:1003F00088460646814640241BE02846414647463B
:10040000224600F030FA53465A46C01A914110D3A2
:1004100011461846224600F017FA2D1A67EB01081C
:100420004F4622460120002100F00EFA17EB00098A
:100430004E41201EA4F10104DFDC484631462A4625
:100440004346BDE8F09F0029A8BF7047401C490003
:1004500008BF20F00100704710B4B0FA80FC00FA29
:100460000CF050EA010404BF10BC704749B1CCF154
:10047000200421FA04F411FA0CF118BF01212143E0
:100480000843A3EB0C01CB1D4FEA00614FEA10209B
:1004900042BF002010BC704700EBC350104400293D
:1004A000A4BF10BC7047401C490008BF20F00100E9
:1004B00010BC70472DE9FE4F804681EA0300C00F53
:1004C0000C46009021F0004123F00045B8EB0200FB
:1004D000A94105D24046214690461C460B4602469D
:1004E00023F00040104347D0270DC7F30A00C3F3A1
:1004F0000A510290401A019040286BDAC3F31300AE
:1005000040F4801B0098924620B10023D2EB030AEE
:1005100063EB0B0B01985946C0F14002504600F0C6
:1005200093F906460D4650465946019A00F0ABF93C
:1005300010EB08006141002487EA115284EAE77356
:100540001A4340D0009A62B3019A012A4FEA075237
:1005500015DC001B61EB02014FF0004202EA07527A
:10056000CDE90042001C41F5801132462B4600F0D7
:10057000ABF903B0BDE8F08F40462146F9E7001B18
:1005800061EB0201001C41F5801300185B4120184B
:10059000A2F5001747EB030140EAD570B6196D418B
:1005A00011E06D084FEA360645EAC0754FEA07527A
:1005B000001B61EB0201001C41F5801149084FEA64
:1005C00030000019514132462B4603B0BDE8F04FD0
:1005D00000F06BB90098012240000023D0EB02022A
:1005E00063EBE073009821464FEAE074B8EB00003B
:1005F00061EB0401E9E783F000435BE781F0004130
:1006000058E72DE9FE4F81EA030404F0004421F08D
:10061000004100944FF0000B23F0004350EA010426
:100620005ED052EA03045BD0C3F30A54C1F30A5507
:100630002C44A4F2F3340194A0FB0254C1F313013F
:1006400041F48011C3F3130343F4801301FB02440C
:1006500000FB034E840A970A44EA815447EA835711
:10066000A4FB076802958D0A05FB07854FEA932CCA
:1006700004FB0C542705029D4FEA065847EA16373B
:10068000B5EB08056EEB070C870E920E47EA811753
:1006900042EA8312A7FB0201B6EB0B0164EB0004F4
:1006A0002B0D43EA0C335E1844EB1C50DA465146DE
:1006B000E7FB0201C5F313044FEA0B3343EA14537B
:1006C0004FEA0432019C43EA0603A4F10C040294AD
:1006D000009CCDE900B400F0F7F803B0BDE8F08F5E
:1006E00000200146F9E72DE9F04D81EA030404F00A
:1006F000004B21F0004514464FF0000A23F0004162
:1007000050EA050220D054EA01021DD0C5F30A5771
:100710000246C5F31303C1F31300C1F30A5640F4B4
:10072000801543F48013A7EB0608101BD64608F289
:10073000FD3873EB050002D308F1010801E09218BF
:100740005B41B8F1000F03DA00200146BDE8F08DEF
:1007500000204FF48011064684460EE0171B73EB11
:10076000050705D3121B63EB050306434CEA010C96
:1007700049084FEA300092185B4150EA0107EDD179
:1007800052EA030012D082EA040083EA050108431A
:1007900005D0101BAB4106D20122002306E0002247
:1007A0004FF0004302E06FF0010253101AEB060015
:1007B0004CEB085110EB0A0041EB0B01BDE8F04D8A
:1007C00000F073B8C1F30A52C1F3130140F2FF33D2
:1007D00041F480119A4202DA00200146704740F24B
:1007E00033439A42A2F2334202DC524200F03BB859
:1007F00000F02AB830B5041E71F1000404DB4FF09C
:100800000044404264EB0101141E73F1000405DB57
:100810001C464FF00043524263EB0403994208BF69
:10082000904230BD064C074D06E0E06840F0010301
:1008300094E8070098471034AC42F6D3FFF77CFCED
:100840006443000884430008202A04DB203A00FAAD
:1008500002F1002070479140C2F1200320FA03F317
:10086000194390407047202A04DB203A21FA02F015
:100870000021704721FA02F3D040C2F120029140DA
:10088000084319467047202A06DBCB17203A41FA65
:1008900002F043EAE07306E041FA02F3D040C2F10D
:1008A0002002914008431946704710B5141E73F199
:1008B000000408DA401C41F1000192185B411A4320
:1008C00001D120F0010010BD2DE9F04D92469B466C
:1008D00011B1B1FA81F202E0B0FA80F22032904612
:1008E000FFF7B2FF04460F4640EA0A0041EA0B0157
:1008F00053465A46084313D0114653EA010019D013
:10090000C8F140025046FFF7AEFF05460E4650467E
:1009100059464246FFF798FF084305D0012004E0FE
:1009200020463946BDE8F08D0020054346EAE076D2
:100930002C4337430A986305E40AA0EB0800002221
:10094000FD0A44EA47540A3002D500200146E9E78F
:10095000010510196941DDE9084500196941BDE843
:10096000F04DA2E770B58D1810F8014B14F003029A
:1009700001D110F8012B231106D110F8013B03E03F
:1009800010F8016B01F8016B521EF9D1ABB110F8F0
:10099000012B04F00C048A1A0C2C03D0A2EB841255
:1009A0009B1C08E010F8014BA2EB0422F8E712F8B8
:1009B000014B01F8014B5B1EF9D5A942D4D30020AD
:1009C00070BD00002DE9F8430026B04600250CE17B
:1009D000B8F1050F29D2DFE808F003295483AC00F1
:1009E000701CC6B283A20221002000F045FE00F078
:1009F000C5FF0446B4B9012000F09DFF04466CB960
:100A000081A20221002000F037FE84A204210020F0
:100A100000F032FE00264FF0010806E0204601F00B
:100A200043FD02E0204601F03FFDD6E0701CC6B257
:100A30007FA20221002000F01FFE78A204210020E6
:100A400000F01AFE00F09AFF0446B4B9022000F04C
:100A500072FF04466CB96CA20221002000F00CFE6B
:100A60006EA20421002000F007FE00264FF00208CD
:100A700006E0204601F018FD02E0204601F014FDDA
:100A8000ABE070A20221002000F0F6FD63A2042179
:100A9000002000F0F1FD00F0D6FF044664B96EA21C
:100AA0000221002000F0E8FD5CA20421002000F0FB
:100AB000E3FD4FF003080EE06CA20221002000F0DD
:100AC000DBFD56A20421002000F0D6FD204601F0F7
:100AD000EBFC0026B0464FF4FA7002F0CDFD7CE04E
:100AE00067A20221002000F0C7FD4CA204210020D3
:100AF00000F0C2FD4FF4FA7002F0BEFD00F0C0FF3E
:100B0000044664B963A20221002000F0B5FD43A2AF
:100B10000421002000F0B0FD4FF0040804E04FF085
:100B20000008204601F0C0FC4FF47A7002F0A4FDEA
:100B300053E05DA20021084600F09EFD5FA2022165
:100B4000002000F099FD62A20421002000F094FD35
:100B500040E000F01FF9C7B2022F04D1002D28DDBC
:100B6000681EC5B225E0042F04D1632D21DA681C6C
:100B7000C5B21EE0032F1CD12946022000F09DFFC4
:100B8000044674B900F0EAFC56A20221002000F0ED
:100B900073FD40F2DC5002F06FFD00F0DFFCBDE8B9
:100BA000F88300F0DBFC204601F07EFC4FF00008EB
:100BB00011E051A20621282000F05EFD0120022351
:100BC0002A4606210090412000F024FE642002F015
:100BD00053FD00BFBDE700BF00BF00BF4FF4C870AA
:100BE00002F04AFD0A2E00D100E0F1E600BF00BF8E
:100BF000D5E7000020202020C7EBB0B4CAD6D6B875
:100C0000202020200000000020202020D6B8CEC6C2
:100C1000D5FDB3A3202020200000000020202020AC
:100C20002020202020202020202020200000000044
:100C3000202020C7EBD4D9B0B4D2BBB4CE20202022
:100C4000000000002020B6D4B1C8C1BDB4CED6B8D3
:100C5000CEC620200000000020202020B6D4B1C83D
:100C6000B3C9B9A6202020200000000020202020A9
:100C7000B6D4B1C8CAA7B0DC2020202000000000F4
:100C80002020C9FAB3C9D6B8CEC6C4A3B0E5202087
:100C900000000000C9FAB3C9D6B8CEC6C4A3B0E5F7
:100CA000B3C9B9A60000000020B0B434BCD320B052
:100CB000B432BCF5202020200000000020B0B43366
:100CC000B1A3B4E620202020202020200000000036
:100CD0002020303C3D204944203C3D393920202013
:100CE000000000002020C2BCC8EBD6B8CEC6B3C9F5
:100CF000B9A620200000000049443D0000BFFEE7E7
:100D000038B50121042001F0E3F8002413E01F4866
:100D100000EBC4008088ADF8000010208DF80300BF
:100D200003208DF80200194951F83400694600F09B
:100D300041FA601CC4B2042CE9DB002413E014481F
:100D400000EBC4008088ADF8000048208DF8030057
:100D500003208DF802000E4951F83400694600F076
:100D600029FA601CC4B2042CE9DB00240AE0074A1B
:100D700002EBC4029188054A52F8340000F0B0FA40
:100D8000601CC4B2042CF2DB38BD000050100020FF
:100D90007010002070B5002434E0052002F06CFCD7
:100DA0004A4A02EBC4029188484A52F8340000F0E3
:100DB00095FA002519E0052002F05EFC444A02EB9A
:100DC000C5029188424A52F8350000F07EFA28B9EF
:100DD0000120404901EB8401485504E000203D49D1
:100DE00001EB84014855681CC5B2042DE3DB374A8A
:100DF00002EBC4029188354A52F8340000F070FAD0
:100E0000601CC4B2042CC8DB32480078012801D130
:100E1000042070BD2F484078012801D10820F8E750
:100E20002C488078012801D10C20F2E72948C078AD
:100E3000012801D11020ECE726480079012801D1D2
:100E40000320E6E723484079012801D10720E0E7A5
:100E500020488079012801D10B20DAE71D48C079AC
:100E6000012801D10F20D4E71A48007A012801D1C6
:100E70000220CEE71748407A012801D10620C8E7B2
:100E80001448807A012801D10A20C2E71148C07AAB
:100E9000012801D10E20BCE70E48007B012800D1BB
:100EA000B7E70C48407B012801D10520B1E709488C
:100EB000807B012801D10920ABE70648C07B0128CF
:100EC00001D10D20A5E70020A3E70000501000206D
:100ED000701000202C14002070B505460C462846E2
:100EE00001F080F8064626EA0401284601F0DAFD02
:100EF00070BD7047F8B500243DA20021084600F0FF
:100F0000BBFB3FA20221002000F0B6FB40A204215F
:100F1000002000F0B1FB52E0FFF73CFFC5B2022D0C
:100F200004D1002C3ADD601E84B237E0042D04D1D8
:100F3000632C33DA601C84B230E0012D00D13FE035
:100F4000052D13D100F0DAFC06463EB900F006FB91
:100F500033A20221002000F08FFB02E0304601F0B6
:100F6000A3FA40F2DC5002F087FB29E0032D15D1F3
:100F70000121204600F08CFC06463EB900F0EEFA56
:100F80002CA20221002000F077FB02E0304601F0A5
:100F90008BFA40F2DC5002F06FFB11E02AA206212E
:100FA000282000F069FB0120022322460621009040
:100FB000412000F02FFC642002F05EFB00BFABE795
:100FC00000F0CCFA21A20021102000F055FB22A253
:100FD0000221102000F050FB23A20421102000F079
:100FE0004BFB25A20621102000F046FBF8BD0000B7
:100FF00034BCD332BCF52033C8B7C8CF20200000A2
:10100000204B35C7E5BFD5D6B8CEC6BFE22000001D
:1010100031B7B5BBD820303C3D49443C3D3939005F
:1010200020C7E5BFD5D6B8CEC6BFE2B3C9B9A620A2
:10103000000000002020C9BEB3FDD6B8CEC6B3C99B
:10104000B9A620200000000049443D004B3134B8CF
:10105000C4C3DCC2EB0000004B312F33CCED2FC9F1
:10106000BED6B8CEC60000004B382F39CCED2FC904
:10107000BE636172640000004B3135CDCBB3F6B274
:10108000A2B9D8CBF800000030B5044604254FF4CF
:10109000302000F06FF80546042D17D10C48006988
:1010A00040F002000A49086108464461006940F0C6
:1010B000400008614FF4302000F05CF80546044819
:1010C000006941F6FD71084001490861284630BDBC
:1010D0000020024004200B49C96801F0010109B158
:1010E00001200EE00749C96801F0040109B102209E
:1010F00007E00449C96801F0100109B1032000E0CC
:1011000004207047002002400348006940F080003E
:1011100001490861704700000020024070B5044694
:101120000D460426F00200F025F80646042E11D1E3
:101130000948006940F00100074908612580F00274
:1011400000F018F806460448006941F6FE710840B0
:1011500001490861304670BD002002400248034941
:1011600048600348486070472301674500200240FB
:10117000AB89EFCD00B502460423FFF7ABFF034672
:1011800003E0FFF7A7FF0346521E012B01D1002AFF
:10119000F7D102B90523184600BD0000044900E05C
:1011A000521C11F8013B002BFAD150087047000087
:1011B000480F00202DE9F0410246002500260020BE
:1011C00000230024002791F803C00CF00F0591F8CC
:1011D00003C00CF0100CBCF1000F03D091F802C05A
:1011E0004CEA050591F800C0BCF1000F31D014683D
:1011F00000202BE04FF0010C0CFA00F3B1F800C016
:101200000CEA03069E4220D183004FF00F0C0CFA2B
:1012100003F7BC4305FA03FC4CEA040491F803C04D
:10122000BCF1280F06D14FF0010C0CFA00FCC2F8FB
:1012300014C00AE091F803C0BCF1480F05D14FF08B
:10124000010C0CFA00FCC2F810C0401C0828D1D3D5
:101250001460B1F800C0BCF1FF0F34DD5468002009
:101260002EE000F1080C4FF0010808FA0CF3B1F879
:1012700000C00CEA03069E4221D183004FF00F0C00
:101280000CFA03F7BC4305FA03FC4CEA040491F89A
:1012900003C0BCF1280F05D100F1080C08FA0CF8C6
:1012A000C2F8148091F803C0BCF1480F07D100F1D7
:1012B000080C4FF0010808FA0CF8C2F81080401C26
:1012C0000828CED35460BDE8F08102460020936820
:1012D0000B400BB1012000E00020704741617047D6
:1012E0000161704700BFFEE7002001E0411CC8B269
:1012F0000A28FBDB7047000008B50121082000F038
:10130000E7FD4FF48070ADF8000003208DF8020077
:1013100014208DF8030069460648FFF74BFF4FF491
:101320000070ADF8000069460248FFF743FF00F087
:101330001DF808BD000C014010B5012009490860E6
:101340000949C1F8A001FFF7CFFF00200549086057
:10135000FFF7CAFF00200449C1F8A001FFF7C4FF4E
:1013600010BD0000A48121420080214210B5002060
:101370000549086001200549C1F8A001FFF7B4FF45
:1013800001200149086010BDA48121420080214252
:1013900010B501200D490860FFF7A6FF01200C4998
:1013A000C1F8A001FFF7A0FF4FF400710948FFF753
:1013B0008CFF08B1012400E0002400200349091F2C
:1013C0000860FFF791FF204610BD0000A481214274
:1013D00000802142000C01407CB50546EF208DF8CD
:1013E000000001208DF801001A480068000E8DF8F9
:1013F000020018480068000C8DF8030015480088AA
:10140000000A8DF80400134800788DF805000720C5
:101410008DF8060000208DF807000F49088012E0C3
:10142000012002F029F90C48008800F4004050B176
:1014300000200949088069460848FEF795FE0446E1
:101440000CB120467CBD681E80B2051EE8D100BFED
:10145000F8E70000401000204A1000200C11002086
:1014600010B50446412C24D108210846FFF734FD6D
:101470003D21112001F016FB8621172001F012FBFF
:101480007F21262001F00EFB1E212D2001F00AFBFA
:1014900000212C2001F006FB8D212A2001F002FB07
:1014A0003E212B2001F0FEFA022002F00BF900F0A1
:1014B00089FB10BD00BF0549098801F040010029E2
:1014C000F9D00249091D088070470000004800401B
:1014D00000BFFEE77047000070B5002100230F2217
:1014E000C47804B3154C246804F4E064C4F5E064E3
:1014F000210AC1F10403CA40447804FA03F1847854
:101500001440214309010E4C0678A155047804F0DB
:101510001F050124AC4005786D11AD0005F1E025F3
:10152000C5F8004109E0047804F01F050124AC402F
:10153000044D0678761145F8264070BD0CED00E0AC
:1015400000E400E080E100E002490143024A11604A
:10155000704700000000FA050CED00E010B5002017
:1015600000F001F810BD70B50646002415E004F146
:10157000B001C8B201F0DCFA002001F0D9FA102065
:1015800001F0D6FA002504E0304601F0E7FA681CC5
:10159000C5B2822DF8DB601CC4B2082CE7DB70BD3D
:1015A00010B5FFF7A9FEAE2001F0C2FA002001F04D
:1015B000BFFA102001F0BCFA402001F0B9FAB020C7
:1015C00001F0B6FA812001F0B3FAFF2001F0B0FA81
:1015D000A12001F0ADFAA62001F0AAFAA82001F09E
:1015E000A7FA3F2001F0A4FAC82001F0A1FAD32005
:1015F00001F09EFA002001F09BFAD52001F098FA44
:10160000802001F095FAD82001F092FA052001F02F
:101610008FFAD92001F08CFAF12001F089FADA2052
:1016200001F086FA122001F083FADB2001F080FA43
:10163000302001F07DFA8D2001F07AFA142001F0BB
:1016400077FAAF2001F074FA10BD70B504460D466C
:1016500005F1B001C8B201F06BFAA11CC1F303118E
:1016600041F0100001F064FAA11C01F00F0141F0FB
:10167000010001F05DFA70BD2DE9F047074688468C
:101680001646002580E03078A02843DD00253AE0AA
:10169000702F04DD002708F1020000F0FF08307809
:1016A0003C4911F8151088422CD17078012101EBCA
:1016B0004501384A515C884224D141463846FFF7FB
:1016C000C4FF002406E004EB4511334A505C01F0EE
:1016D00045FA641C102CF6D308F10100C1B238465B
:1016E000FFF7B3FF002407E004EB451110312A4A4D
:1016F000505C01F033FA641C102CF5D307F1100094
:10170000C7B204E06D1C254800688542C0D300BF05
:10171000B61C39E07A2F04DD002708F1020000F042
:10172000FF0831781E48FEF731FD8146B9F1000F00
:1017300029D041463846FFF788FF002409E099F890
:101740000010203904EB0111164A505C01F006FA32
:10175000641C082CF3D308F10100C1B23846FFF72E
:1017600074FF00240AE099F80010203904EB0111FD
:1017700008310C4A505C01F0F1F9641C082CF2D3DA
:1017800007F10800C7B2761C307800287FF47BAFE1
:10179000BDE8F087480F0020280600203C100020FC
:1017A000DB0F0020380000202DE9F04107460E46EF
:1017B000904600250024A8F12000C5B2812F02DD4B
:1017C0000027B01CC6B231463846FFF73EFF002462
:1017D00007E004EB05110E4A505C01F0BFF9601CF4
:1017E000C4B2082CF5DB701CC1B23846FFF72DFFE0
:1017F000002408E004EB05110831054A505C01F0B3
:10180000ADF9601CC4B2082CF4DBBDE8F081000027
:10181000380000202DE9F0470546894690461E46CF
:10182000DDF820A000242FE0301B401EC1B20A20AA
:1018300002F0D2FAB8FBF0F00A21B0FBF1F201FBA2
:101840001207A7B9BAF1000F08D0082101FB045113
:10185000C8B230224946FFF7A7FF07E0082101FB85
:101860000451C8B220224946FFF79EFF0AE007F163
:101870003001CAB2082101FB0451C8B24946FFF742
:1018800093FF00BF601CC4B2B442CDDBBDE8F0875B
:101890002DE9F04104460D4600F0BDFC00F092FC3D
:1018A000012000F0B2FC072000F0BDFC0C2000F08D
:1018B000C4FC2012FFF7FEFDE0B2FFF7FBFD28128B
:1018C000FFF7F8FDE8B2FFF7F5FD142000EB242048
:1018D000E1B2084400EB2520E9B200EB01084046E4
:1018E00000F08AFC4FF4FA60FFF776FD07460FB16F
:1018F0007E7A00E0FF263046BDE8F08170B500F04A
:101900008AFC00F05FFC012000F07FFC032000F067
:101910008AFC0D2000F091FC1126304600F06CFC92
:101920004FF4FA60FFF758FD05460DB16C7A00E000
:10193000FF24204670BD2DE9F041054600F06BFC08
:1019400000F040FC012000F060FC042000F06BFC83
:10195000022000F072FC2846FFF7ACFDEF1D384670
:1019600000F04AFC4FF4FA60FFF736FD06460EB170
:10197000747A00E0FF242046BDE8F08170B500F0E5
:101980004AFC00F01FFC012000F03FFC032000F0A7
:101990004AFC012000F051FC0526304600F02CFCEA
:1019A0004FF4FA60FFF718FD05460DB16C7A00E0C0
:1019B000FF24204670BD2DE9F04781460D461646AE
:1019C0001F4600F028FC00F0FDFB012000F01DFC8C
:1019D000082000F028FC1B2000F02FFC4846FFF7F1
:1019E00069FD2812FFF766FDE8B2FFF763FD3012CC
:1019F000FFF760FDF0B2FFF75DFD09F1240000EB99
:101A00002520E9B2084400EB2620F1B200EB010AE0
:101A1000504600F0F1FB4FF4FA60FFF7DDFC04469E
:101A200064B194F80980E07AA17A00EB0120388053
:101A3000607B217B00EB0120788001E04FF0FF0804
:101A40004046BDE8F08770B500F0E5FB00F0BAFB5A
:101A5000012000F0DAFB032000F0E5FB032000F09A
:101A6000ECFB0726304600F0C7FB4FF4FA60FFF7A7
:101A7000B3FC05460DB16C7A00E0FF24204670BD32
:101A800070B500F0C8FB00F09DFB012000F0BDFB2D
:101A9000032000F0C8FB052000F0CFFB09263046EC
:101AA00000F0AAFB4FF4FA60FFF796FC05460DB173
:101AB0006C7A00E0FF24204670BD2DE9F041064617
:101AC0000C4600F0A8FB00F07DFB012000F09DFB20
:101AD000062000F0A8FB062000F0AFFB3046FFF721
:101AE000E9FC2012FFF7E6FCE0B2FFF7E3FC06F1A9
:101AF0000D0000EB2420E1B200EB0108404600F0AD
:101B00007BFB4FF4FA60FFF767FC07460FB17D7A65
:101B100000E0FF252846BDE8F081000000B589B04F
:101B20000121042000F0B4F90121082000F0D0F9CF
:101B300018208DF823008020ADF8200003208DF8B8
:101B4000220008A91848FFF735FB184800F061FD8E
:101B50000020ADF81A00ADF8160044F61F60ADF88D
:101B600018004720ADF8140000208DF81C0005A9CE
:101B70000E4800F0B5FD01A800F0A4FD6020ADF80E
:101B800004000020ADF80C000120ADF80600002094
:101B9000ADF80A0001A9054800F042FD0121034803
:101BA00000F011FD09B000BD000C0140000800402C
:101BB00010B504462146024800F08EFD10BD00001D
:101BC0000008004010B5142000F00CFA044604F0A0
:101BD000030018B90321142000F0E4FB10BDF0B598
:101BE00087B00546002708210846FFF775F9002150
:101BF0000D2000F057FF80210E20FFF76DF9932094
:101C00008DF8080020208DF8090001A802AB0222FF
:101C100002A900900C2000F01AF8064686B90024AC
:101C200007E002A8005D285502A8005D4740601C3F
:101C3000C4B2042CF5DB02A8005DB84200D0022635
:101C400080210E2000F0AEFB304607B0F0BD2DE93C
:101C5000FE4F0646884691469A46DDF830B002208F
:101C600002900020019000900C2E06D00E2E09D17B
:101C7000122001901020009005E077200190302084
:101C8000009000E000BF00BF019840F080010220FA
:101C900000F008FF80210420FFF71EF90021012039
:101CA00000F000FF80210A2000F07CFB002505E009
:101CB00018F80510092000F0F5FE6D1C4D45F7D30E
:101CC0003146012000F0EEFE0C2E03D180210D20C4
:101CD00000F068FB4FF47A7500BF042000F082F931
:101CE00004466D1E35B104F0010018B9009820407B
:101CF0000028F2D080210D20FFF7EEF895B30620E2
:101D000000F070F900F01B0068BB00200290019801
:101D1000204000F0010008B1012002900C2E24D1D7
:101D20000A2000F05FF904460C2000F05BF900F097
:101D300007072FB1601E07EBC000CBF8000002E0E0
:101D4000E000CBF8000004B90124122C00DD1224BD
:101D5000002505E0092000F045F90AF805006D1C92
:101D6000A542F7D301E00220029080210C2000F070
:101D700019FB0021012000F095FE0298BDE8FE8FBE
:101D800070B588B005460C4608210846FFF7A4F850
:101D900007210D2000F086FE0321142000F002FB35
:101DA0008DF80C5002A803AB012203A900900C206F
:101DB000FFF74DFF06464EB90298102806D19DF850
:101DC0000C0020709DF80D00607000E00226304687
:101DD00008B070BD10B54FF480711F48FFF780FA4E
:101DE000012001F06FFC4FF480711B48FFF776FA79
:101DF000012001F067FC4FF480711748FFF770FA7B
:101E0000012001F05FFC0F21012000F04BFE00BF1C
:101E1000012000F0E7F800F010000028F8D10120C0
:101E200001F050FC3D21112000F03CFE1E212D2030
:101E300000F038FE00212C2000F034FE8D212A20F5
:101E400000F030FE3E212B2000F02CFE402115201A
:101E500000F028FE10BD000000080140704700009F
:101E600010B500F005F94FF480710748FFF738FA14
:101E70004FF480510548FFF733FAFFF7ABFF4120DD
:101E8000FFF7EEFA10BD000000080140000C014011
:101E900029B1064AD2690243044BDA6104E0034ADD
:101EA000D2698243014BDA617047000000100240A2
:101EB00029B1064A12690243044B1A6104E0034A3D
:101EC00012698243014B1A61704700000010024002
:101ED00029B1064A92690243044B9A6104E0034A1D
:101EE00092698243014B9A617047000000100240E2
:101EF00029B1064AD2680243044BDA6004E0034A7F
:101F0000D2688243014BDA60704700000010024043
:101F100030B500210022002400232D4D6D6805F00E
:101F20000C0121B1042905D0082923D105E0294D50
:101F3000056022E0274D05601FE0254D6D6805F422
:101F40007012234D6D6805F48034022505EB924232
:101F50001CB9214D554305600BE01D4D6D6805F41E
:101F600000351DB11C4D5543056002E0194D554328
:101F7000056002E0174D056000BF00BF144D6D689D
:101F800005F0F0010909154D6B5C0568DD40456001
:101F90000F4D6D6805F4E061090A104D6B5C4568F2
:101FA000DD4085600A4D6D6805F46051C90A0B4D2E
:101FB0006B5C4568DD40C560054D6D6805F44041CA
:101FC000890B074D6B5CC568B5FBF3F5056130BD4A
:101FD0000010024000127A0000093D002400002099
:101FE0003400002070B504467E2000EA440040F032
:101FF00080054FF480510848FFF770F9284600F03B
:10200000B1F800F085F806464FF480510248FFF71A
:1020100067F9304670BD0000000C014008B5012191
:102020000820FFF755FF4020ADF8000010208DF884
:10203000030003208DF8020069460448FFF7BAF850
:1020400040210248FFF74CF908BD0000000C014098
:1020500010B540210148FFF743F910BD000C0140C5
:1020600010B540210148FFF739F910BD000C0140BF
:1020700008B501210C20FFF72BFF4FF48050ADF87D
:10208000000010208DF8030003208DF8020069463F
:102090001D48FFF78FF84FF40050ADF800001020F6
:1020A0008DF8030003208DF8020069461648FFF7FB
:1020B00081F84FF48040ADF8000004208DF8030053
:1020C00003208DF8020069460F48FFF773F84FF4BC
:1020D0000040ADF8000010208DF8030003208DF8BB
:1020E000020069460848FFF765F84FF48070ADF8C4
:1020F000000010208DF8030003208DF802006946CF
:102100000248FFF757F808BD000C014000080140E5
:1021100070B500251FE06006040E4FF40051104812
:10212000FFF7DCF8142001F0CDFA4FF480410C48A1
:10213000FFF7CBF8012801D144F00104142001F08D
:10214000C1FA4FF400510648FFF7CAF8142001F015
:10215000B9FA681CC5B2082DDDDB204670BD000051
:10216000000C014070B50446002524E004F0800016
:1021700028B14FF400411148FFF7B2F804E04FF4E2
:1021800000410E48FFF7AAF8142001F09BFA4FF423
:1021900000510A48FFF7A2F8142001F093FA4FF417
:1021A00000510648FFF79CF8142001F08BFA6006F6
:1021B000040E681CC5B2082DD8DB70BD000C0140B0
:1021C0007047000010B50B490968080EFFF772F957
:1021D00008480068C0F30740FFF76CF9054800881D
:1021E000C0F30720FFF766F902490878FFF762F9A4
:1021F00010BD00004010002010B504462012FFF76B
:1022000059F9E0B2FFF756F910BD10B50446204663
:10221000FFF750F910BD10B5EF20FFF74BF9012083
:10222000FFF748F910BD10B50446C4F30720FFF7C7
:1022300041F9E0B2FFF73EF910BD10B50446204663
:10224000FFF738F910BD0000014800787047000022
:102250004C10002005480078012804D100200349D3
:102260000870012070470020FCE700004D1000209E
:1022700000B587B001218803FFF72AFE0121042061
:10228000FFF726FE18208DF81B004FF40070ADF804
:10229000180003208DF81A0006A92148FEF78AFFCE
:1022A00048208DF81B004FF48060ADF81800032023
:1022B0008DF81A0006A91A48FEF77CFF4FF4E130AA
:1022C00002900020ADF814000C20ADF812000020A0
:1022D000ADF81000ADF80E00ADF80C0002A91148E1
:1022E00000F068FB012240F225510E4800F03DFB52
:1022F0004FF4A060FFF728F925208DF80400012095
:102300008DF807008DF805008DF8060001A8FFF78D
:10231000E3F80121034800F096FA07B000BD000081
:10232000000801400038014010B504462146054828
:1023300000F0B1FB00BF8021024800F0DFFA002866
:10234000F9D010BD0038014010B5FFF7E7FB10BD14
:102350002DE9F041054600212846FEF719F800D284
:1023600000250D492846FEF71DF800D20A4D0A49FE
:102370002846FDF7BAFF80460849FDF784FF074667
:102380000749FDF728FF0646FDF7EDFF84B220461A
:10239000FFF70EFCBDE8F081000034430000FA4472
:1023A0000000FA4370B505460C462846FFF71AFEB2
:1023B000064646EA0401284600F074FB70BD10B5DD
:1023C00000F002F810BD00000CB500200190009054
:1023D0003348006840F480303149086000BF30481D
:1023E000006800F4003000900198401C01900098B3
:1023F00018B90198B0F5A06FF1D12948006800F430
:10240000003010B10120009001E000200090009801
:10241000012843D12348006840F01000214908609A
:102420000846006820F0030008600846006840F095
:10243000020008601A484068194948600846406828
:1024400048600846406840F480604860084640683C
:1024500020F47C1048600846406840F4E81048606A
:102460000846006840F08070086000BF0C480068B3
:1024700000F000700028F9D00948406820F00300FF
:10248000074948600846406840F00200486000BFC5
:102490000348406800F00C000828F9D10CBD00008A
:1024A00000100240002002407047042808D14FF07D
:1024B000E021096941F004014FF0E022116107E0D9
:1024C0004FF0E021096921F004014FF0E022116191
:1024D0007047704710B51348006840F0010011497B
:1024E000086008464068104908400E4948600846A0
:1024F00000680E4908400B4908600846006820F44F
:10250000802008600846406820F4FE0048604FF4D0
:102510001F008860FFF753FF4FF000600449086018
:1025200010BD0000001002400000FFF8FFFFF6FEA3
:1025300008ED00E010B50121880700F050F870B1F7
:102540000748008840F400400549088001218807B9
:1025500000F036F800214FF0804000F034F810BD54
:102560004A1000207FB505460C4601210846FFF7BA
:102570008FFCADF80450ADF800400020ADF8060027
:10258000ADF8020069464FF0804000F0A9F8012242
:102590001146900700F034F80121880700F013F885
:1025A0001C208DF80C0000208DF80D0002208DF805
:1025B0000E0001208DF80F0003A8FEF78DFF7FBDF0
:1025C000CA430282704721B1028842F001020280B0
:1025D00004E002884FF6FE731A400280704730B55F
:1025E0000246002000230024158A05EA010395898C
:1025F00005EA010413B10CB1012000E0002030BD58
:102600001AB183890B43838102E083898B438381E1
:10261000704701894FF6F872114001817047000040
:1026200070B5002400220023058C4FF6EF7635406C
:102630000584028C8388048B48F6FF752C404FF686
:10264000FF452C400D884FF6FF7606EA05252C4302
:102650004FF6DF752A400D8906EA05152A434D8895
:1026600006EA05152A43154DA84202D0144DA8428A
:102670001DD14FF67F752A404D894FF6FF7606EA49
:1026800005152A434FF6BF752A408D8806EA0515C1
:102690002A434FF6FF352B404FF2FF752B408D89B3
:1026A00006EA85052B43CD8906EA85052B43838001
:1026B0000483CD880587028470BD0000002C014092
:1026C000003401400021018041808180C18001816E
:1026D00041818181C1817047018770478184704742
:1026E000002202881D4B98420ED01D4B98420BD001
:1026F000B0F1804F08D01B4B984205D01A4B98423E
:1027000002D01A4B984204D14FF68F731A404B886F
:102710001A43174B984207D0164B984204D04FF6F5
:10272000FF431A40CB881A4302808B8883850B882D
:1027300003850A4B98420BD0094B984208D00E4BA8
:10274000984205D00D4B984202D00D4B984201D1D2
:102750000B7A03860123838270470000002C01401E
:10276000003401400004004000080040000C00401C
:1027700000100040001400400040014000440140AF
:102780000048014010B540F22551094800F0C3F857
:1027900001280CD1064800F079F90649087001209B
:1027A0000549087040F22551014800F03DF810BD80
:1027B000003801404C1000204D10002010B540F2B0
:1027C0002551164800F0A7F800B3144800F05EF950
:1027D000C4B21348008800F40040B8B9104800881B
:1027E000B0F5C87F13DA00214FF08040FFF776FF85
:1027F0000B48008818B901218807FFF7E4FE084953
:102800000888411C064A118006490C5405E004481A
:10281000008840F400400249088010BD0048004094
:102820004A1000200C11002010B50022002340F6B1
:102830006A14A14200D100BF0A1201249440A3B23D
:10284000DC43048010BD21B1828942F400528281B0
:1028500004E082894DF6FF731A40828170470000C0
:1028600010B504462048844209D101218803FFF7AE
:102870003FFB00214FF48040FFF73AFB32E01B485A
:10288000844209D101214804FFF712FB00214FF4D3
:102890000030FFF70DFB25E01548844209D10121E6
:1028A0008804FFF705FB00214FF48020FFF700FBB1
:1028B00018E01048844209D10121C804FFF7F8FA52
:1028C00000214FF40020FFF7F3FA0BE00A4884429E
:1028D00008D101210805FFF7EBFA00214FF4801021
:1028E000FFF7E6FA10BD0000003801400044004048
:1028F00000480040004C00400050004002460020CC
:10290000B1F5007F00D100BF13880B400BB101204F
:1029100000E00020704770B5024600240023002527
:10292000002040F66A16B14200D100BFC1F3421543
:1029300001F01F03012606FA03F3012D02D1968947
:10294000334006E0022D02D1168A334001E0968A18
:1029500033400C12012606FA04F41688344013B1F1
:102960000CB1012000E0002070BDF0B5034600244A
:1029700000260025002040F66A17B94200D100BFAA
:102980001846C1F3421401F01F06012707FA06F5A5
:10299000012C01D10C3004E0022C01D1103000E0F8
:1029A00014301AB107682F43076002E00768AF438D
:1029B0000760F0BD2DE9F04786B005460E460024BD
:1029C000A24600BFA1460027B08900B100BF2F4634
:1029D0002C8A4CF6FF700440F08804432C82AC89AA
:1029E0004EF6F3100440B0883189084371890843DA
:1029F0000443AC81AC8A4FF6FF400440B0890443E5
:102A0000AC8201A8FFF784FA1F48874202D1DDF8A3
:102A100010A001E0DDF80CA0A88900F4004040B14E
:102A20000AEBCA0000EB0A1031684900B0FBF1F86C
:102A300007E00AEBCA0000EB0A1031688900B0FB1E
:102A4000F1F86420B8FBF0F004012009642101FBD7
:102A50001089A88900F4004040B1322000EBC90081
:102A6000B0FBF1F000F00700044308E0322000EB77
:102A700009106421B0FBF1F000F00F0004432C8139
:102A800006B0BDE8F08700000038014001468888A4
:102A9000C0F308007047C1F308028280704700BF8E
:102AA000FEE7000070B504460D467E2000EA4406AD
:102AB0004FF480510748FEF711FC3046FFF752FBF8
:102AC0002846FFF74FFB4FF480510248FEF708FC01
:102AD00070BD0000000C014070B50446002520E0E8
:102AE00004F0800018B101200F49086002E00020C6
:102AF0000D490860FEF7F8FB01200B49091F08602B
:102B0000FEF7F2FB00200949C1F8A001072D02D110
:102B10000120054908606006040EFEF7E5FB681C0D
:102B2000C5B2082DDCDB70BDA481214200802142AA
:102B300010B50446FEF700FC7820FFF7CDFFFEF746
:102B400027FC0020FFF7C8FFFEF722FC2046FFF716
:102B5000C3FFFEF71DFCFEF709FC10BD10B50446CF
:102B6000FEF7EAFB7820FFF7B7FFFEF711FC4020E5
:102B7000FFF7B2FFFEF70CFC2046FFF7ADFFFEF7B4
:102B800007FCFEF7F3FB10BD0FB4084B10B504A90A
:102B900002AA039800F0DEF8044602A9002000F023
:102BA00070FC204610BC5DF814FB00008334000864
:102BB00002E008C8121F08C1002AFAD17047704706
:102BC000002001E001C1121F002AFBD17047000064
:102BD0002DE9FF5F82B00021DDE90430020DDDF850
:102BE00040B0034318D044F61050A2F2FF324243E3
:102BF0001514119801281FD0A5EB0B00401C5FEAAB
:102C0000000A4FF000064E4FDFF83891B0465046AC
:102C100015D5CAF1000413E0119801244AA3012834
:102C200001D16FEA0B010298119AC0E90031C0E9A5
:102C3000024206B0BDE8F09FCBF10000DFE704469A
:102C40000021404A491842EB0450CDE9001012E03F
:102C5000E00707D032463B4640464946FDF7D1FCE7
:102C60008046894632463B4610461946FDF7C9FC68
:102C700006460F466410002CEAD1DDE90401DDE9C7
:102C80000023BAF1000F06DAFDF7BBFC42464B46C3
:102C9000FDF7B7FC05E0FDF726FD42464B46FDF784
:102CA00022FD04460E460022284BFDF7A3FD03D863
:102CB0004FF0FF30014607E00022254B2046314609
:102CC000FDF7F8FBFDF77EFD102409E0002C0ADB80
:102CD0000A220023FDF786FB039B30321A55641E3F
:102CE00050EA0102F2D1641C039AC4F111031444A6
:102CF000119A012A03D0012208430DD10AE00843AA
:102D000004D000204FF0110B119072E7A3EB0B05DC
:102D10006D1E0DE05B4504DD4FF0000205F101057D
:102D200004E003DA4FF00002A5F10105002AECD01F
:102D300002981199C0E90231C0E9004579E7000025
:102D4000000014400000F03F300000000000F0439D
:102D50000000E03F2DE9FF4F95B09B4689460646AF
:102D600000250FE2252877D100242746F84A0121C3
:102D7000059400E0044316F8013F203B01FA03F0FC
:102D80001042F7D130782A2811D06FF02F03307815
:102D9000A0F13002092A16D8059A44F0020402EB89
:102DA000820203EB42021044761C0590EFE759F8CB
:102DB000042B0592002A03DA504244F40054059093
:102DC00044F00204761C30782E2816D116F8010F34
:102DD00044F004042A280DD06FF02F023078A0F1BF
:102DE0003003092B09D807EB870302EB4303C7180D
:102DF000761CF3E759F8047B761C30786C280FD0EA
:102E000006DC4C2817D068280DD06A2814D104E0BD
:102E1000742810D07A280FD10DE044F400140AE091
:102E200044F4801401E044F440147278824202D1E8
:102E300004F58014761C761C307866280BD013DCE1
:102E4000582877D009DC002875D04528F6D04628C8
:102E5000F4D047281AD19DE118E0632835D06428C2
:102E600079D0652812D195E1702873D008DC6728E5
:102E7000F1D069286FD06E280DD06F2806D1B5E04B
:102E800073282CD0752875D0782874D05A46179995
:102E900090476D1C75E1C4F30250022809D0032845
:102EA0000DD0D9F8001004280DD00D6009F10409E7
:102EB00067E1D9F80010EA17C1E90052F6E7D9F83E
:102EC00000100D80F2E70D70F0E719F8041B8DF883
:102ED000001000208DF80100EA46012003E059F8B7
:102EE00004AB4FF0FF3061074FF0000102D40DE05A
:102EF00008F101018846B9420FDA8045F8DB1AF87B
:102F000008100029F4D108E008F101018846814247
:102F1000FADB1AF808100029F6D105985B46A0EBF9
:102F2000080721463846179A00F094FA284400EB27
:102F3000080507E04DE029E10DE01AF8010B5A46BB
:102F400017999047B8F10108F7D25B4621463846F9
:102F5000179A13E142E00A220092C4F302524FF0A2
:102F6000000A022A08D059F804CB032A4FEAEC7170
:102F70000AD00DE029E02AE009F1070121F007025B
:102F8000F2E802C1914609E00FFA8CFC4FEAEC71BD
:102F9000042A03D14FFA8CFC4FEAEC71002907DABE
:102FA0000A460021DCF1000C61EB02012D2202E057
:102FB000220504D52B228DF80420012203E0E2072C
:102FC00001D02022F7E7904659E00A2102E01022C2
:102FD0000DE010214FF0000A00910BE010224FF09D
:102FE000000A44F004040827009203E008224FF08E
:102FF000000A0092C4F30252022A05D059F804CB09
:103000000021032A08D009E009F1070121F0070295
:10301000F2E802C1914605E01FFA8CFC042A01D1B6
:103020000CF0FF0C4FF00008220728D5702806D0BE
:10303000009B83F0100353EA0A0305D00EE0402200
:103040008DF80420012208E05CEA010206D030225B
:103050008DF804208DF8050002229046009B83F035
:10306000080353EA0A030AD15CEA010201D16207AC
:1030700005D530228DF804204FF001087F1E582816
:1030800004D034A003900EA802900DE036A0F9E71A
:1030900053466046009AFDF7A5F984460398825C82
:1030A0000298401E029002705CEA0100F0D1029882
:1030B00006A9081A00F1200A600702D524F480341A
:1030C00000E00127574502DDA7EB0A0000E00020E1
:1030D00000EB0A01009005984144401A0590E00376
:1030E00006D45B462146179A059800F0B3F90544CB
:1030F000002706E001A85A46C05D179990476D1C4D
:103100007F1C4745F6DBE0030CD55B462146179A4A
:10311000059800F09FF9054404E030205A461799BD
:1031200090476D1C0099481E00900029F5DC08E0CE
:10313000029802995A460078491C029117999047C3
:103140006D1CBAF10001AAF1010AF1DC65E1000091
:10315000092801003031323334353637383961626D
:103160006364656600000000303132333435363731
:1031700038394142434445460000000000F058F908
:103180000544761C307800287FF4ECAD19B0284651
:10319000BDE8F08F620700D4062709F1070222F08C
:1031A000070CFCE80223E14603F000485FEA080C44
:1031B00002D00FF2702C0DE05FEA045C02D50FF232
:1031C000682C07E05FEAC47C02D00FF2602C01E0BB
:1031D000AFF2700C4FF0FF3823F00043CDF850C031
:1031E00065280CD006DC452809D046281DD0472884
:1031F0003DD13DE0662818D067287ED138E0002117
:10320000112F01DB112000E0781CCDE9000106A997
:103210000EA8FFF7DDFCDDE90F010E9A03910021F6
:10322000009207F1010A04914DE04FF00040009731
:10323000CDE9011006A90EA8FFF7CAFCDDE90F02CF
:1032400003920E9B11990022DDF80CA000930492CA
:1032500011B9791C00EB010AB7EB0A0004D4C0F1E4
:10326000FF3007F1010A0490AAEB0700019044E047
:10327000012F00DA01270021112F01DD112000E0CC
:103280003846CDE9000106A90EA8FFF7A1FCDDE94B
:103290000F010E9A0391002104910092BA46210772
:1032A0000CD40399514500DA8A46BAF1010F05DDC5
:1032B000009AAAF10101515C302908D0B84202DA23
:1032C00010F1040F06DA0121CDE9011015E0AAF191
:1032D0000101E9E7002805DC049901440491AAEB07
:1032E000000102E0411C514500DD8A460499401A64
:1032F000401C01904FF000400290200704D4019838
:10330000504501DBCDF8048000208DF84F00029875
:103310000DF14F07B0F1004F25D02B200E900298F1
:103320004FF0020800280CDA404202902D200E9047
:1033300007E00A210298FDF73FF83031029007F8C4
:10334000011DB8F10001A8F10108F2DC0298002883
:10335000EFD1791E0E980870307800F0200040F010
:10336000450007F8020D12A8C01B00F107081498C9
:10337000007800B1012000EB0A01019801EBE07137
:1033800005984144401A401E0590E00306D45B4670
:103390002146179A059800F05DF8054414980078C6
:1033A00018B15A46179990476D1CE00324D55B4627
:1033B0002146179A059800F04DF805441CE0049842
:1033C000002807DBDDE90301884203DD0098405C4B
:1033D000179901E0179930205A469047049805F153
:1033E0000105401C04900198401E019004D12E203C
:1033F0005A46179990476D1CBAF10001AAF1010ACB
:10340000DDDC05E017F8010B5A46179990476D1C53
:10341000B8F10001A8F10108F4DC5B462146179AD7
:103420000598ABE62D0000002B00000020000000F6
:103430002DE9F041044600251E461746880404D4B1
:1034400005E039462020B0476D1C641EF9D528469A
:10345000BDE8F0812DE9F041044600251E46904666
:10346000C80301D5302700E02027880404D505E0F3
:1034700041463846B0476D1C641EF9D52846BDE864
:10348000F0810A68531C0B601070704770B5FEF72E
:1034900065F825A200210846FEF7EEF826A20221D3
:1034A0000020FEF7E9F828A206210020FEF7E4F844
:1034B00037E0FDF76FFC04460F2C0BD1FEF74EF8FA
:1034C00024A200210846FEF7D7F84FF47A7000F0E6
:1034D000D3F827E023495220FEF752FCE8B92248EE
:1034E000FEF77DFBC8B9204800F040F805464FF4D0
:1034F000FA6000F0C1F8FEF731F80BA2002108468F
:10350000FEF7BAF80CA202210020FEF7B5F80EA2D1
:1035100006210020FEF7B0F800BF322000F0ACF822
:1035200000BFC6E700BF70BD416464206361726480
:10353000206D6F64650000005377697065206361DA
:1035400072642E2E2E0000004B31353A45584954F6
:10355000000000004578697420616464206D6F6428
:1035600065000000901000209210002070B5054604
:10357000002415E0224800EB840104222846FCF7D1
:103580001DFE60B9FDF7EAFF1EA200210846FEF706
:1035900073F841F2883000F06FF8002070BD641CB1
:1035A0001C4800788442E5DB1A4800780A2818DABB
:1035B00013481849097800EB810029680160154813
:1035C0000078401C13490870FDF7C8FF12A20021C3
:1035D0000846FEF751F841F2883000F04DF801201E
:1035E000DCE7FDF7BBFF0FA200210846FEF744F819
:1035F00041F2883000F040F84FF0FF30CEE7000095
:10360000E1100020416C726561647920457869732E
:1036100074730000091100204361726420416464E6
:103620006564210043617264204C6973742046759F
:103630006C6C000010B56FF00400FEF736FF0A480E
:1036400000680A49B0FBF1F00949087008460078A3
:1036500000EB4001C1EBC0104FF6FF7101EAC00062
:103660000449088010BD00000C00002000127A0000
:1036700020000020220000200146114A12884A43FF
:103680004FF0E0235A6100229A611A46126942F013
:1036900001021A6100BF4FF0E022106900F0010240
:1036A0001AB100F48032002AF5D04FF0E0221269FE
:1036B00022F001024FF0E0231A6100229A61704764
:1036C000220000200146114A12784A434FF0E023BD
:1036D0005A6100229A611A46126942F001021A6187
:1036E00000BF4FF0E022106900F001021AB100F4AF
:1036F0008032002AF5D04FF0E022126922F0010258
:103700004FF0E0231A6100229A61704720000020E8
:1037100070B50546002600240AE0194800EB840134
:1037200004222846FCF74AFD08B9012604E0641C7F
:10373000144800788442F0DB00BFC6B1104800EBAB
:10374000840110480078401E0D4A02EB800000689A
:1037500008600C480078401E0A490870FDF7FEFE1C
:1037600009A200210846FDF787FF012070BDFDF783
:10377000F5FE09A200210846FDF77EFF0020F5E7CF
:10378000E110002009110020436172642044656C3F
:10379000657465642100000043617264204E6F749B
:1037A00020466F756E64000070B5FDF7D7FE25A248
:1037B00000210846FDF760FF27A202210020FDF747
:1037C0005BFF29A206210020FDF756FF37E0FDF739
:1037D000E1FA04460F2C0BD1FDF7C0FE25A2002113
:1037E0000846FDF749FF4FF47A70FFF745FF27E0E1
:1037F00024495220FEF7C4FAE8B92348FEF7EFF94E
:10380000C8B92148FFF784FF05464FF4FA60FFF777
:1038100033FFFDF7A3FE0BA200210846FDF72CFFA6
:103820000DA202210020FDF727FF0FA20621002094
:10383000FDF722FF00BF3220FFF71EFF00BFC6E7E3
:1038400000BF70BD44656C6574652063617264205F
:103850006D6F6465000000005377697065206361D7
:1038600072642E2E2E0000004B31353A45584954D3
:1038700000000000457869742064656C206D6F64F9
:1038800065000000901000209210002010B50D4936
:103890000A78302A01DB392A05DD0BA10B680360A9
:1038A000898881800AE0002106E0094C04EB41038D
:1038B00093F8003C4354491C0629F6DB0021817132
:1038C00010BD000000FC00083132333435360000F2
:1038D00000F0000870B50546FDF740FC0948FDF70B
:1038E000D3FB002409E0285D40EA0026054901EBEE
:1038F00044003146FDF712FC641C062CF3DBFDF797
:1039000003FC70BD00FC00082DE9F04105460026CF
:10391000002406E0E106080E16A20221FDF7ACFE27
:10392000641C062CF6DB1FE000BFFDF733FA0746E8
:10393000002FFAD0384600F0B5F80446582C0AD0CB
:103940003046711CCEB22C54711EC906080E0AA254
:103950000221FDF791FE00BFFDF71CFA0028FBD104
:103960001420FFF789FE00BF062EDDDB0020A871C2
:10397000BDE8F081200000002A00000070B5FDF7CE
:10398000EDFD32A200210846FDF776FE33A20621A6
:103990000020FDF771FE57E0FDF7FCF905460F2DFD
:1039A0000CD1FDF7DBFD30A200210846FDF764FED7
:1039B0004FF47A70FFF760FE002070BD2E49522050
:1039C000FEF7DEF900283BD12C48FEF708F9002865
:1039D00036D10026002415E0294800EB840104229A
:1039E0002648FCF7EBFB60B9FDF7B8FD25A20021E6
:1039F0000846FDF741FE4FF4FA60FFF73DFE012057
:103A0000DBE7641C224800788442E5DB00BF56B93E
:103A1000FDF7A4FD1FA200210846FDF72DFE4FF47F
:103A2000FA60FFF729FEFDF799FD08A2002108467C
:103A3000FDF722FE09A206210020FDF71DFE00BFB2
:103A40003220FFF719FE00BFA6E70000506C656149
:103A5000736520636172642E2E2E00004B31353A5F
:103A6000455849540000000045786974206361722C
:103A700064206D6F6465000090100020921000209B
:103A8000E1100020556E6C6F636B204F4B000000FF
:103A9000091100204163636573732044656E696595
:103AA000640000000146002904DB092902DC01F161
:103AB000300000E05820C0B270470000FDF76EFBF8
:103AC0009C4908604FF4A060FDF73EFDFFF7B2FD92
:103AD0004FF4614000F0E4FBFEF7A0FAFDF710F9A7
:103AE000FDF75EFDFDF73AFDFEF7C2FBFEF7B8F904
:103AF000FEF72AFC0020FEF72BFC1AE100268EA21E
:103B000000210846FDF7B8FD8DA202211020FDF727
:103B1000B3FD8EA204211020FDF7AEFD8EA206217A
:103B20001020FDF7A9FD00257AE0FDF733F9C4B2B6
:103B3000102C20D1FDF712FD8A48007800F080FAA1
:103B400008B101256CE0FDF709FD7BA200210846C4
:103B5000FDF792FD7AA202211020FDF78DFD7BA2D8
:103B600004211020FDF788FD7BA206211020FDF71F
:103B700083FD002554E00E2C05D100F07FF90028CC
:103B80004ED001254CE00A2C4AD1FFF7F7FE07463C
:103B900041F28830FFF770FD57B3FDF7DFFC72A2EA
:103BA00000210846FDF768FD41F28830FFF764FD0B
:103BB00006F13101C8B2FEF7B7FB17E0FEF74AFB8A
:103BC000012812D1FEF740FB31280ED16948FEF7DB
:103BD000BFFBFDF7C3FC68A200210846FDF74CFDC2
:103BE00041F28830FFF748FD01E00125E6E716E0E5
:103BF000FDF7B4FC50A200210846FDF73DFD50A2A0
:103C000002211020FDF738FD50A204211020FDF7FD
:103C100033FD51A206211020FDF72EFD002500BF27
:103C2000002D82D0FDF79AFC56A200211020FDF74E
:103C300023FD57A202211020FDF71EFD58A20421EA
:103C40001020FDF719FD5AA206211020FDF714FDE2
:103C50006CE0FDF79FF8C4B2012C04D1FDF77EFCA7
:103C6000FCF7B0FE4AE0032C04D1FDF777FCFDF72A
:103C700041F943E00E2C02D100F0BAF83EE0082CE6
:103C800004D1FFF703FCFDF769FC37E0092C04D1F0
:103C9000FFF78AFDFDF762FC30E00F2C2ED10025E6
:103CA000FDF75CFCFDF75AFC45A200210846FDF734
:103CB000E3FC41F28830FFF7DFFC06F13001C8B2C7
:103CC000FEF732FB16E0FEF7C5FA012812D1FEF727
:103CD000BBFA30280ED10020FEF73AFBFDF73EFC80
:103CE0003AA200210846FDF7C7FC41F28830FFF7F1
:103CF000C3FC00E0E7E700BFFDF730FC7820FFF7EA
:103D0000BBFC9DB11FA200211020FDF7B5FC20A235
:103D100002211020FDF7B0FC21A204211020FDF7A4
:103D2000ABFC23A206211020FDF7A6FC002D90D1AC
:103D300000BFE3E63C100020CEB4B5C7C2BC000013
:103D40004B3136D6B8CEC6D1E9D6A4004B3134C3F8
:103D5000DCC2EBD1E9D6A4004B313063617264D18F
:103D6000E9D6A40000000020D5FDD4DABFAACBF824
:103D70002E2E2E0000003443BFAACBF8B3C9B9A63B
:103D80002E0000004B3134B8C4C3DCC2EB0000008D
:103D90004B312F33CCED2FC9BED6B8CEC6000000B4
:103DA0004B382F39CCED2FC9BE636172640000001F
:103DB0004B3135CDCBB3F6B2A2B9D8CBF800000069
:103DC000D5FDD4DAB9D8CBF82E2E2E00B9D8CBF841
:103DD000B3C9B9A62E00000010B50246012000E0CC
:103DE00050430B1EA1F10104E1B2F9D110BD000056
:103DF0001FB5FDF7B3FB16A200210846FDF73CFCFA
:103E000002A8FFF781FDFDF7A9FB13A200210846D8
:103E1000FDF732FC6846FFF777FD694602A8FCF71C
:103E2000BFF940B902A8FFF755FD0EA204210020FA
:103E3000FDF722FC04E00EA204210020FDF71CFC8B
:103E40004FF44870FFF718FCFDF788FB1FBD00001A
:103E5000D0C2C3DCC2EB3A00D4D9B4CECAE4C8EBBA
:103E60003A000000D0DEB8C4B3C9B9A60000000013
:103E7000C1BDB4CEB2BBD2BBD6C2000030B585B096
:103E8000002503A8FFF702FDFDF768FB49A200210A
:103E90000846FDF7F1FB4AA206210020FDF7ECFBE6
:103EA0000120034600904948027806214E20FDF784
:103EB000B1FC01A8FFF728FD01A903A8FCF770F9E0
:103EC000002834D142A20421FDF7D6FB4FF44870FC
:103ED000FFF7D2FBFDF742FB40A200210846FDF7A9
:103EE000CBFB41F28830FFF7C7FB05F13101C8B2C7
:103EF000FEF71AFA16E0FEF7ADF9012812D1FEF727
:103F0000A3F931280ED13848FEF722FAFDF726FB37
:103F100036A200210846FDF7AFFB41F28830FFF7DB
:103F2000ABFB00E0E7E700BF012005B030BD32A2E7
:103F300004210020FDF7A0FB24480078022805DAC0
:103F400022480078401C2149087016E000201F49D3
:103F50000870FDF703FB2BA202211020FDF78CFB5C
:103F6000FEF77EF8002404E041F28830FFF784FB7E
:103F7000641C0F2CF8DBFEF76BF84FF44870FFF76A
:103F80007BFBFDF7EBFA23A200210846FDF774FB4B
:103F900022A202211020FDF76FFB23A20421102092
:103FA000FDF76AFB23A206211020FDF765FB002028
:103FB000BBE70000CAE4C8EB36CEBBC3DCC2EB00F3
:103FC000CAE4C8EBB4CECAFD3A00000000000020ED
:103FD000C3DCC2EBD5FDC8B700000000D5FDD4DAC4
:103FE000BFAACBF82E2E2E0000003443BFAACBF878
:103FF000B3C9B9A62E000000C3DCC2EBB4EDCEF30A
:1040000000000000CBF8B6A8B1A8BEAFD6D02E2EC7
:104010002E000000CEB4B5C7C2BC00004B3136D66E
:10402000B8CEC6D1E9D6A4004B3134C3DCC2EBD143
:10403000E9D6A4004B313063617264D1E9D6A400A3
:104040002DE9F04387B081460026FDF7E7FFFEF734
:104050007BF9FDF783FA66A202212020FDF70CFB15
:104060000027C4E0FCF796FE00F0FF08B8F1010F4E
:1040700003D1384607B0BDE8F083FDF77FFC044666
:10408000002C7CD10120FDF756FC0446002C77D192
:1040900006AB632200210120FDF78DFC0446002CB5
:1040A0003DD156A20221FDF7E7FABDF81A30BDF85E
:1040B000182057A101A8FEF767FD01AA04210020DE
:1040C000FDF7DAFAFDF74AFA55A200210846FDF796
:1040D000D3FA41F28830FFF7CFFA06F13101C8B2C6
:1040E000FEF722F916E0FEF7B5F8012812D1FEF727
:1040F000ABF831280ED14D48FEF72AF9FDF72EFA1C
:104100004BA200210846FDF7B7FA41F28830FFF7CD
:10411000B3FA00E0E7E700BF01273846AAE747A265
:1041200004212020FDF7A8FA40F2DC50FFF7A4FAA2
:1041300045480078022805DA43480078401C424987
:10414000087032E0002040490870FDF707FA3FA2EE
:1041500002211020FDF790FAFDF782FF002504E010
:1041600041F28830FFF788FA6D1C0F2DF8DBFDF760
:104170006FFFFDF7F3F939A20021084601E032E0B4
:1041800017E0FDF779FA37A202211020FDF774FA43
:1041900037A204211020FDF76FFA38A20621102063
:1041A000FDF76AFA0027384664E74FF44870FFF7D6
:1041B00063FAFDF7D3F90EA202212020FDF75CFA85
:1041C00031A200212020FDF757FA32A2062100205B
:1041D000FDF752FA0120034600901B4802780621A1
:1041E0004E20FDF717FB3220FFF746FA00BF39E7F4
:1041F000C7EBB0B4CAD6D6B8000000002020D6B8AD
:10420000CEC6D1E9D6A4B3C9B9A6202000000000CB
:104210002049443A256420B5C3B7D63A2564200026
:10422000D5FDD4DABFAACBF82E2E2E0000003443E1
:10423000BFAACBF8B3C9B9A62E000000D1E9D6A415
:10424000CAA7B0DC0000000000000020CBF8B6A830
:10425000B1A8BEAFD6D02E2E2E000000CEB4B5C76A
:10426000C2BC00004B3136D6B8CEC6D1E9D6A400C8
:104270004B3134C3DCC2EBD1E9D6A4004B313063FF
:10428000617264D1E9D6A400B0B44B31B7B5BBD8E4
:1042900000000000CAE4C8EBB4CECAFD3A0000003A
:1042A00010B586B0044601210820FDF711FE01215A
:1042B0008804FDF7EDFD2948FEF7D2FA4FF480603F
:1042C000ADF8140003208DF8160018208DF81700A3
:1042D00005A92348FCF76EFF4FF40060ADF8140009
:1042E00004208DF8170005A91D48FCF763FF019411
:1042F0000020ADF80800ADF80A00ADF80C00ADF8EC
:1043000010000C20ADF80E0001A91448FEF752FB76
:10431000012240F225511148FEF727FB01210F48E9
:10432000FEF791FA27208DF8000002208DF8010099
:1043300003208DF8020001208DF803006846FDF788
:10434000CBF841F61F416320FEF70CF900214FF036
:104350008040FEF738F906B010BD0000004800406C
:10436000000C014084430008000000200C110000F4
:1043700064090008A44F00080C1100203407000055
:10438000C02B0008A200016004A24A040BA009018E
:10439000020304060708091061140006100204064F
:1043A00008000152F8463233061004100C0603715F
:1043B0005B200440C07803200500043F040310087C
:1043C00000007088FC08302E100E1820FF211E00FF
:1043D00000F008F000E0183E4005211C031E1113F8
:1043E00088700FE00C1E2123241927211010160EAF
:1043F000702005E01804026A300B07182040000006
:10440000020418E069200420180770300E4080F084
:10441000804040000202010F01022832F0C810045F
:1044200001011F0471F3C00480B070564201017194
:10443000B98330302C3008601804006018063E1034
:1044400006E0100808107210070F102020100FF05F
:10445000461000100620203F20202D300470080850
:10446000C210063028242221E91006300888884826
:104470000820061820202011CC33C0203214070752
:104480000424243F243E11201608574319212024D8
:1044900005E010888810430F11103406380808C84A
:1044A0003877323F8D4370886080071C222121229B
:1044B0001C9010060031222211901161C2C0C2620C
:1044C00080C651081004402010701407010204082F
:1044D0001020303101430004011300001522403246
:1044E0001125130402F2137048D135431330360FEF
:1044F0001406C030C828E800200807182724231411
:104500000B6F22387E200D203C2302022738200822
:10451000F88888FF250E21D017C03010270838AD45
:1045200015303406080008F80840312015402130C5
:104530003004E8081030A004232018102300035E84
:1045400021403638ED200520221E024011A410091A
:10455000F808203F210101212522085295805111A0
:104560002006C08080807F0E2007F888C0281808A9
:1045700070400501263820405200A0132030201042
:1045800004F800F85417203F60214F4004F830C071
:10459000601220E4363F5F21B025EF41B021D033D7
:1045A000F0008083010020300718242438504FC0C9
:1045B000250131C034040C3020B021C1373820B07F
:1045C00032189F42188231A041D023001F90340836
:1045D0001F000878880000F1100407380E60119B56
:1045E00012F8B5401D00033C0700073C0300081803
:1045F00068808068180820302C03032C302008388D
:10460000C82F5150218F213F1804203826512949A5
:104610004C0400FE020803267FE85804000C301FFB
:104620001805000106382A111D3EFEA90327404047
:1046300030100400000412FE04E503528001F20071
:104640001D311619C01806242222223F0032000F05
:104650005B003FC0312119D01A0ED04320114B43CB
:1046600088F8102210B35140121F3F2322131E1A44
:10467000F0428618D041772408006B94949493609C
:104680000B310F158041F3BC0480989880035200D1
:10469000125901153B31311406203F24022D8F2978
:1046A00030ADB00361D7214B2103112BC16071A044
:1046B00045A031202D400493FFA1E04280E033A0CB
:1046C000FF4C315019A18004200001C01333240194
:1046D0002219E046E02125F252004D42806015107B
:1046E00031EC25681C05010E300872042170256329
:1046F00018040F300C4F320F2C41A16007312E0EE1
:10470000312000303C0580818E70A20455A73C0505
:104710000021302C8004215F4A7C012B003F015C8A
:10472000040000FFB9053108340402027CB04F4098
:104730004060041E0236054D60054DCF051814106B
:1047400010FF1090003F4848444444427000044425
:10475000827F9723FF490111411C052030AC631271
:10476000054C04F8090E8803140E22672212928069
:1047700040211608162140081C0E1010D0FF90147E
:10478000E4AFA4A4A4AFE45F0413040377240A896C
:104790004B2A1A0E1A2A4B88281C0520FF2020536A
:1047A0000337FF089A18151030100F884821110D93
:1047B000030D11214181001060028CC21AF2A52262
:1047C000F8B1240D04047E018047300F1027004704
:1047D000E02007404042CC0090013806FF1011163F
:1047E000107A14071028603F101041280C40F00088
:1047F0002424A4FE2322003E5E17223EFF1007065B
:1048000001FF010640BD127FC31E411F031EFCFBBA
:10481000041C0814155694543414A0061640641D44
:104820002C061C0441817F320613050310100EEF85
:10483000242480E49C105454FF547C101C400E7FB0
:1048400021512618274445455F454544A0300B10AB
:104850009252321E3252921210A0440C0021184083
:10486000807F0830040931401E10400542F8E012F4
:104870008061111D1D8E0311FA1107400680FE8212
:1048800082FE0531E11586300520BF403F23224FCF
:10489000281C0CFE225A8620102824E324287206A5
:1048A000157A2006040827110DA012055F200400C8
:1048B00002FA401C084020504C434C501007441052
:1048C00008184884443F404458414E6058474020AF
:1048D0004C070004C40404FCE00525201F48400CDC
:1048E0000410057F41414120211F100644545454B7
:1048F0007F042A441F580C7F201000FF1515155502
:10490000957F0020109020988888E98E8888A89844
:1049100000024281B63C07844B28102847E903294E
:10492000D81724FC5E15673D4F0430060202428210
:104930007F082D80072C040202C263042282014EEC
:1049400002670451043D78062C0F201808EAACA831
:10495000A8AFA8A8ACEA08280908223E423807FFF9
:10496000020212221E9F13F2920122FE0512F25041
:104970002C040404FFAB06140707040444847FB02E
:10498000C280010D109E082405020C80607533C89A
:10499000085F1B0202401D2C083C0506010618E9B1
:1049A000061C040848886107370090A819401006C3
:1049B00020100C0304293E433F062D3F0531A85E1D
:1049C000FF370735B91128323FC11C05780002E2D4
:1049D000F70452FE0412E2E12AFF631216044302B6
:1049E0004C423D110629E01C05090AC8084C082C58
:1049F000061F0010201F22031C04182641DB053D62
:104A0000100642087E3EF000031F1F0831083C05D7
:104A10000E0140809203480440301E44319E2C0514
:104A2000008181411D034E011F032E81DE05180800
:104A3000FA02FE4020D8176611983D1C037E67815C
:104A400003297081403E1030032101327F0615801A
:104A50003DA0035C0A1000FC24E4242223E2A0030E
:104A6000100783601F804126A015201C04020CC083
:104A7000A4082004484848C2168ACF227F982C09EF
:104A80001E925E20173846F11D092FF8075F033E7E
:104A9000E25F032DF204140DFF2011090503FF034B
:104AA00005091120B0280584E41C07231C04A46414
:104AB0002460031D53088BFF00221D0D06538292B4
:104AC000012EFE3C054C0E404022241048807F04FD
:104AD00008182422AF041DAA068C05E21CE000BEC3
:104AE000082E0C19081D5D072D6004200900108890
:104AF000C43300BEAA0122BEAF3160530A12622144
:104B0000301C0490888620054F838CD90825FD57DA
:104B100007005D1D1A031C0F84E45C44C42010E8E8
:104B20002724E4342CE0FF0414057F10103FA65C1A
:104B30000709093F49897F40039D35051D46052327
:104B40009048432D7F0A5E8060031C04FC24A4FF70
:104B5000063FA362880A4C0D1F2058475048454223
:104B6000454850407F075C06F2121212F268072D8A
:104B7000F90316270F3E27FF034DE0049D80033DF8
:104B80004004AD80031C080C442414040506A4044E
:104B900024052444140CC11DB8032E41BD034E410D
:104BA000CE0526FC5B3F3DA687033DC004131013D2
:104BB0006F12FF731A121041A01DAF051EC9F20437
:104BC0005280A02C0A405F48444041424558F003BF
:104BD0002A7CC922FF0563FC000F5DA00331111C74
:104BE0000C8A52225A46404758245288C0051C0756
:104BF0000141404F59693F051C0669594F4041200A
:104C00000A1DCD0B1DC1053DC60527222CF01F0234
:104C1000012C0319C05D60031008048484442454EB
:104C20008FBE1F8484FF0B1406413900003C552CB5
:104C3000054C40407020051D0D08210132FF063D46
:104C400038073D780A4EFF9F0A2D510B53E282012F
:104C5000453F5D7A035D7F03215F5C088484FC40EF
:104C600030CC0B090A1DBF048F1008000314091073
:104C70008C4404E40495A6461C058444940CEF0679
:104C80001C077A414143427E04037B43F800200421
:104C90000002F2612DDF0839002D97031D19041D54
:104CA0008D052D000630066448487F48043E4000CC
:104CB000068E11FF064D40053B809EC13E9E490772
:104CC00010047F2094F233140FF21C10004044545F
:104CD00065C664544400FC4444C442F0041F124AB4
:104CE0001D051F0A9207043D80073C1D88681FC8E8
:104CF0000810C85452D1129408D01000091909FFA5
:104D00000500FF1292FF005FE0063C0D20F807F05F
:104D1000A0904C5724A4544C7A083C0BFF001F80F1
:104D2000925249292412160C2D2E053C078242F27C
:104D30000E42826F055DB60B219B1B01022F7C0882
:104D400042625AC65262C22004740840C4447F249E
:104D500024A0201DAD0C1404C8380C3D2EE8A80B6F
:104D60003E084003996227008018457F1DC2053D1B
:104D700040032D86087D46083C0F20102CE7242494
:104D800000E22C20BF2028E6680D15211F804FDC93
:104D90000B2C0410204FA0033C041011F67D042FAF
:104DA000F4135F0511AC5C04320F02E3053DA00D66
:104DB0002DB7072DBB045F1413E0046E41FE072DD1
:104DC000E0041C0490523481082C06345280708F09
:104DD000EA0B1C0900829A566322528ED8042404DE
:104DE000330C33E01E0C980820044445C6062D20E1
:104DF000031D0B071F1E20DD0631103DE0043DC0E2
:104E00000821C37C0592A29E00C0081C1880432C78
:104E1000102C43800012EAAFAAEA0FFA02888C57DE
:104E200024548C8470061005EAAAAAAB021D500413
:104E300032EAA0119B5D40053D490E2F000F800610
:104E40003D85062D6E0D1CB4D6B8CEC6C4A3BFE9F1
:104E5000B2E2CAD4B3CCD0F2BCFCCCEDBCD3C9BE58
:104E6000B3FDD1E9D6A4C7EBB0B4CAD6D5FDB3A380
:104E7000D4D9D2BBB4CEB6D4B1C8C1BDB3C9B9A61A
:104E8000CAA7B0DCC9FAB0E5BCF5B1A3B4E6C2BCB0
:104E9000C8EBB5C3B7D6C8B7C8CFB7B5BBD8C7E599
:104EA000BFD5BFE2CDCBB3F6B5C7D7B4CCACCEB48B
:104EB000D2D1B8C4C3DCC2EBB4EDCEF3D0C2CAE4E5
:104EC000D0DEB2BBD6C2D4DABFAACBF8B2A2B9D870
:104ED000CAFDB6A8B1A8BEAFD6D000202122232497
:104EE00025262728292A2B2C2D2E2F3031323334FA
:104EF00035363738393A3B3C3D3E3FFA035C3D435B
:104F00004445464748494A4B4C4D4E4F50515253E9
:104F10005455565758595A5B5C5D5E5F60616263D9
:104F20006465666768696A6B6C6D6E6F70717273C9
:104F30007475767778797A7B7C7D7E3C0A1101BD29
:104F4000070C50050801400108520208520408529B
:104F500008085210084DA70D4E01BF041108EDB608
:104F6000072015C43A68D9536A0B01D0791F39B0AC
:104F7000B18FA5059E0A88705009FFFFAA0702009D
:104F800009BC824004078029167E00961041262E17
:104F9000B0E708000621D7245B6A00010004000185
:044FA000000000000D
:0400000508000145A9
:00000001FF
