:020000040800F2
:100000005019002045010008B5130008C711000869
:10001000B11300084D0B0008BF28000800000000C5
:100020000000000000000000000000000D2000089B
:10003000430D000800000000951C0008C3220008C2
:100040005F0100085F0100085F0100085F01000810
:100050005F0100085F0100085F0100085F01000800
:100060005F0100085F0100085F0100085F010008F0
:100070005F0100085F0100085F0100085F010008E0
:100080005F0100085F0100085F0100085F010008D0
:100090005F0100085F0100085F0100085F010008C0
:1000A0005F0100085F0100085F0100085F010008B0
:1000B000252300085F0100085F0100085F010008B8
:1000C0005F0100085F0100085F0100085F01000890
:1000D0005F010008AD240008E5240008DD250008C4
:1000E0005F0100085F0100085F0100085F01000870
:1000F0005F0100085F0100085F0100085F01000860
:100100005F0100085F0100085F0100085F0100084F
:100110005F0100085F0100085F0100085F0100083F
:100120005F0100085F0100085F0100085F0100082F
:10013000DFF80CD000F076FA004800479939000843
:10014000501900200648804706480047FEE7FEE7B2
:10015000FEE7FEE7FEE7FEE7FEE7FEE7FEE7FEE777
:10016000C522000831010008D2B201E000F8012BDD
:10017000491EFBD270470022F6E710B513460A4627
:1001800004461946FFF7F0FF204610BD30B505467E
:100190002A460B4612F8010B13F8014B08B1A04296
:1001A000F8D01CB1002802D06D1CF1E7284630BD04
:1001B00010B5044604E00B7800F8013B03B1491C7C
:1001C000521EF8D2204610BDCAB2401E10F8011FC0
:1001D0008A4202D00029F9D10020704710B50022D0
:1001E00000E0521C835C8C5CA34201D1002BF8D14F
:1001F000D8B2E1B2401A10BD30B504460020034623
:1002000000E05B1C934203D2E05CCD5C401BF8D065
:1002100030BD034611F8012B00F8012B002AF9D15B
:100220001846704730B50B460146002020220124B5
:1002300009E021FA02F59D4205D303FA02F5491BB4
:1002400004FA02F52844151EA2F10102F1DC30BDCA
:100250002DE9F05F0546002092469B4688460646FB
:10026000814640241BE0284641464746224600F08E
:10027000FAF953465A46C01A914110D3114618460E
:10028000224600F0E1F92D1A67EB01084F4622469D
:100290000120002100F0D8F917EB00094E41201E83
:1002A000A4F10104DFDC484631462A464346BDE856
:1002B000F09F2DE9FE4F804681EA0300C00F0C46F7
:1002C000009021F0004123F00045B8EB0200A94165
:1002D00005D24046214690461C460B46024623F076
:1002E0000040104347D0270DC7F30A00C3F30A515B
:1002F0000290401A019040286BDAC3F3130040F4D7
:10030000801B0098924620B10023D2EB030A63EBD6
:100310000B0B01985946C0F14002504600F094F989
:1003200006460D4650465946019A00F0ACF910EBCE
:1003300008006141002487EA115284EAE7731A43F6
:1003400040D0009A62B3019A012A4FEA075215DCA5
:10035000001B61EB02014FF0004202EA0752CDE9B7
:100360000042001C41F5801132462B4600F0ACF9EA
:1003700003B0BDE8F08F40462146F9E7001B61EB72
:100380000201001C41F5801300185B412018A2F502
:10039000001747EB030140EAD570B6196D4111E033
:1003A0006D084FEA360645EAC0754FEA0752001B52
:1003B00061EB0201001C41F5801149084FEA300051
:1003C0000019514132462B4603B0BDE8F04F00F012
:1003D0006CB90098012240000023D0EB020263EBCD
:1003E000E073009821464FEAE074B8EB000061EB3F
:1003F0000401E9E783F000435BE781F0004158E73F
:100400002DE9FE4F81EA030404F0004421F000418D
:1004100000944FF0000B23F0004350EA01045ED03B
:1004200052EA03045BD0C3F30A54C1F30A552C44C7
:10043000A4F2F3340194A0FB0254C1F3130141F47C
:100440008011C3F3130343F4801301FB024400FB48
:10045000034E840A970A44EA815447EA8357A4FB6F
:10046000076802958D0A05FB07854FEA932C04FB6C
:100470000C542705029D4FEA065847EA1637B5EB9C
:1004800008056EEB070C870E920E47EA811742EAC9
:100490008312A7FB0201B6EB0B0164EB00042B0DEA
:1004A00043EA0C335E1844EB1C50DA465146E7FB36
:1004B0000201C5F313044FEA0B3343EA14534FEA26
:1004C0000432019C43EA0603A4F10C040294009C4C
:1004D000CDE900B400F0F8F803B0BDE8F08F0020DB
:1004E0000146F9E72DE9F04D81EA030404F0004BE1
:1004F00021F0004514464FF0000A23F0004150EA75
:10050000050220D054EA01021DD0C5F30A57024665
:10051000C5F31303C1F31300C1F30A5640F4801569
:1005200043F48013A7EB0608101BD64608F2FD38EB
:1005300073EB050002D308F1010801E092185B415A
:10054000B8F1000F03DA00200146BDE8F08D00206D
:100550004FF48011064684460EE0171B73EB050727
:1005600005D3121B63EB050306434CEA010C490853
:100570004FEA300092185B4150EA0107EDD152EA90
:10058000030012D082EA040083EA0501084305D083
:10059000101BAB4106D20122002306E000224FF0DF
:1005A000004302E06FF0010253101AEB06004CEB1F
:1005B000085110EB0A0041EB0B01BDE8F04D00F0D3
:1005C00074B8C1F30A52C1F3130140F2FF3341F48E
:1005D00080119A4202DA00200146704740F233430C
:1005E0009A42A2F2334202DC524200F03CB800F0E0
:1005F0002BB8000030B5041E71F1000404DB4FF08D
:100600000044404264EB0101141E73F1000405DB59
:100610001C464FF00043524263EB0403994208BF6B
:10062000904230BD064C074D06E0E06840F0010303
:1006300094E8070098471034AC42F6D3FFF77CFDEE
:100640003443000854430008202A04DB203A00FA0F
:1006500002F1002070479140C2F1200320FA03F319
:10066000194390407047202A04DB203A21FA02F017
:100670000021704721FA02F3D040C2F120029140DC
:10068000084319467047202A06DBCB17203A41FA67
:1006900002F043EAE07306E041FA02F3D040C2F10F
:1006A0002002914008431946704710B5141E73F19B
:1006B000000408DA401C41F1000192185B411A4322
:1006C00001D120F0010010BD2DE9F04D92469B466E
:1006D00011B1B1FA81F202E0B0FA80F22032904614
:1006E000FFF7B2FF04460F4640EA0A0041EA0B0159
:1006F00053465A46084313D0114653EA010019D015
:10070000C8F140025046FFF7AEFF05460E46504680
:1007100059464246FFF798FF084305D0012004E000
:1007200020463946BDE8F08D0020054346EAE076D4
:100730002C4337430A986305E40AA0EB0800002223
:10074000FD0A44EA47540A3002D500200146E9E791
:10075000010510196941DDE9084500196941BDE845
:10076000F04DA2E770B58D1810F8014B14F003029C
:1007700001D110F8012B231106D110F8013B03E041
:1007800010F8016B01F8016B521EF9D1ABB110F8F2
:10079000012B04F00C048A1A0C2C03D0A2EB841257
:1007A0009B1C08E010F8014BA2EB0422F8E712F8BA
:1007B000014B01F8014B5B1EF9D5A942D4D30020AF
:1007C00070BD00002DE9F8430026B04600250CE17D
:1007D000B8F1050F29D2DFE808F003295483AC00F3
:1007E000701CC6B283A20221002000F0B5FE01F009
:1007F00035F80446B4B9012001F00DF804466CB98F
:1008000081A20221002000F0A7FE84A20421002082
:1008100000F0A2FE00264FF0010806E0204601F09D
:100820003BFD02E0204601F037FDD6E0701CC6B269
:100830007FA20221002000F08FFE78A20421002078
:1008400000F08AFE01F00AF80446B4B9022000F074
:10085000E2FF04466CB96CA20221002000F07CFE8D
:100860006EA20421002000F077FE00264FF002085F
:1008700006E0204601F010FD02E0204601F00CFDEC
:10088000ABE070A20221002000F066FE63A204210A
:10089000002000F061FE01F046F8044664B96EA243
:1008A0000221002000F058FE5CA20421002000F08C
:1008B00053FE4FF003080EE06CA20221002000F06E
:1008C0004BFE56A20421002000F046FE204601F017
:1008D000E3FC0026B0464FF4FA7002F033FE7CE0F1
:1008E00067A20221002000F037FE4CA20421002064
:1008F00000F032FE4FF4FA7002F024FE01F030F8FE
:10090000044664B963A20221002000F025FE43A240
:100910000421002000F020FE4FF0040804E04FF016
:100920000008204601F0B8FC4FF47A7002F00AFE8D
:1009300053E05DA20021084600F00EFE5FA20221F6
:10094000002000F009FE62A20421002000F004FE55
:1009500040E000F047F9C7B2022F04D1002D28DD96
:10096000681EC5B225E0042F04D1632D21DA681C6E
:10097000C5B21EE0032F1CD12946022001F00DF85C
:10098000044674B900F05AFD56A20221002000F07E
:10099000E3FD40F2DC5002F0D5FD00F04FFDBDE874
:1009A000F88300F04BFD204601F076FC4FF0000884
:1009B00011E051A20621282000F0CEFD01200223E3
:1009C0002A4606210090412000F094FE642002F0A7
:1009D000B9FD00BFBDE700BF00BF00BF4FF4C87046
:1009E00002F0B0FD0A2E00D100E0F1E600BF00BF2A
:1009F000D5E7000020202020C7EBB0B4CAD6D6B877
:100A0000202020200000000020202020D6B8CEC6C4
:100A1000D5FDB3A3202020200000000020202020AE
:100A20002020202020202020202020200000000046
:100A3000202020C7EBD4D9B0B4D2BBB4CE20202024
:100A4000000000002020B6D4B1C8C1BDB4CED6B8D5
:100A5000CEC620200000000020202020B6D4B1C83F
:100A6000B3C9B9A6202020200000000020202020AB
:100A7000B6D4B1C8CAA7B0DC2020202000000000F6
:100A80002020C9FAB3C9D6B8CEC6C4A3B0E5202089
:100A900000000000C9FAB3C9D6B8CEC6C4A3B0E5F9
:100AA000B3C9B9A60000000020B0B434BCD320B054
:100AB000B432BCF5202020200000000020B0B43368
:100AC000B1A3B4E620202020202020200000000038
:100AD0002020303C3D204944203C3D393920202015
:100AE000000000002020C2BCC8EBD6B8CEC6B3C9F7
:100AF000B9A620200000000049443D0008B50121AE
:100B0000082001F001F91020ADF800008DF8030075
:100B100003208DF802006946034800F073FA1021A3
:100B2000014800F04EFB08BD000C014010B510213B
:100B3000014800F046FB10BD000C014010B510212B
:100B4000014800F03CFB10BD000C014000BFFEE777
:100B500038B501210C2001F0D7F8002413E01F481C
:100B600000EBC4008088ADF8000010208DF8030071
:100B700003208DF80200194951F83400694600F04D
:100B800041FA601CC4B2042CE9DB002413E01448D1
:100B900000EBC4008088ADF8000048208DF8030009
:100BA00003208DF802000E4951F83400694600F028
:100BB00029FA601CC4B2042CE9DB00240AE0074ACD
:100BC00002EBC4029188054A52F8340000F0F9FAA9
:100BD000601CC4B2042CF2DB38BD000020110020E0
:100BE0004011002070B5002434E0052002F0AAFC7A
:100BF0004A4A02EBC4029188484A52F8340000F095
:100C0000DEFA002519E0052002F09CFC444A02EBC4
:100C1000C5029188424A52F8350000F0C7FA28B957
:100C20000120404901EB8401485504E000203D4982
:100C300001EB84014855681CC5B2042DE3DB374A3B
:100C400002EBC4029188354A52F8340000F0B9FA38
:100C5000601CC4B2042CC8DB32480078012801D1E2
:100C6000042070BD2F484078012801D10820F8E702
:100C70002C488078012801D10C20F2E72948C0785F
:100C8000012801D11020ECE726480079012801D184
:100C90000320E6E723484079012801D10720E0E757
:100CA00020488079012801D10B20DAE71D48C0795E
:100CB000012801D10F20D4E71A48007A012801D178
:100CC0000220CEE71748407A012801D10620C8E764
:100CD0001448807A012801D10A20C2E71148C07A5D
:100CE000012801D10E20BCE70E48007B012800D16D
:100CF000B7E70C48407B012801D10520B1E709483E
:100D0000807B012801D10920ABE70648C07B012880
:100D100001D10D20A5E70020A3E70000201100204D
:100D2000401100203C15002070B505460C462846B1
:100D300001F074F8064626EA0401284601F018FE80
:100D400070BD7047F8B500243DA20021084600F0B0
:100D500003FC3FA20221002000F0FEFB40A2042180
:100D6000002000F0F9FB52E0FFF73CFFC5B2022D76
:100D700004D1002C3ADD601E84B237E0042D04D18A
:100D8000632C33DA601C84B230E0012D00D13FE0E7
:100D9000052D13D100F022FD06463EB900F04EFBB2
:100DA00033A20221002000F0D7FB02E0304601F020
:100DB00073FA40F2DC5002F0C5FB29E0032D15D197
:100DC0000121204600F0D4FC06463EB900F036FB77
:100DD0002CA20221002000F0BFFB02E0304601F00F
:100DE0005BFA40F2DC5002F0ADFB11E02AA20621D2
:100DF000282000F0B1FB01200223224606210090AA
:100E0000412000F077FC642002F09CFB00BFABE7C0
:100E100000F014FB21A20021102000F09DFB22A273
:100E20000221102000F098FB23A20421102000F0E2
:100E300093FB25A20621102000F08EFBF8BD0000D8
:100E400034BCD332BCF52033C8B7C8CF2020000053
:100E5000204B35C7E5BFD5D6B8CEC6BFE2200000CF
:100E600031B7B5BBD820303C3D49443C3D39390011
:100E700020C7E5BFD5D6B8CEC6BFE2B3C9B9A62054
:100E8000000000002020C9BEB3FDD6B8CEC6B3C94D
:100E9000B9A620200000000049443D004B31342019
:100EA000B8C4C3DCC2EB00004B312F33CCED2FC9EB
:100EB000BED6B8CEC60000004B382F39CCED2FC9B6
:100EC000BE4E4643000000004B3135CDCBB3F6B2E9
:100ED000A2B9D8CBF800000030B5044604254FF481
:100EE000302000F06FF80546042D17D10C4800693A
:100EF00040F002000A49086108464461006940F078
:100F0000400008614FF4302000F05CF805460448CA
:100F1000006941F6FD71084001490861284630BD6D
:100F20000020024004200B49C96801F0010109B109
:100F300001200EE00749C96801F0040109B102204F
:100F400007E00449C96801F0100109B1032000E07D
:100F500004207047002002400348006940F08000F0
:100F600001490861704700000020024070B5044646
:100F70000D460426F00200F025F80646042E11D195
:100F80000948006940F00100074908612580F00226
:100F900000F018F806460448006941F6FE71084062
:100FA00001490861304670BD0020024002480349F3
:100FB00048600348486070472301674500200240AD
:100FC000AB89EFCD00B502460423FFF7ABFF034624
:100FD00003E0FFF7A7FF0346521E012B01D1002AB1
:100FE000F7D102B90523184600BD0000044900E00E
:100FF000521C11F8013B002BFAD150087047000039
:101000000C1000202DE9F0410246002500260020AA
:1010100000230024002791F803C00CF00F0591F87D
:1010200003C00CF0100CBCF1000F03D091F802C00B
:101030004CEA050591F800C0BCF1000F31D01468EE
:1010400000202BE04FF0010C0CFA00F3B1F800C0C7
:101050000CEA03069E4220D183004FF00F0C0CFADD
:1010600003F7BC4305FA03FC4CEA040491F803C0FF
:10107000BCF1280F06D14FF0010C0CFA00FCC2F8AD
:1010800014C00AE091F803C0BCF1480F05D14FF03D
:10109000010C0CFA00FCC2F810C0401C0828D1D387
:1010A0001460B1F800C0BCF1FF0F34DD54680020BB
:1010B0002EE000F1080C4FF0010808FA0CF3B1F82B
:1010C00000C00CEA03069E4221D183004FF00F0CB2
:1010D0000CFA03F7BC4305FA03FC4CEA040491F84C
:1010E00003C0BCF1280F05D100F1080C08FA0CF878
:1010F000C2F8148091F803C0BCF1480F07D100F189
:10110000080C4FF0010808FA0CF8C2F81080401CD7
:101110000828CED35460BDE8F0810000F0B50A463F
:10112000002300240021002500F00046B6F1004F06
:1011300002D11D4EF16901E01B4E7168C0F30345F9
:1011400083B200F44016B6F5401F08D121F070615B
:10115000154E766826F07066134F7E6012E000F43C
:101160008016B6F5801F06D1032606FA05F4A143C2
:1011700041F0706106E0460D360103FA06F6B14310
:1011800041F0706122B1460D360103FA06F6314393
:1011900000F00046B6F1004F02D1034EF16101E0CC
:1011A000014E7160F0BD00000000014002460020C9
:1011B00093680B400BB1012000E0002070474161B3
:1011C00070470161704700BFFEE7002001E0411C4D
:1011D000C8B20A28FBDB704708B50121082000F0DF
:1011E00093FD4FF48070ADF8000003208DF80200ED
:1011F00014208DF8030069460648FFF703FF4FF4FB
:101200000070ADF8000069460248FFF7FBFE00F0F1
:101210001DF808BD000C014010B501200949086007
:101220000949C1F8A001FFF7D0FF00200549086077
:10123000FFF7CBFF00200449C1F8A001FFF7C5FF6D
:1012400010BD0000A48121420080214210B5002081
:101250000549086001200549C1F8A001FFF7B5FF65
:1012600001200149086010BDA48121420080214273
:1012700010B501200D490860FFF7A7FF01200C49B8
:10128000C1F8A001FFF7A1FF4FF400710948FFF773
:101290008DFF08B1012400E0002400200349091F4C
:1012A0000860FFF792FF204610BD0000A481214294
:1012B00000802142000C01407CB50546EF208DF8EE
:1012C000000001208DF801001A480068000E8DF81A
:1012D000020018480068000C8DF8030015480088CB
:1012E000000A8DF80400134800788DF805000720E7
:1012F0008DF8060000208DF807000F49088012E0E5
:10130000012002F01FF90C48008800F4004050B1A1
:1013100000200949088069460848FEF737FF04465F
:101320000CB120467CBD681E80B2051EE8D100BF0E
:10133000F8E70000101100201A1100201C120020F4
:1013400010B50446412C24D108210846FFF7ECFCD7
:101350003D21112001F00CFB8621172001F008FB34
:101360007F21262001F004FB1E212D2001F000FB2F
:1013700000212C2001F0FCFA8D212A2001F0F8FA3E
:101380003E212B2001F0F4FA022002F001F900F0D6
:1013900034FB10BD00BF0549098801F04001002958
:1013A000F9D00249091D088070470000004800403C
:1013B00000BFFEE77047000070B5002100230F2238
:1013C000C47804B3154C246804F4E064C4F5E06404
:1013D000210AC1F10403CA40447804FA03F1847875
:1013E0001440214309010E4C0678A155047804F0FD
:1013F0001F050124AC4005786D11AD0005F1E02515
:10140000C5F8004109E0047804F01F050124AC4050
:10141000044D0678761145F8264070BD0CED00E0CD
:1014200000E400E080E100E002490143024A11606B
:10143000704700000000FA050CED00E010B5002038
:1014400000F001F810BD70B50646002415E004F167
:10145000B001C8B201F0D2FA002001F0CFFA10209A
:1014600001F0CCFA002504E0304601F0DDFA681CFA
:10147000C5B2822DF8DB601CC4B2082CE7DB70BD5E
:1014800010B5FFF7A9FEAE2001F0B8FA002001F078
:10149000B5FA102001F0B2FA402001F0AFFAB02006
:1014A00001F0ACFA812001F0A9FAFF2001F0A6FAC0
:1014B000A12001F0A3FAA62001F0A0FAA82001F0D3
:1014C0009DFA3F2001F09AFAC82001F097FAD32044
:1014D00001F094FA002001F091FAD52001F08EFA83
:1014E000802001F08BFAD82001F088FA052001F065
:1014F00085FAD92001F082FAF12001F07FFADA2092
:1015000001F07CFA122001F079FADB2001F076FA82
:10151000302001F073FA8D2001F070FA142001F0F0
:101520006DFAAF2001F06AFA10BD70B504460D46A1
:1015300005F1B001C8B201F061FAA11CC1F30311B9
:1015400041F0100001F05AFAA11C01F00F0141F026
:10155000010001F053FA70BD2DE9F04707468846B7
:101560001646002580E03078A02843DD00253AE0CB
:10157000702F04DD002708F1020000F0FF0830782A
:101580003C4911F8151088422CD17078012101EBEB
:101590004501384A515C884224D141463846FFF71C
:1015A000C4FF002406E004EB4511334A505C01F00F
:1015B0003BFA641C102CF6D308F10100C1B2384686
:1015C000FFF7B3FF002407E004EB451110312A4A6E
:1015D000505C01F029FA641C102CF5D307F11000BF
:1015E000C7B204E06D1C254800688542C0D300BF27
:1015F000B61C39E07A2F04DD002708F1020000F064
:10160000FF0831781E48FEF7DFFD8146B9F1000F73
:1016100029D041463846FFF788FF002409E099F8B1
:101620000010203904EB0111164A505C01F0FCF95E
:10163000641C082CF3D308F10100C1B23846FFF74F
:1016400074FF00240AE099F80010203904EB01111E
:1016500008310C4A505C01F0E7F9641C082CF2D305
:1016600007F10800C7B2761C307800287FF47BAF02
:10167000BDE8F0870C1000202C0600200C11002083
:10168000AB1000203C0000202DE9F04107460E463B
:10169000904600250024A8F12000C5B2812F02DD6C
:1016A0000027B01CC6B231463846FFF73EFF002483
:1016B00007E004EB05110E4A505C01F0B5F9601C1F
:1016C000C4B2082CF5DB701CC1B23846FFF72DFF01
:1016D000002408E004EB05110831054A505C01F0D4
:1016E000A3F9601CC4B2082CF4DBBDE8F081000053
:1016F0003C0000202DE9F0470546894690461E46ED
:10170000DDF820A000242FE0301B401EC1B20A20CB
:1017100002F040FBB8FBF0F00A21B0FBF1F201FB54
:101720001207A7B9BAF1000F08D0082101FB045134
:10173000C8B230224946FFF7A7FF07E0082101FBA6
:101740000451C8B220224946FFF79EFF0AE007F184
:101750003001CAB2082101FB0451C8B24946FFF763
:1017600093FF00BF601CC4B2B442CDDBBDE8F0877C
:101770002DE9F04104460D4600F073FC00F048FCF2
:10178000012000F068FC072000F073FC0C2000F042
:101790007AFC2012FFF7FEFDE0B2FFF7FBFD2812F6
:1017A000FFF7F8FDE8B2FFF7F5FD142000EB242069
:1017B000E1B2084400EB2520E9B200EB0108404605
:1017C00000F040FC4FF4FA60FFF776FD07460FB1DA
:1017D0007E7A00E0FF263046BDE8F08170B500F06B
:1017E00040FC00F015FC012000F035FC032000F067
:1017F00040FC0D2000F047FC1126304600F022FC92
:101800004FF4FA60FFF758FD05460DB16C7A00E021
:10181000FF24204670BD2DE9F041054600F021FC73
:1018200000F0F6FB012000F016FC042000F021FC83
:10183000022000F028FC2846FFF7ACFDEF1D3846DB
:1018400000F000FC4FF4FA60FFF736FD06460EB1DB
:10185000747A00E0FF242046BDE8F08170B500F006
:1018600000FC00F0D5FB012000F0F5FB032000F0A8
:1018700000FC012000F007FC0526304600F0E2FBEA
:101880004FF4FA60FFF718FD05460DB16C7A00E0E1
:10189000FF24204670BD2DE9F04781460D461646CF
:1018A0001F4600F0DEFB00F0B3FB012000F0D3FB8D
:1018B000082000F0DEFB1B2000F0E5FB4846FFF7A8
:1018C00069FD2812FFF766FDE8B2FFF763FD3012ED
:1018D000FFF760FDF0B2FFF75DFD09F1240000EBBA
:1018E0002520E9B2084400EB2620F1B200EB010A02
:1018F000504600F0A7FB4FF4FA60FFF7DDFC04460A
:1019000064B194F80980E07AA17A00EB0120388074
:10191000607B217B00EB0120788001E04FF0FF0825
:101920004046BDE8F08770B500F09BFB00F070FB0F
:10193000012000F090FB032000F09BFB032000F04F
:10194000A2FB0726304600F07DFB4FF4FA60FFF75C
:10195000B3FC05460DB16C7A00E0FF24204670BD53
:1019600070B500F07EFB00F053FB012000F073FB2C
:10197000032000F07EFB052000F085FB09263046A1
:1019800000F060FB4FF4FA60FFF796FC05460DB1DE
:101990006C7A00E0FF24204670BD2DE9F041064638
:1019A0000C4600F05EFB00F033FB012000F053FB1F
:1019B000062000F05EFB062000F065FB3046FFF7D6
:1019C000E9FC2012FFF7E6FCE0B2FFF7E3FC06F1CA
:1019D0000D0000EB2420E1B200EB0108404600F0CE
:1019E00031FB4FF4FA60FFF767FC07460FB17D7AD1
:1019F00000E0FF252846BDE8F08110B5142000F076
:101A00000DFA044604F0030018B90321142000F075
:101A1000C1FB10BDF0B587B0054600270821084678
:101A2000FFF782F900210D2000F0A2FF80210E2097
:101A3000FFF77AF993208DF8080020208DF809002F
:101A400001A802AB022202A900900C2000F01AF8B3
:101A5000064686B9002407E002A8005D285502A8C2
:101A6000005D4740601CC4B2042CF5DB02A8005D99
:101A7000B84200D0022680210E2000F08BFB3046B9
:101A800007B0F0BD2DE9FE4F0646884691469A46BE
:101A9000DDF830B0022002900020019000900C2E62
:101AA00006D00E2E09D1122001901020009005E0E2
:101AB000772001903020009000E000BF00BF019827
:101AC00040F08001022000F053FF80210420FFF746
:101AD0002BF90021012000F04BFF80210A2000F0AB
:101AE00059FB002505E018F80510092000F040FF1B
:101AF0006D1C4D45F7D33146012000F039FF0C2E07
:101B000003D180210D2000F045FB4FF47A7500BF12
:101B1000042000F083F904466D1E35B104F0010085
:101B200018B9009820400028F2D080210D20FFF73E
:101B3000FBF895B3062000F071F900F01B0068BBBC
:101B4000002002900198204000F0010008B101201F
:101B500002900C2E24D10A2000F060F904460C20DB
:101B600000F05CF900F007072FB1601E07EBC00022
:101B7000CBF8000002E0E000CBF8000004B901243B
:101B8000122C00DD1224002505E0092000F046F9A2
:101B90000AF805006D1CA542F7D301E0022002906F
:101BA00080210C2000F0F6FA0021012000F0E0FE78
:101BB0000298BDE8FE8F70B588B005460C46082136
:101BC0000846FFF7B1F807210D2000F0D1FE0321F0
:101BD000142000F0DFFA8DF80C5002A803AB0122AC
:101BE00003A900900C20FFF74DFF06464EB902985E
:101BF000102806D19DF80C0020709DF80D00607033
:101C000000E00226304608B070BD000010B54FF469
:101C100080711F48FFF7D5FA012001F0B9FC4FF49D
:101C200080711B48FFF7CBFA012001F0B1FC4FF4A3
:101C300080711748FFF7C5FA012001F0A9FC0F21B8
:101C4000012000F095FE00BF012000F0E7F800F051
:101C500010000028F8D1012001F09AFC3D2111204C
:101C600000F086FE1E212D2000F082FE00212C2097
:101C700000F07EFE8D212A2000F07AFE3E212B20EE
:101C800000F076FE4021152000F072FE10BD00002D
:101C9000000801407047000010B500F00FF94FF444
:101CA00080710748FFF78DFA4FF480510548FFF720
:101CB00088FAFFF7ABFF4120FFF742FB10BD0000A1
:101CC00000080140000C014029B1064AD2690243D4
:101CD000044BDA6104E0034AD2698243014BDA61C2
:101CE000704700000010024029B1064A1269024301
:101CF000044B1A6104E0034A12698243014B1A61E2
:101D0000704700000010024029B1064A9269024360
:101D1000044B9A6104E0034A92698243014B9A6141
:101D2000704700000010024029B1064AD268024301
:101D3000044BDA6004E0034AD2688243014BDA6064
:101D4000704700000010024030B50021002200243E
:101D500000232D4D6D6805F00C0121B1042905D03B
:101D6000082923D105E0294D056022E0274D0560B3
:101D70001FE0254D6D6805F47012234D6D6805F464
:101D80008034022505EB92421CB9214D5543056074
:101D90000BE01D4D6D6805F400351DB11C4D55431C
:101DA000056002E0194D5543056002E0174D0560DE
:101DB00000BF00BF144D6D6805F0F0010909154D15
:101DC0006B5C0568DD4045600F4D6D6805F4E061B2
:101DD000090A104D6B5C4568DD4085600A4D6D68F1
:101DE00005F46051C90A0B4D6B5C4568DD40C56068
:101DF000054D6D6805F44041890B074D6B5CC56866
:101E0000B5FBF3F5056130BD0010024000127A0009
:101E100000093D00280000203800002070B504466D
:101E20007E2000EA440040F080054FF480510848CD
:101E3000FFF7C5F9284600F0BBF800F08FF806461A
:101E40004FF480510248FFF7BCF9304670BD0000E6
:101E5000000C014008B501210846FFF755FF01219C
:101E60000C48FFF75BF901210820FFF74DFF082020
:101E7000ADF8000010208DF8030003208DF802005B
:101E800069460548FFF7BEF808210348FFF799F9AE
:101E900008BD000000023000000C014010B5082110
:101EA0000148FFF78EF910BD000C014010B5082164
:101EB0000148FFF784F910BD000C014008B501216D
:101EC0000C20FFF721FF4FF48050ADF800001020E8
:101ED0008DF8030003208DF8020069461D48FFF7C6
:101EE00091F84FF40050ADF8000010208DF8030079
:101EF00003208DF8020069461648FFF783F84FF477
:101F00008040ADF8000004208DF8030003208DF818
:101F1000020069460F48FFF775F84FF40040ADF82E
:101F2000000010208DF8030003208DF802006946A0
:101F30000848FFF767F84FF48070ADF800001020F4
:101F40008DF8030003208DF8020069460248FFF770
:101F500059F808BD000C01400008014070B500258B
:101F60001FE06006040E4FF400511048FFF727F9F8
:101F7000142001F00DFB4FF480410C48FFF716F9D7
:101F8000012801D144F00104142001F001FB4FF4B9
:101F900000510648FFF715F9142001F0F9FA681C02
:101FA000C5B2082DDDDB204670BD0000000C0140ED
:101FB00070B50446002524E004F0800028B14FF4F9
:101FC00000411148FFF7FDF804E04FF400410E48CE
:101FD000FFF7F5F8142001F0DBFA4FF400510A483E
:101FE000FFF7EDF8142001F0D3FA4FF40051064842
:101FF000FFF7E7F8142001F0CBFA6006040E681C26
:10200000C5B2082DD8DB70BD000C01407047000040
:1020100010B50B490968080EFFF7BCF908480068BD
:10202000C0F30740FFF7B6F905480088C0F3072062
:10203000FFF7B0F902490878FFF7ACF910BD0000CE
:102040001011002010B504462012FFF7A3F9E0B2EA
:10205000FFF7A0F910BD10B504462046FFF79AF926
:1020600010BD10B5EF20FFF795F90120FFF792F9A9
:1020700010BD10B50446C4F30720FFF78BF9E0B29A
:10208000FFF788F910BD10B504462046FFF782F926
:1020900010BD000001480078704700001C110020AE
:1020A00005480078012804D1002003490870012068
:1020B00070470020FCE700001D11002000B587B02C
:1020C00001218803FFF720FE01210420FFF71CFEF9
:1020D00018208DF81B004FF40070ADF81800032095
:1020E0008DF81A0006A92148FEF78CFF48208DF8CC
:1020F0001B004FF48060ADF8180003208DF81A0023
:1021000006A91A48FEF77EFF4FF4E1300290002046
:10211000ADF814000C20ADF812000020ADF810004E
:10212000ADF80E00ADF80C0002A9114800F052FB0A
:10213000012240F225510E4800F027FB4FF4A06029
:10214000FFF772F925208DF8040001208DF80700B3
:102150008DF805008DF8060001A8FFF72DF9012183
:10216000034800F080FA07B000BD000000080140FD
:102170000038014010B504462146054800F09BFB9D
:1021800000BF8021024800F0C9FA0028F9D010BD34
:102190000038014070B505460C462846FFF73EFE64
:1021A000064646EA0401284600F0E2FB70BD10B581
:1021B00000F002F810BD00000CB500200190009066
:1021C0003348006840F480303149086000BF30482F
:1021D000006800F4003000900198401C01900098C5
:1021E00018B90198B0F5A06FF1D12948006800F442
:1021F000003010B10120009001E000200090009814
:10220000012843D12348006840F0100021490860AC
:102210000846006820F0030008600846006840F0A7
:10222000020008601A48406819494860084640683A
:1022300048600846406840F480604860084640684E
:1022400020F47C1048600846406840F4E81048607C
:102250000846006840F08070086000BF0C480068C5
:1022600000F000700028F9D00948406820F0030011
:10227000074948600846406840F00200486000BFD7
:102280000348406800F00C000828F9D10CBD00009C
:1022900000100240002002407047042808D14FF08F
:1022A000E021096941F004014FF0E022116107E0EB
:1022B0004FF0E021096921F004014FF0E0221161A3
:1022C0007047704710B51348006840F0010011498D
:1022D000086008464068104908400E4948600846B2
:1022E00000680E4908400B4908600846006820F461
:1022F000802008600846406820F4FE0048604FF4E3
:102300001F008860FFF753FF4FF00060044908602A
:1023100010BD0000001002400000FFF8FFFFF6FEB5
:1023200008ED00E010B50121880700F050F870B109
:102330000748008840F400400549088001218807CB
:1023400000F036F800214FF0804000F034F810BD66
:102350001A1100207FB505460C4601210846FFF7FB
:10236000B3FCADF80450ADF800400020ADF8060015
:10237000ADF8020069464FF0804000F045F80122B8
:102380001146900700F034F80121880700F013F897
:102390001C208DF80C0000208DF80D0002208DF817
:1023A0000E0001208DF80F0003A8FFF705F87FBD90
:1023B000CA430282704721B1028842F001020280C2
:1023C00004E002884FF6FE731A400280704730B571
:1023D0000246002000230024158A05EA010395899E
:1023E00005EA010413B10CB1012000E0002030BD6A
:1023F0001AB183890B43838102E083898B438381F4
:102400007047818470470000002202881D4B98426B
:102410000ED01D4B98420BD0B0F1804F08D01B4B13
:10242000984205D01A4B984202D01A4B984204D1D8
:102430004FF68F731A404B881A43174B984207D0B8
:10244000164B984204D04FF6FF431A40CB881A43EC
:1024500002808B8883850B8803850A4B98420BD0BA
:10246000094B984208D00E4B984205D00D4B98422C
:1024700002D00D4B984201D10B7A0386012383824F
:1024800070470000002C014000340140000400406F
:1024900000080040000C0040001000400014004004
:1024A00000400140004401400048014010B540F2A6
:1024B0002551094800F03FF901280CD1064800F0E9
:1024C000F5F90649087001200549087040F22551C8
:1024D000014800F0B9F810BD003801401C1100207F
:1024E0001D1100202DE9FF4140F22551364800F032
:1024F00022F9012866D1344800F0D8F9C4B20A2C78
:1025000051D100213148324A127881542C21FDF7F3
:102510005BFE0546002D3ED02C482E1A102E07D209
:10252000324601462B48FDF743FE002029498855D5
:102530000F22691C2848FDF73BFE00202649C8737E
:102540000090019002900390002700BF19E02249FB
:10255000095C302903DB2049095C392907DD1E4964
:10256000095C2B2903D01C49095C432905D11A4970
:102570000B5C39467F1C0DF801300F2F00D304E0AF
:10258000401C1549095C0029E1D100BF6946124889
:10259000FDF73FFE00BF00200D49087020210B48C9
:1025A000FDF7E9FD0DE00D2C0BD0094800781F2840
:1025B00007D2074801780078401C054A107003488C
:1025C000445400BFBDE8FF8100440040FC110020DE
:1025D0000C000020DC110020EC11002010B540F2AE
:1025E0002551164800F0A7F800B3144800F05EF932
:1025F000C4B21348008800F40040B8B910480088FD
:10260000B0F5C87F13DA00214FF08040FFF7F9FEE4
:102610000B48008818B901218807FFF7CCFE08494C
:102620000888411C064A118006490C5405E00448FC
:10263000008840F400400249088010BD0048004076
:102640001A1100201C12002010B50022002340F6B1
:102650006A14A14200D100BF0A1201249440A3B21F
:10266000DC43048010BD21B1828942F40052828192
:1026700004E082894DF6FF731A40828170470000A2
:1026800010B504462048844209D101218803FFF790
:102690004BFB00214FF48040FFF746FB32E01B4824
:1026A000844209D101214804FFF71EFB00214FF4A9
:1026B0000030FFF719FB25E01548844209D10121BC
:1026C0008804FFF711FB00214FF48020FFF70CFB7B
:1026D00018E01048844209D10121C804FFF704FB27
:1026E00000214FF40020FFF7FFFA0BE00A48844274
:1026F00008D101210805FFF7F7FA00214FF48010F7
:10270000FFF7F2FA10BD000000380140004400401D
:1027100000480040004C00400050004002460020AD
:10272000B1F5007F00D100BF13880B400BB1012031
:1027300000E00020704770B5024600240023002509
:10274000002040F66A16B14200D100BFC1F3421525
:1027500001F01F03012606FA03F3012D02D1968929
:10276000334006E0022D02D1168A334001E0968AFA
:1027700033400C12012606FA04F41688344013B1D3
:102780000CB1012000E0002070BDF0B5034600242C
:1027900000260025002040F66A17B94200D100BF8C
:1027A0001846C1F3421401F01F06012707FA06F587
:1027B000012C01D10C3004E0022C01D1103000E0DA
:1027C00014301AB107682F43076002E00768AF436F
:1027D0000760F0BD2DE9F04786B005460E4600249F
:1027E000A24600BFA1460027B08900B100BF2F4616
:1027F0002C8A4CF6FF700440F08804432C82AC898C
:102800004EF6F3100440B0883189084371890843BB
:102810000443AC81AC8A4FF6FF400440B0890443C6
:10282000AC8201A8FFF790FA1F48874202D1DDF879
:1028300010A001E0DDF80CA0A88900F4004040B130
:102840000AEBCA0000EB0A1031684900B0FBF1F84E
:1028500007E00AEBCA0000EB0A1031688900B0FB00
:10286000F1F86420B8FBF0F004012009642101FBB9
:102870001089A88900F4004040B1322000EBC90063
:10288000B0FBF1F000F00700044308E0322000EB59
:1028900009106421B0FBF1F000F00F0004432C811B
:1028A00006B0BDE8F0870000003801400146888886
:1028B000C0F308007047C1F308028280704700BF70
:1028C000FEE7000000B587B001210420FFF71CFAE5
:1028D00001214804FFF7F8F90420ADF8180018208A
:1028E0008DF81B0003208DF81A0006A91E48FEF77C
:1028F00089FB0820ADF8180004208DF81B0006A9FC
:102900001948FEF77FFB4FF4E13002900020ADF84C
:1029100014000C20ADF812000020ADF81000ADF846
:102920000E00ADF80C0002A91048FFF753FF01227A
:1029300040F225510D48FFF728FF4FF4A060FEF745
:1029400073FD26208DF8040001208DF805008DF818
:1029500006008DF8070001A8FEF72EFD01210348AF
:10296000FFF781FE07B000BD0008014000440040B1
:1029700070B504460D467E2000EA44064FF48051AF
:102980000748FEF71CFC3046FFF712FB2846FFF70E
:102990000FFB4FF480510248FEF713FC70BD00009E
:1029A000000C014070B50446002520E004F08000D2
:1029B00018B101200F49086002E000200D490860AD
:1029C000FEF703FC01200B49091F0860FEF7FDFB21
:1029D00000200949C1F8A001072D02D101200549B5
:1029E00008606006040EFEF7F0FB681CC5B2082DF7
:1029F000DCDB70BDA48121420080214210B5044679
:102A0000FEF70AFC7820FFF7CDFFFEF731FC00202F
:102A1000FFF7C8FFFEF72CFC2046FFF7C3FFFEF7C9
:102A200027FCFEF713FC10BD10B50446FEF7F4FBBF
:102A30007820FFF7B7FFFEF71BFC4020FFF7B2FF3F
:102A4000FEF716FC2046FFF7ADFFFEF711FCFEF780
:102A5000FDFB10BD0FB4084B10B504A902AA0398E2
:102A600000F0DEF8044602A9002000F070FC2046C9
:102A700010BC5DF814FB00004F33000802E008C8EA
:102A8000121F08C1002AFAD170477047002001E0E8
:102A900001C1121F002AFBD1704700002DE9FF5F22
:102AA00082B00021DDE90430020DDDF840B00343BF
:102AB00018D044F61050A2F2FF3242431514119878
:102AC00001281FD0A5EB0B00401C5FEA000A4FF065
:102AD00000064E4FDFF83891B046504615D5CAF182
:102AE000000413E0119801244AA3012801D16FEAE0
:102AF0000B010298119AC0E90031C0E9024206B008
:102B0000BDE8F09FCBF10000DFE704460021404A1A
:102B1000491842EB0450CDE9001012E0E00707D05D
:102B200032463B4640464946FDF76AFC80468946A8
:102B300032463B4610461946FDF762FC06460F46F4
:102B40006410002CEAD1DDE90401DDE90023BAF1CB
:102B5000000F06DAFDF754FC42464B46FDF750FCE9
:102B600005E0FDF7BFFC42464B46FDF7BBFC0446C3
:102B70000E460022284BFDF73DFD03D84FF0FF30F5
:102B8000014607E00022254B20463146FDF791FB28
:102B9000FDF717FD102409E0002C0ADB0A220023B0
:102BA000FDF756FB039B30321A55641E50EA0102B2
:102BB000F2D1641C039AC4F111031444119A012A3E
:102BC00003D0012208430DD10AE0084304D00020BD
:102BD0004FF0110B119072E7A3EB0B056D1E0DE08A
:102BE0005B4504DD4FF0000205F1010504E003DA66
:102BF0004FF00002A5F10105002AECD002981199CE
:102C0000C0E90231C0E9004579E700000000144046
:102C10000000F03F300000000000F0430000E03F03
:102C20002DE9FF4F95B09B468946064600250FE2E9
:102C3000252877D100242746F84A0121059400E091
:102C4000044316F8013F203B01FA03F01042F7D18C
:102C500030782A2811D06FF02F033078A0F130029D
:102C6000092A16D8059A44F0020402EB820203EB0B
:102C700042021044761C0590EFE759F8042B0592A8
:102C8000002A03DA504244F40054059044F0020450
:102C9000761C30782E2816D116F8010F44F0040463
:102CA0002A280DD06FF02F023078A0F13003092BC5
:102CB00009D807EB870302EB4303C718761CF3E739
:102CC00059F8047B761C30786C280FD006DC4C2831
:102CD00017D068280DD06A2814D104E0742810D0C9
:102CE0007A280FD10DE044F400140AE044F4801473
:102CF00001E044F440147278824202D104F5801459
:102D0000761C761C307866280BD013DC582877D0D8
:102D100009DC002875D04528F6D04628F4D047288D
:102D20001AD19DE118E0632835D0642879D0652850
:102D300012D195E1702873D008DC6728F1D069289A
:102D40006FD06E280DD06F2806D1B5E073282CD037
:102D5000752875D0782874D05A46179990476D1CFD
:102D600075E1C4F30250022809D003280DD0D9F828
:102D7000001004280DD00D6009F1040967E1D9F8AD
:102D80000010EA17C1E90052F6E7D9F800100D80EB
:102D9000F2E70D70F0E719F8041B8DF80010002021
:102DA0008DF80100EA46012003E059F804AB4FF02A
:102DB000FF3061074FF0000102D40DE008F101017E
:102DC0008846B9420FDA8045F8DB1AF80810002966
:102DD000F4D108E008F1010188468142FADB1AF8D3
:102DE00008100029F6D105985B46A0EB080721469C
:102DF0003846179A00F094FA284400EB080507E0DB
:102E00004DE029E10DE01AF8010B5A461799904759
:102E1000B8F10108F7D25B4621463846179A13E10C
:102E200042E00A220092C4F302524FF0000A022A42
:102E300008D059F804CB032A4FEAEC710AD00DE010
:102E400029E02AE009F1070121F00702F2E802C1B6
:102E5000914609E00FFA8CFC4FEAEC71042A03D189
:102E60004FFA8CFC4FEAEC71002907DA0A46002180
:102E7000DCF1000C61EB02012D2202E0220504D5F9
:102E80002B228DF80420012203E0E20701D020224A
:102E9000F7E7904659E00A2102E010220DE01021E8
:102EA0004FF0000A00910BE010224FF0000A44F0AE
:102EB00004040827009203E008224FF0000A009261
:102EC000C4F30252022A05D059F804CB0021032A88
:102ED00008D009E009F1070121F00702F2E802C178
:102EE000914605E01FFA8CFC042A01D10CF0FF0C7E
:102EF0004FF00008220728D5702806D0009B83F0E9
:102F0000100353EA0A0305D00EE040228DF8042096
:102F1000012208E05CEA010206D030228DF804208C
:102F20008DF8050002229046009B83F0080353EAC7
:102F30000A030AD15CEA010201D1620705D53022F9
:102F40008DF804204FF001087F1E582804D034A0CB
:102F500003900EA802900DE036A0F9E753466046B4
:102F6000009AFDF775F984460398825C0298401E2A
:102F7000029002705CEA0100F0D1029806A9081ADA
:102F800000F1200A600702D524F4803400E0012714
:102F9000574502DDA7EB0A0000E0002000EB0A0124
:102FA000009005984144401A0590E00306D45B4622
:102FB0002146179A059800F0B3F90544002706E06A
:102FC00001A85A46C05D179990476D1C7F1C474564
:102FD000F6DBE0030CD55B462146179A059800F016
:102FE0009FF9054404E030205A46179990476D1C1C
:102FF0000099481E00900029F5DC08E0029802992B
:103000005A460078491C0291179990476D1CBAF1F5
:103010000001AAF1010AF1DC65E1000009280100C4
:10302000303132333435363738396162636465663E
:103030000000000030313233343536373839414200
:10304000434445460000000000F058F90544761C52
:10305000307800287FF4ECAD19B02846BDE8F08F39
:10306000620700D4062709F1070222F0070CFCE8EA
:103070000223E14603F000485FEA080C02D00FF299
:10308000702C0DE05FEA045C02D50FF2682C07E0BB
:103090005FEAC47C02D00FF2602C01E0AFF2700C4A
:1030A0004FF0FF3823F00043CDF850C065280CD016
:1030B00006DC452809D046281DD047283DD13DE0F3
:1030C000662818D067287ED138E00021112F01DB57
:1030D000112000E0781CCDE9000106A90EA8FFF739
:1030E000DDFCDDE90F010E9A03910021009207F14A
:1030F000010A04914DE04FF000400097CDE9011026
:1031000006A90EA8FFF7CAFCDDE90F0203920E9B89
:1031100011990022DDF80CA00093049211B9791CDA
:1031200000EB010AB7EB0A0004D4C0F1FF3007F14D
:10313000010A0490AAEB0700019044E0012F00DA95
:1031400001270021112F01DD112000E03846CDE9D3
:10315000000106A90EA8FFF7A1FCDDE90F010E9AF8
:103160000391002104910092BA4621070CD40399DF
:10317000514500DA8A46BAF1010F05DD009AAAF13D
:103180000101515C302908D0B84202DA10F1040F75
:1031900006DA0121CDE9011015E0AAF10101E9E704
:1031A000002805DC049901440491AAEB000102E027
:1031B000411C514500DD8A460499401A401C01908B
:1031C0004FF000400290200704D40198504501DBE5
:1031D000CDF8048000208DF84F0002980DF14F07C4
:1031E000B0F1004F25D02B200E9002984FF002082E
:1031F00000280CDA404202902D200E9007E00A21B0
:103200000298FDF70FF83031029007F8011DB8F170
:103210000001A8F10108F2DC02980028EFD1791E24
:103220000E980870307800F0200040F0450007F854
:10323000020D12A8C01B00F107081498007800B115
:10324000012000EB0A01019801EBE071059841446F
:10325000401A401E0590E00306D45B462146179AAB
:10326000059800F05DF805441498007818B15A46A6
:10327000179990476D1CE00324D55B462146179AA9
:10328000059800F04DF805441CE00498002807DB81
:10329000DDE90301884203DD0098405C179901E0F5
:1032A000179930205A469047049805F10105401CB3
:1032B00004900198401E019004D12E205A4617997F
:1032C00090476D1CBAF10001AAF1010ADDDC05E0AE
:1032D00017F8010B5A46179990476D1CB8F1000179
:1032E000A8F10108F4DC5B462146179A0598ABE685
:1032F0002D0000002B000000200000002DE9F0410F
:10330000044600251E461746880404D405E03946C5
:103310002020B0476D1C641EF9D52846BDE8F08119
:103320002DE9F041044600251E469046C80301D50C
:10333000302700E02027880404D505E041463846C0
:10334000B0476D1C641EF9D52846BDE8F0810A68B7
:10335000531C0B601070704770B5FEF76FF825A214
:1033600000210846FEF7F8F826A202210020FEF709
:10337000F3F828A206210020FEF7EEF837E0FDF76B
:1033800031FC04460F2C0BD1FEF758F824A2002183
:103390000846FEF7E1F84FF47A7000F0D3F827E022
:1033A00023495220FEF707FCE8B92248FEF732FB1A
:1033B000C8B9204800F040F805464FF4FA6000F024
:1033C000C1F8FEF73BF80BA200210846FEF7C4F84F
:1033D0000CA202210020FEF7BFF80EA20621002059
:1033E000FEF7BAF800BF322000F0ACF800BFC6E725
:1033F00000BF70BD4164642063617264206D6F64BE
:1034000065000000537769706520636172642E2E39
:103410002E0000004B31353A455849540000000059
:103420004578697420616464206D6F6465000000F4
:10343000601100206211002070B50546002415E0DF
:10344000224800EB840104222846FCF7D5FE60B92F
:10345000FDF7F4FF1EA200210846FEF77DF841F2B9
:10346000883000F06FF8002070BD641C1C480078A4
:103470008442E5DB1A4800780A2818DA134818490C
:10348000097800EB81002968016015480078401C2C
:1034900013490870FDF7D2FF12A200210846FEF77B
:1034A0005BF841F2883000F04DF80120DCE7FDF7D1
:1034B000C5FF0FA200210846FEF74EF841F2883002
:1034C00000F040F84FF0FF30CEE70000B1110020CF
:1034D000416C72656164792045786973747300008A
:1034E000D911002043617264204164646564210045
:1034F00043617264204C6973742046756C6C0000E3
:1035000010B56FF00400FEF7C8FE0A4800680A49CB
:10351000B0FBF1F0094908700846007800EB400163
:10352000C1EBC0104FF6FF7101EAC00004490880EA
:1035300010BD00001000002000127A0024000020BE
:10354000260000200146114A12884A434FF0E0232A
:103550005A6100229A611A46126942F001021A6108
:1035600000BF4FF0E022106900F001021AB100F430
:103570008032002AF5D04FF0E022126922F00102D9
:103580004FF0E0231A6100229A6170472600002064
:103590000146114A12784A434FF0E0235A61002253
:1035A0009A611A46126942F001021A6100BF4FF097
:1035B000E022106900F001021AB100F48032002A02
:1035C000F5D04FF0E022126922F001024FF0E02323
:1035D0001A6100229A6170472400002070B50546E8
:1035E000002600240AE01D4800EB8401042228463E
:1035F000FCF702FE08B9012604E0641C18480078B4
:103600008442F0DB00BFE6B1144800EB84011448AB
:103610000078401E114A02EB8000006808601048E4
:103620000078401E0E490870FDF708FF0DA200212A
:103630000846FDF791FF41F28830FFF783FF012034
:1036400070BDFDF7FBFE0BA200210846FDF784FFCD
:1036500041F28830FFF776FF0020F1E7B11100203A
:10366000D9110020436172642044656C65746564FF
:103670002100000043617264204E6F7420466F7514
:103680006E64000070B5FDF7D9FE25A20021084642
:10369000FDF762FF27A202210020FDF75DFF29A2AE
:1036A00006210020FDF758FF37E0FDF79BFA04469E
:1036B0000F2C0BD1FDF7C2FE25A200210846FDF715
:1036C0004BFF4FF47A70FFF73DFF27E0244952206B
:1036D000FEF771FAE8B92348FEF79CF9C8B921480A
:1036E000FFF77CFF05464FF4FA60FFF72BFFFDF76D
:1036F000A5FE0BA200210846FDF72EFF0DA2022118
:103700000020FDF729FF0FA206210020FDF724FF6E
:1037100000BF3220FFF716FF00BFC6E700BF70BD35
:1037200044656C6574652063617264206D6F6465C7
:1037300000000000537769706520636172642E2E6B
:103740002E0000004B31353A455849540000000026
:10375000457869742064656C206D6F6465000000B5
:10376000601100206211002010B50D490A78302A3E
:1037700001DB392A05DD0BA10B6803608988818094
:103780000AE0002106E0094C04EB410393F8003CF9
:103790004354491C0629F6DB0021817110BD00004D
:1037A00000FC0008313233343536000000F00008E8
:1037B00070B50546FDF7FAFB0948FDF78DFB0024BF
:1037C00009E0285D40EA0026054901EB4400314646
:1037D000FDF7CCFB641C062CF3DBFDF7BDFB70BDD5
:1037E00000FC00082DE9F04105460026002406E013
:1037F000E106080E16A20221FDF7AEFE641C062C9F
:10380000F6DB1FE000BFFDF7EDF90746002FFAD009
:10381000384600F0B5F80446582C0AD03046711CE2
:10382000CEB22C54711EC906080E0AA20221FDF761
:1038300093FE00BFFDF7D6F90028FBD11420FFF757
:1038400081FE00BF062EDDDB0020A871BDE8F081FF
:10385000200000002A00000070B5FDF7EFFD32A245
:1038600000210846FDF778FE33A206210020FDF76F
:1038700073FE57E0FDF7B6F905460F2D0CD1FDF7A5
:10388000DDFD30A200210846FDF766FE41F28830DA
:10389000FFF758FE002070BD2E495220FEF78BF92D
:1038A00000283BD12C48FEF7B5F8002836D1002679
:1038B000002415E0294800EB840104222648FCF787
:1038C0009BFC60B9FDF7BAFD25A200210846FDF773
:1038D00043FE41F28830FFF735FE0120DBE7641C30
:1038E000224800788442E5DB00BF56B9FDF7A6FD0B
:1038F0001FA200210846FDF72FFE41F28830FFF796
:1039000021FEFDF79BFD08A200210846FDF724FEDD
:1039100009A206210020FDF71FFE00BF3220FFF79D
:1039200011FE00BFA6E70000506C6561736520635F
:103930006172642E2E2E00004B31353A45584954A1
:1039400000000000457869742063617264206D6F27
:10395000646500006011002062110020B111002098
:10396000556E6C6F636B204F4B000000D911002027
:103970004163636573732044656E6965640000008C
:103980000146002904DB092902DC01F1300000E0D6
:103990005820C0B270470000FDF728FBC7490860F7
:1039A0004FF4A060FDF740FDFFF7AAFD4FF4614022
:1039B00000F05EFCFEF74EFAFDF7A0F8FDF7C8F840
:1039C000FDF75EFDFDF73AFDFEF778FBFEF764F9C3
:1039D000FEF778FF01210846FEF796F90121B84865
:1039E000FDF79CFB69E10027B6A200211020FDF73E
:1039F000B3FDB8A202211020FDF7AEFDB9A204214B
:103A00001020FDF7A9FDBBA206211020FDF7A4FDA3
:103A10000026C9E0ABA200211020FDF79DFDADA25C
:103A200002211020FDF798FDAEA204211020FDF721
:103A300093FDB0A206211020FDF78EFDFDF7D2F810
:103A4000C4B2102C20D1FDF7F9FCAD48007800F08D
:103A5000D9FA08B10126A7E0FDF7F0FC99A20021F0
:103A60001020FDF779FD9BA202211020FDF774FDC7
:103A70009CA204211020FDF76FFD9EA206211020BC
:103A8000FDF76AFD00268FE00E2C05D100F0D4F979
:103A90000028BED0012687E00C2C39D1FDF7CEFCE2
:103AA00098A200210846FDF757FD98A204210020A6
:103AB000FDF752FD97A206210020FDF74DFD0025E0
:103AC00008E097494A19E9002D31C8B20021FDF7F5
:103AD00043FD6D1C9248405D0028F2D1002508E0AE
:103AE00090494A19E9002D31C8B20421FDF734FD8F
:103AF0006D1C8C48405D0028F2D107E0FDF772F89C
:103B0000C4B20F2C02D1FDF799FC00E0F6E74BE0C0
:103B10000A2C49D1FFF7A0FE054641F28830FFF795
:103B200011FD4DB3FDF78AFC7FA200210846FDF789
:103B300013FD41F28830FFF705FD07F13101C8B2EE
:103B4000FEF718FB16E0FEF7ABFA012811D1FEF7DD
:103B5000A1FA31280DD1FEF7A9F9FDF76FFC75A286
:103B600000210846FDF7F8FC41F28830FFF7EAFC37
:103B700001E00126E7E716E0FDF760FC51A2002115
:103B80001020FDF7E9FC53A202211020FDF7E4FC10
:103B900054A204211020FDF7DFFC56A206211020BC
:103BA000FDF7DAFC002600BF002E3FF433AFFDF72F
:103BB00045FC63A200211020FDF7CEFC63A2022188
:103BC0001020FDF7C9FC65A204211020FDF7C4FCFC
:103BD00066A206211020FDF7BFFC6BE0FDF702F89E
:103BE000C4B2012C04D1FDF729FCFCF7EBFD49E040
:103BF000032C04D1FDF722FCFDF7A4F842E00E2CC3
:103C000002D100F0D3F83DE0082C04D1FFF7A4FB6B
:103C1000FDF714FC36E0092C04D1FFF733FDFDF766
:103C20000DFC2FE00F2C2DD10026FDF707FCFDF732
:103C300005FC52A200210846FDF78EFC41F28830B7
:103C4000FFF780FC07F13001C8B2FEF793FA15E0E8
:103C5000FEF726FA012811D1FEF71CFA30280DD103
:103C6000FEF71CF9FDF7EAFB47A200210846FDF725
:103C700073FC41F28830FFF765FC00E0E8E700BF25
:103C8000FDF7DCFB7820FFF75DFC9EB12CA2002144
:103C90001020FDF761FC2DA202211020FDF75CFC35
:103CA0002EA204211020FDF757FC30A2062110207F
:103CB000FDF752FC002E91D100BF94E60C110020BC
:103CC000000230004B313220CCECC6F8CFD4CABE53
:103CD000000000004B313620D6B8CEC6D1E9D6A4BC
:103CE000000000004B313420C3DCC2EBD1E9D6A484
:103CF000000000004B3130204E4643D1E9D6A400ED
:103D000000000020CCECC6F83A000000CEC2B6C8D5
:103D10003A0000004B313520B7B5BBD80000000099
:103D2000DC110020EC110020D5FDD4DABFAACBF8BD
:103D30002E2E2E00BFAACBF8B3C9B9A62E000000C4
:103D40004B313420B8C4C3DCC2EB00004B312F33FD
:103D5000CCED2FC9BED6B8CEC60000004B382F39E7
:103D6000CCED2FC9BE4E4643000000004B3135CD8F
:103D7000CBB3F6B2A2B9D8CBF8000000D5FDD4DAA7
:103D8000B9D8CBF82E2E2E00B9D8CBF8B3C9B9A626
:103D90002E00000010B50246012000E050430B1E2B
:103DA000A1F10104E1B2F9D110BD00001FB5FDF78A
:103DB00045FB16A200210846FDF7CEFB02A8FFF73F
:103DC00011FDFDF73BFB13A200210846FDF7C4FBE4
:103DD0006846FFF707FD694602A8FCF7FFF940B9FE
:103DE00002A8FFF7E5FC0EA204210020FDF7B4FBBA
:103DF00004E00EA204210020FDF7AEFB4FF4487052
:103E0000FFF7A0FBFDF71AFB1FBD0000D0C2C3DC0B
:103E1000C2EB3A00D4D9B4CECAE4C8EB3A000000F1
:103E2000D0DEB8C4B3C9B9A600000000C1BDB4CE8D
:103E3000B2BBD2BBD6C2000030B585B0002503A806
:103E4000FFF792FCFDF7FAFA48A200210846FDF7B9
:103E500083FB49A206210020FDF77EFB01200346DB
:103E600000904848027806214E20FDF743FC01A847
:103E7000FFF7B8FC01A903A8FCF7B0F9002833D17B
:103E800041A20421FDF768FB4FF44870FFF75AFB8D
:103E9000FDF7D4FA3FA200210846FDF75DFB41F291
:103EA0008830FFF74FFB05F13101C8B2FEF762F928
:103EB00015E0FEF7F5F8012811D1FEF7EBF83128EF
:103EC0000DD1FDF7F3FFFDF7B9FA35A20021084641
:103ED000FDF742FB41F28830FFF734FB00E0E8E7F2
:103EE00000BF012005B030BD30A204210020FDF745
:103EF00033FB24480078022805DA22480078401C69
:103F00002049087016E000201E490870FDF796FA57
:103F100029A202211020FDF71FFBFCF70FFE002451
:103F200004E041F28830FFF70DFB641C0F2CF8DB36
:103F3000FCF7FCFD4FF44870FFF704FBFDF77EFA39
:103F400021A200211020FDF707FB23A2022110204F
:103F5000FDF702FB24A204211020FDF7FDFA26A2A2
:103F600006211020FDF7F8FA0020BBE7CAE4C8EBF1
:103F700036CEBBC3DCC2EB00CAE4C8EBB4CECAFD8C
:103F80003A00000000000020C3DCC2EBD5FDC8B73A
:103F900000000000D5FDD4DABFAACBF82E2E2E00EB
:103FA000BFAACBF8B3C9B9A62E000000C3DCC2EB90
:103FB000B4EDCEF300000000CBF8B6A8B1A8BEAFB8
:103FC000D6D02E2E2E0000004B313220CCECC6F87D
:103FD000CFD4CABE000000004B313620D6B8CEC6C2
:103FE000D1E9D6A4000000004B313420C3DCC2EB81
:103FF000D1E9D6A4000000004B3130204E4643D119
:10400000E9D6A4002DE9F04387B081460026FDF7EC
:1040100021FFFCF773FDFDF711FA66A202212020B3
:10402000FDF79AFA0027C3E0FCF7DCFD00F0FF087B
:10403000B8F1010F03D1384607B0BDE8F083FDF7B2
:104040000DFC0446002C7DD10120FDF7E4FB044665
:10405000002C78D106AB632200210120FDF71BFC68
:104060000446002C3CD156A20221FDF775FABDF89A
:104070001A30BDF8182057A101A8FEF7EBFC01AAE1
:1040800004210020FDF768FAFDF7D8F955A20021B8
:104090000846FDF761FA41F28830FFF753FA06F15E
:1040A0003101C8B2FEF766F815E0FDF7F9FF012807
:1040B00011D1FDF7EFFF31280DD1FDF7F7FEFDF728
:1040C000BDF94BA200210846FDF746FA41F28830BF
:1040D000FFF738FA00E0E8E700BF01273846ABE712
:1040E00046A204212020FDF737FA40F2DC50FFF70A
:1040F00029FA45480078022805DA43480078401C30
:104100004149087032E000203F490870FDF796F9F8
:104110003EA202211020FDF71FFAFCF70FFD00253B
:1041200004E041F28830FFF70DFA6D1C0F2DF8DB2B
:10413000FCF7FCFCFDF782F938A200211020FDF706
:104140000BFA01E030E015E038A202211020FDF763
:1041500003FA3AA204211020FDF7FEF93BA2062142
:104160001020FDF7F9F90027384665E74FF448704D
:10417000FFF7E8F9FDF762F90EA202212020FDF712
:10418000EBF935A200212020FDF7E6F935A2062142
:104190000020FDF7E1F90120034600901A4802785B
:1041A00006214E20FDF7A6FA3220FFF7CBF900BF1B
:1041B0003AE70000C7EBB0B4CAD6D6B8000000009A
:1041C0002020D6B8CEC6D1E9D6A4B3C9B9A620203E
:1041D000000000002049443A256420B5C3B7D63A10
:1041E00025642000D5FDD4DABFAACBF82E2E2E00F0
:1041F000BFAACBF8B3C9B9A62E000000D1E9D6A456
:10420000CAA7B0DC0000000000000020CBF8B6A870
:10421000B1A8BEAFD6D02E2E2E0000004B313220DA
:10422000CCECC6F8CFD4CABE000000004B3136201B
:10423000D6B8CEC6D1E9D6A4000000004B31342058
:10424000C3DCC2EBD1E9D6A4000000004B31302022
:104250004E4643D1E9D6A400B0B44B31B7B5BBD874
:1042600000000000CAE4C8EBB4CECAFD3A0000006A
:1042700010B586B0044601210820FDF745FD012157
:104280008804FDF721FD2948FEF7FAF94FF4806014
:10429000ADF8140003208DF8160018208DF81700D3
:1042A00005A92348FCF7AEFE4FF40060ADF81400FA
:1042B00004208DF8170005A91D48FCF7A3FE019402
:1042C0000020ADF80800ADF80A00ADF80C00ADF81C
:1042D00010000C20ADF80E0001A91448FEF77AFA80
:1042E000012240F225511148FEF74FFA01210F48F3
:1042F000FEF7B9F927208DF8000002208DF80100A3
:1043000003208DF8020001208DF803006846FDF7B8
:1043100053F841F61F416320FEF71CF800214FF0CF
:104320008040FEF748F806B010BD0000004800408D
:10433000000C01405443000800000020DC11000084
:1043400064070008F44F0008DC1100207407000027
:104350008C2A0008E200016004A24A040BA00901B3
:1043600002030406070809106114F0050204060898
:104370003C50040000F8463233061004100C0603CB
:10438000715B200440C07803200500043F04031043
:104390000800007088FC08302E100E1820FF211E27
:1043A0000000F008F000E0183E4005211C031E113B
:1043B0001388700FE00C1E212324192721101016DA
:1043C0000E702005E01804026A300B071820400028
:1043D00000020418E069200420180770300E4080A5
:1043E000F0804040000202010F01022832F0C810A4
:1043F0000401011F0471F3C40480B0700442010180
:1044000071B98330302C3008601804006018063E03
:104410001006E0100808107210070F102020100F6F
:10442000F0461000100620203F20202D3004700898
:1044300008C210063028242221E910063008888896
:10444000480820061820202011CC33C02032140741
:10445000070424243F243E11201608574319212025
:104460002405E010888810430F111034063808081E
:10447000C83877323F8D4370886080071C22212125
:10448000221C9010060031222211901161C2C0C27C
:104490006280C65108100440201070140701020405
:1044A00008102030310143000401130000152240A0
:1044B000321125130402F2137048D13543133036FC
:1044C0000F1406C030C828E8002008071827242346
:1044D000140B6F22387E200D203C23020227382047
:1044E00008F88888FF250E21D017C030102708381B
:1044F000AD15303406080008F80840312015402179
:10450000303004E8081030A00423201810230003E2
:104510005E21403638ED200520221E024011A410F5
:1045200009F808203F2101012125220852958051D8
:10453000112006C08080807F0E2007F888C02818D0
:104540000870400501263820405200A0132030207A
:104550001004F800F85417203F60214F4004F83051
:10456000C0601220E4363F5F21B025EF41B021D07A
:1045700033F0008083010020300718242438504F86
:10458000C0250131C034040C3020B021C13738209F
:10459000B032189F42188231A041D023001F9034BE
:1045A000081F000878880000F1100407380E601119
:1045B0009B12F8B5401D00033C0700073C030008B0
:1045C0001868808068180820302C03032C302008DD
:1045D00038C82F5150218F213F18042038265129E7
:1045E000494C0400FE020803267FE85804000C3002
:1045F0001F1805000106382A111D3EFEA903274099
:104600004030100400000412FE042304528001F222
:10461000001D311619C01806242222223F00320044
:104620000F5B003FC0312119D01A0ED04320114B2F
:104630004388F8102210B35140121F3F2322131E4B
:104640001AF0428618D041772408006B9494949312
:10465000600B310F158041F3BC04809898800352A1
:1046600000125901153B31311406203F24022D8FD1
:104670002930ADB00361D7214B2103112BC16071EB
:10468000A045A031202D400493FFA1E04280E033FB
:10469000A0FF4C315019A18004200001C013332425
:1046A000012219E046E02125F252004D42806015BA
:1046B0001031EC25681C05010E30087204217025AC
:1046C0006318040F300C4F320F2C41A16007312EBC
:1046D0000E312000303C0580818E70A20455A73C2D
:1046E000050021302C8004215F4A7C012B003F0112
:1046F0005C040000FFB9053108340402027CB04FAD
:10470000404060041E0236054D60054DCF0518146B
:104710001010FF1090003F48484444444270000489
:1047200044827F9723FF490111411C052030AC636F
:1047300012054C04F8090E8803140E226722129207
:104740008040211608162140081C0E1010D0FF9042
:1047500014E4AFA4A4A4AFE45F0413040377240A11
:10476000894B2A1A0E1A2A4B88281C0520FF202064
:10477000530337FF089A1C201030100F884821116E
:104780000D030D11214181004030EF242480E49C71
:10479000105454FF547C10C8051C1E7F215126184C
:1047A000274445455F454544001060028C00109247
:1047B00052321E3252921210C804400E7E01002165
:1047C0001840807F0830040931C01E10C00442F830
:1047D0006010058040300F1D1D0E03117A11074037
:1047E0000680FE8282FE051D690317FF0006300564
:1047F00020BF403F23224F281C0CFE225A86201047
:104800002824E32428F20511FA100B040827110DBF
:1048100041817F01055F20040002FA401C0840200E
:10482000504C434C5090061C1008184884443F409C
:104830004458414E6058474090061342CCF64C0510
:10484000C40404FC60051D1A031C041048408C03BA
:1048500010057F41414120211F1006445454547FCC
:104860000426449F540C7F201000FF151515559504
:104870007F8020109020988888E98E8888A89800EA
:10488000024281B63C07844B281028476903295807
:104890001F24FC7D03372322CF1DD1033004428225
:1048A0007F082D00072C040202C2E3032282014E7E
:1048B00002E70351043DF8052C0F201808EAACA8C4
:1048C000A8AFA8A8ACEA08288907223E423807FF0B
:1048D000020212221E1F13F2920122FE0512F25052
:1048E0002C040404FF2B061C0707040444847FD017
:1048F00007C280010D101E082405020C806075336C
:10490000C8085F140502027E012F19AB3F06186923
:10491000061C04084888E106370090A82E10780687
:1049200010040C0304293E43BF052DBF0431A85ECB
:10493000FFB70635B91128323FC11C05780002E2E5
:10494000770452FE0412E2E11FFF0037031216043F
:1049500043024C423D910529601C05090AC808CC58
:104960000728061F0010201FA21C041826415B0503
:104970003D900542087E3AF0801F1F08B1073C05B4
:104980000E0140801203480440301E44319E280529
:10499000008181419D4A019F2E815E051808FA021F
:1049A000FE4020D8176611987C078047300F1067AB
:1049B00001032970814011DF19102101327F061592
:1049C000803D20035C0A1000FC24E4242223E22022
:1049D00003100783601F804126A015201C04020CD1
:1049E000C024082004484848C2168ACF227F982C49
:1049F000091E925E20173846F19D081005F8070041
:104A00003EFC2C0422223EC7081D9C03140C2011DE
:104A1000090503FF0305091120B0280584E41C07DC
:104A2000231404A46424B01DD3078BFF00221D8D22
:104A300005538292012EFEBC044C0E4040222410ED
:104A400048807F04081824222F041D2A068C05E2C2
:104A50001CE0003E082E0C99071DDD062DE003200A
:104A600009001088C43300BEAA0122BEAF316053D2
:104A70000A126221301C04908886A0044F838C594E
:104A80000825FD5707005D1D1A031C0F84E45C44D4
:104A9000C42010E82724E4342CE07F0414057F10A0
:104AA000103FA65C0709093F49897F40039DB50473
:104AB0001DC604239048432DFF095E8060031C043B
:104AC000FC24A47F063FA362080A4C0D1F20584710
:104AD0005048454245485040FF065C06F21212120B
:104AE000F2E8062DF90316270F3E27FF034D400479
:104AF0009D80033D4004AD8003240F0C4424140426
:104B000005060404142444140CC11DB8032E41BD31
:104B1000034E414E0526FC5B3F3DA687031A042F3A
:104B200010040F10136F12FF731A121041A01D2FE3
:104B3000055006C949497F80A02C0A405F4844407F
:104B400041424558F0032A7CC922FF0563FC000F4F
:104B50005DA00331111C0C8A52225A46404758244A
:104B6000528840051C070141404F59697C051C06CD
:104B700069594F4041A0091D4D0B1D41053D46059A
:104B800027222CF01F02012C0319C05D60031008BE
:104B90000484844424548FBE1F84847F0B140641F4
:104BA0003900003C552C054C40407020051D8D07F8
:104BB000210132FF063DB8063DF8094EFF1F0A2DC0
:104BC000D10A53E28201453F5D7A035D7F03215F95
:104BD0005C088484FC4030CC0B89091DBF048F1015
:104BE0000800031409108C4404E40495A6461C052F
:104BF0008444940C6F061C077A414143427E0403AF
:104C00007B43F80020040002F2612D5F0839002D7B
:104C100097031D19041D8D052D00063006644848B4
:104C20007F48043E4000068E117F064D40053B80C4
:104C30009EC13E9EC90610047F2094F233140FF2E9
:104C40001C100040445465C664544400FC4444C4F1
:104C500042F0041F124A1D051F0A9207043D000777
:104C60002C1D88681FC80810C85452D1129408D04F
:104C70001000091909FF0500FF1292FF005F0406EA
:104C80003C0E4020F807F0A0904C5724A4544CFA56
:104C9000073C0BFF001F80925249292412960B2DCE
:104CA0002E053C078242F20E42826F055D360B21D3
:104CB0009B1B01022F7C0842625AC65262C220042A
:104CC000740840C4447F2424A0201D2D0C1404C863
:104CD000380C3D2EE8280B3E0840039962270080DF
:104CE00018457F1DC2053D40032D06087DC6073CC3
:104CF0000F20102CE7242400E22C20BF2028E6E817
:104D00000C15211F804F5C0B2C0410204FA0033C7E
:104D1000041011F67D042FF4135F0511AC5C04320E
:104D20000F02E3053D200D3C04101116BB045F1477
:104D300013E0046E417E072DE0041C049052340100
:104D4000082C06345280708F6A0B1C0900829A5618
:104D50006322528ED8042404330C33E01E0C18084E
:104D600020044445C6062D20031D0B071F1E20DD11
:104D70000631103DE0043D400821C37C0592A29E0F
:104D80000040081C1880432C102C43800012EAAF0E
:104D9000AAEA0FFA02888C5724548C8470061005F6
:104DA000EAAAAAAB021D500432EAA0119B5D40059D
:104DB0003DC90D2F000F80063D85062DEE0C5D5080
:104DC000056EFE50055E80A1042F030C6F0419D000
:104DD0004005104C475401CFD404BA0A3C040F30AC
:104DE00040D80C6EFE00053DB00E5C0442445822D3
:104DF000076005504846406062C2601D1F033F06C1
:104E0000001E081D7A0E1D7C033D79032DF40C2D28
:104E10009F051FCA0840061A1F531C0610209F40FA
:104E20002760061D51061DFF0D3C05888889FA6024
:104E3000038DC70D1D3A091D86063D5C0E2008F83E
:104E40000708C848FF480342781B3683A35EFF82E9
:104E5000077EF0AB0945003DB90C31057DC004511A
:104E6000C321C12D00091E405E032E7E63034F7EC9
:104E700040A0045C0724FC252624FCA004180A8F0B
:104E800080844C5525252555CF1CC28000D6B8CE30
:104E9000C6C4A3BFE9BCFCCCEDBCD3C9BEB3FDD135
:104EA000E9D6A4C7EBB0B4CAD6D5FDB3A3D4D9D242
:104EB000BBB4CEB6D4B1C8C1BDB3C9B9A6CAA7B038
:104EC000DCC9FAB0E5BCF5B1A3B4E6C2BCC8EBB529
:104ED000C3B7D6C8B7C8CFB7B5BBD8C7E5BFD5BF6E
:104EE000E2CDCBB3F6B5C7D7B4CCACCEB4D2D1B843
:104EF000C4C3DCC2EBB4EDCEF3D0C2CAE4D0DEB2A0
:104F0000BBD6C2D4DABFAACBF8B2A2B9D8CAFDB612
:104F1000A8B1A8BEAFD6D0CCECC6F8CFD4CABEB329
:104F2000C7CAD0B7F0C9BDCEC2B6C800202122235F
:104F30002425262728292A2B2C2D2E2F30313233B9
:104F40003435363738393A3B3C3D3E3F46055C3DCB
:104F5000434445464748494A4B4C4D4E4F505152A9
:104F6000535455565758595A5B5C5D5E5F60616299
:104F7000636465666768696A6B6C6D6E6F70717289
:104F8000737475767778797A7B7C7D7E080B110156
:104F9000B91A5005080140010852021053000808D0
:104FA0004210185210204D730E4E010B061108EDE1
:104FB00002092015C43A68D9536A0B01D0791F3908
:104FC000B0B18FA5059E0A88705009FFFFAA07029D
:104FD0000009BC824004078029167E006211412628
:104FE0002EB0330A000621D7245B6A0001000400BA
:044FF00001000000BC
:0400000508000145A9
:00000001FF
